{
	"data": {
		"bytecode": {
			"linkReferences": {},
			"object": "60806040526000600355600060045560006005556101f46006556000600755600060085560006009556000601260006101000a81548160ff0219169083151502179055506064601260016101000a81548161ffff021916908361ffff16021790555062015180601260036101000a81548163ffffffff021916908363ffffffff16021790555061dead601460006101000a81548173ffffffffffffffffffffffffffffffffffffffff021916908373ffffffffffffffffffffffffffffffffffffffff1602179055506001601c60146101000a81548160ff0219169083151502179055506000601d556000601e60006101000a81548160ff0219169083151502179055503480156200011057600080fd5b506040516200811d3803806200811d8339818101604052810190620001369190620015cd565b60006200014862000fc960201b60201c565b9050806000806101000a81548173ffffffffffffffffffffffffffffffffffffffff021916908373ffffffffffffffffffffffffffffffffffffffff1602179055508073ffffffffffffffffffffffffffffffffffffffff16600073ffffffffffffffffffffffffffffffffffffffff167f8be0079c531659141344cd1fd0a4f28419497f9722a3daafe3b4186f6b6457e060405160405180910390a35083600081518110620001fd57620001fc620016bb565b5b6020026020010151600e90816200021591906200192b565b50836001815181106200022d576200022c620016bb565b5b6020026020010151600f90816200024591906200192b565b50816000815181106200025d576200025c620016bb565b5b602002602001015160108190555081600181518110620002825762000281620016bb565b5b602002602001015160118190555082600081518110620002a757620002a6620016bb565b5b6020026020010151600160006101000a81548173ffffffffffffffffffffffffffffffffffffffff021916908373ffffffffffffffffffffffffffffffffffffffff16021790555081600281518110620003065762000305620016bb565b5b6020026020010151600381905550816003815181106200032b576200032a620016bb565b5b60200260200101516005819055508160048151811062000350576200034f620016bb565b5b602002602001015160048190555081600581518110620003755762000374620016bb565b5b6020026020010151600681905550816006815181106200039a5762000399620016bb565b5b602002602001015160088190555081600781518110620003bf57620003be620016bb565b5b602002602001015160078190555081600881518110620003e457620003e3620016bb565b5b602002602001015160098190555081600981518110620004095762000408620016bb565b5b6020026020010151600a8190555081600a815181106200042e576200042d620016bb565b5b6020026020010151600c8190555081600b81518110620004535762000452620016bb565b5b6020026020010151600b81905550600a54600c541015620004ab576040517f08c379a0000000000000000000000000000000000000000000000000000000008152600401620004a29062001a99565b60405180910390fd5b81600c81518110620004c257620004c1620016bb565b5b6020026020010151601d819055506003601d54111562000519576040517f08c379a0000000000000000000000000000000000000000000000000000000008152600401620005109062001b0b565b60405180910390fd5b6109c460035460045460055462000531919062001b5c565b6200053d919062001b5c565b1062000580576040517f08c379a0000000000000000000000000000000000000000000000000000000008152600401620005779062001be7565b60405180910390fd5b6109c460065460075460085462000598919062001b5c565b620005a4919062001b5c565b10620005e7576040517f08c379a0000000000000000000000000000000000000000000000000000000008152600401620005de9062001be7565b60405180910390fd5b80600081518110620005fe57620005fd620016bb565b5b6020026020010151600060146101000a81548160ff02191690831515021790555080600181518110620006365762000635620016bb565b5b6020026020010151600060156101000a81548160ff021916908315150217905550806002815181106200066e576200066d620016bb565b5b6020026020010151600060166101000a81548160ff02191690831515021790555080600381518110620006a657620006a5620016bb565b5b6020026020010151600060176101000a81548160ff02191690831515021790555080600481518110620006de57620006dd620016bb565b5b6020026020010151600060186101000a81548160ff02191690831515021790555080600581518110620007165762000715620016bb565b5b6020026020010151600060196101000a81548160ff021916908315150217905550806006815181106200074e576200074d620016bb565b5b60200260200101516000601a6101000a81548160ff02191690831515021790555080600781518110620007865762000785620016bb565b5b6020026020010151601e60006101000a81548160ff021916908315150217905550601e60009054906101000a900460ff1615620007e557600854600754600654620007d2919062001b5c565b620007de919062001b5c565b601f819055505b600083600181518110620007fe57620007fd620016bb565b5b60200260200101519050600160009054906101000a900473ffffffffffffffffffffffffffffffffffffffff1673ffffffffffffffffffffffffffffffffffffffff1663095ea7b3826000196040518363ffffffff1660e01b81526004016200086992919062001c2b565b6020604051808303816000875af115801562000889573d6000803e3d6000fd5b505050506040513d601f19601f82011682018060405250810190620008af919062001c58565b5080601860006101000a81548173ffffffffffffffffffffffffffffffffffffffff021916908373ffffffffffffffffffffffffffffffffffffffff160217905550600019601660003073ffffffffffffffffffffffffffffffffffffffff1673ffffffffffffffffffffffffffffffffffffffff16815260200190815260200160002060008373ffffffffffffffffffffffffffffffffffffffff1673ffffffffffffffffffffffffffffffffffffffff1681526020019081526020016000208190555060008173ffffffffffffffffffffffffffffffffffffffff1663c45a01556040518163ffffffff1660e01b8152600401602060405180830381865afa158015620009c2573d6000803e3d6000fd5b505050506040513d601f19601f82011682018060405250810190620009e8919062001c8a565b905060008173ffffffffffffffffffffffffffffffffffffffff1663c9c6539630600160009054906101000a900473ffffffffffffffffffffffffffffffffffffffff166040518363ffffffff1660e01b815260040162000a4b92919062001cbc565b6020604051808303816000875af115801562000a6b573d6000803e3d6000fd5b505050506040513d601f19601f8201168201806040525081019062000a91919062001c8a565b905080601b60006101000a81548173ffffffffffffffffffffffffffffffffffffffff021916908373ffffffffffffffffffffffffffffffffffffffff1602179055506001601960008373ffffffffffffffffffffffffffffffffffffffff1673ffffffffffffffffffffffffffffffffffffffff16815260200190815260200160002060006101000a81548160ff0219169083151502179055506001601a60008573ffffffffffffffffffffffffffffffffffffffff1673ffffffffffffffffffffffffffffffffffffffff16815260200190815260200160002060006101000a81548160ff021916908315150217905550600060149054906101000a900460ff1662000c3557600160009054906101000a900473ffffffffffffffffffffffffffffffffffffffff1660405162000bca9062000fd1565b62000bd6919062001ce9565b604051809103906000f08015801562000bf3573d6000803e3d6000fd5b50601c60006101000a81548173ffffffffffffffffffffffffffffffffffffffff021916908373ffffffffffffffffffffffffffffffffffffffff1602179055505b60008660028151811062000c4e5762000c4d620016bb565b5b60200260200101519050601154601560008373ffffffffffffffffffffffffffffffffffffffff1673ffffffffffffffffffffffffffffffffffffffff168152602001908152602001600020819055508073ffffffffffffffffffffffffffffffffffffffff16600073ffffffffffffffffffffffffffffffffffffffff167fddf252ad1be2c89b69c2b068fc378daa952ba7f163c4a11628f55a4df523b3ef60115460405162000d00919062001d06565b60405180910390a38660038151811062000d1f5762000d1e620016bb565b5b6020026020010151600260006101000a81548173ffffffffffffffffffffffffffffffffffffffff021916908373ffffffffffffffffffffffffffffffffffffffff1602179055506001601a6000600260009054906101000a900473ffffffffffffffffffffffffffffffffffffffff1673ffffffffffffffffffffffffffffffffffffffff1673ffffffffffffffffffffffffffffffffffffffff16815260200190815260200160002060006101000a81548160ff0219169083151502179055506001601a60008373ffffffffffffffffffffffffffffffffffffffff1673ffffffffffffffffffffffffffffffffffffffff16815260200190815260200160002060006101000a81548160ff0219169083151502179055506001601a60003073ffffffffffffffffffffffffffffffffffffffff1673ffffffffffffffffffffffffffffffffffffffff16815260200190815260200160002060006101000a81548160ff0219169083151502179055506001601a60003373ffffffffffffffffffffffffffffffffffffffff1673ffffffffffffffffffffffffffffffffffffffff16815260200190815260200160002060006101000a81548160ff0219169083151502179055506001601a60003273ffffffffffffffffffffffffffffffffffffffff1673ffffffffffffffffffffffffffffffffffffffff16815260200190815260200160002060006101000a81548160ff0219169083151502179055506001601a6000601460009054906101000a900473ffffffffffffffffffffffffffffffffffffffff1673ffffffffffffffffffffffffffffffffffffffff1673ffffffffffffffffffffffffffffffffffffffff16815260200190815260200160002060006101000a81548160ff021916908315150217905550505050505050505062001d23565b600033905090565b61024c8062007ed183390190565b6000604051905090565b600080fd5b600080fd5b600080fd5b6000601f19601f8301169050919050565b7f4e487b7100000000000000000000000000000000000000000000000000000000600052604160045260246000fd5b620010438262000ff8565b810181811067ffffffffffffffff8211171562001065576200106462001009565b5b80604052505050565b60006200107a62000fdf565b905062001088828262001038565b919050565b600067ffffffffffffffff821115620010ab57620010aa62001009565b5b602082029050602081019050919050565b600080fd5b600080fd5b600067ffffffffffffffff821115620010e457620010e362001009565b5b620010ef8262000ff8565b9050602081019050919050565b60005b838110156200111c578082015181840152602081019050620010ff565b60008484015250505050565b60006200113f6200113984620010c6565b6200106e565b9050828152602081018484840111156200115e576200115d620010c1565b5b6200116b848285620010fc565b509392505050565b600082601f8301126200118b576200118a62000ff3565b5b81516200119d84826020860162001128565b91505092915050565b6000620011bd620011b7846200108d565b6200106e565b90508083825260208201905060208402830185811115620011e357620011e2620010bc565b5b835b818110156200123157805167ffffffffffffffff8111156200120c576200120b62000ff3565b5b8086016200121b898262001173565b85526020850194505050602081019050620011e5565b5050509392505050565b600082601f83011262001253576200125262000ff3565b5b815162001265848260208601620011a6565b91505092915050565b600067ffffffffffffffff8211156200128c576200128b62001009565b5b602082029050602081019050919050565b600073ffffffffffffffffffffffffffffffffffffffff82169050919050565b6000620012ca826200129d565b9050919050565b620012dc81620012bd565b8114620012e857600080fd5b50565b600081519050620012fc81620012d1565b92915050565b60006200131962001313846200126e565b6200106e565b905080838252602082019050602084028301858111156200133f576200133e620010bc565b5b835b818110156200136c5780620013578882620012eb565b84526020840193505060208101905062001341565b5050509392505050565b600082601f8301126200138e576200138d62000ff3565b5b8151620013a084826020860162001302565b91505092915050565b600067ffffffffffffffff821115620013c757620013c662001009565b5b602082029050602081019050919050565b6000819050919050565b620013ed81620013d8565b8114620013f957600080fd5b50565b6000815190506200140d81620013e2565b92915050565b60006200142a6200142484620013a9565b6200106e565b9050808382526020820190506020840283018581111562001450576200144f620010bc565b5b835b818110156200147d5780620014688882620013fc565b84526020840193505060208101905062001452565b5050509392505050565b600082601f8301126200149f576200149e62000ff3565b5b8151620014b184826020860162001413565b91505092915050565b600067ffffffffffffffff821115620014d857620014d762001009565b5b602082029050602081019050919050565b60008115159050919050565b6200150081620014e9565b81146200150c57600080fd5b50565b6000815190506200152081620014f5565b92915050565b60006200153d6200153784620014ba565b6200106e565b90508083825260208201905060208402830185811115620015635762001562620010bc565b5b835b818110156200159057806200157b88826200150f565b84526020840193505060208101905062001565565b5050509392505050565b600082601f830112620015b257620015b162000ff3565b5b8151620015c484826020860162001526565b91505092915050565b60008060008060808587031215620015ea57620015e962000fe9565b5b600085015167ffffffffffffffff8111156200160b576200160a62000fee565b5b62001619878288016200123b565b945050602085015167ffffffffffffffff8111156200163d576200163c62000fee565b5b6200164b8782880162001376565b935050604085015167ffffffffffffffff8111156200166f576200166e62000fee565b5b6200167d8782880162001487565b925050606085015167ffffffffffffffff811115620016a157620016a062000fee565b5b620016af878288016200159a565b91505092959194509250565b7f4e487b7100000000000000000000000000000000000000000000000000000000600052603260045260246000fd5b600081519050919050565b7f4e487b7100000000000000000000000000000000000000000000000000000000600052602260045260246000fd5b600060028204905060018216806200173d57607f821691505b602082108103620017535762001752620016f5565b5b50919050565b60008190508160005260206000209050919050565b60006020601f8301049050919050565b600082821b905092915050565b600060088302620017bd7fffffffffffffffffffffffffffffffffffffffffffffffffffffffffffffffff826200177e565b620017c986836200177e565b95508019841693508086168417925050509392505050565b6000819050919050565b60006200180c620018066200180084620013d8565b620017e1565b620013d8565b9050919050565b6000819050919050565b6200182883620017eb565b62001840620018378262001813565b8484546200178b565b825550505050565b600090565b6200185762001848565b620018648184846200181d565b505050565b5b818110156200188c57620018806000826200184d565b6001810190506200186a565b5050565b601f821115620018db57620018a58162001759565b620018b0846200176e565b81016020851015620018c0578190505b620018d8620018cf856200176e565b83018262001869565b50505b505050565b600082821c905092915050565b60006200190060001984600802620018e0565b1980831691505092915050565b60006200191b8383620018ed565b9150826002028217905092915050565b6200193682620016ea565b67ffffffffffffffff81111562001952576200195162001009565b5b6200195e825462001724565b6200196b82828562001890565b600060209050601f831160018114620019a357600084156200198e578287015190505b6200199a85826200190d565b86555062001a0a565b601f198416620019b38662001759565b60005b82811015620019dd57848901518255600182019150602085019450602081019050620019b6565b86831015620019fd5784890151620019f9601f891682620018ed565b8355505b6001600288020188555050505b505050505050565b600082825260208201905092915050565b7f206d617853656c6c2073686f756c64206265203e207468616e206d617842757960008201527f2000000000000000000000000000000000000000000000000000000000000000602082015250565b600062001a8160218362001a12565b915062001a8e8262001a23565b604082019050919050565b6000602082019050818103600083015262001ab48162001a72565b9050919050565b7f61697264726f704e756d62732073686f756c64206265203c3d20330000000000600082015250565b600062001af3601b8362001a12565b915062001b008262001abb565b602082019050919050565b6000602082019050818103600083015262001b268162001ae4565b9050919050565b7f4e487b7100000000000000000000000000000000000000000000000000000000600052601160045260246000fd5b600062001b6982620013d8565b915062001b7683620013d8565b925082820190508082111562001b915762001b9062001b2d565b5b92915050565b7f66656520746f6f20686967680000000000000000000000000000000000000000600082015250565b600062001bcf600c8362001a12565b915062001bdc8262001b97565b602082019050919050565b6000602082019050818103600083015262001c028162001bc0565b9050919050565b62001c1481620012bd565b82525050565b62001c2581620013d8565b82525050565b600060408201905062001c42600083018562001c09565b62001c51602083018462001c1a565b9392505050565b60006020828403121562001c715762001c7062000fe9565b5b600062001c81848285016200150f565b91505092915050565b60006020828403121562001ca35762001ca262000fe9565b5b600062001cb384828501620012eb565b91505092915050565b600060408201905062001cd3600083018562001c09565b62001ce2602083018462001c09565b9392505050565b600060208201905062001d00600083018462001c09565b92915050565b600060208201905062001d1d600083018462001c1a565b92915050565b61619e8062001d336000396000f3fe60806040526004361061041f5760003560e01c80637862a67f1161021e578063b02d757f11610123578063d5986433116100ab578063e5a6b10f1161007a578063e5a6b10f14611000578063e5c2b0a61461102b578063e72b6a4914611054578063e82bef2914611091578063f2fde38b146110bc57610426565b8063d598643314610f42578063dac1dcfe14610f6d578063dd62ed3e14610f98578063e32759cf14610fd557610426565b8063bd25bf29116100f2578063bd25bf2914610e59578063bebe766f14610e96578063c92d567e14610ec1578063ce0192f914610eec578063d49d518114610f1757610426565b8063b02d757f14610d9a578063b3ace4ec14610dc5578063b8996bc314610df0578063b9fbc49d14610e2e57610426565b806390d1dfa9116101a6578063a9059cbb11610175578063a9059cbb14610cb3578063aa4bde2814610cf0578063aa582b4214610d1b578063acb2ad6f14610d44578063adc7955d14610d6f57610426565b806390d1dfa914610c0b57806395d89b4114610c34578063a23270d714610c5f578063a842486114610c8a57610426565b806385dc3004116101ed57806385dc300414610b385780638718b24f14610b6157806388e765ff14610b8c5780638da5cb5b14610bb75780638f02bb5b14610be257610426565b80637862a67f14610a7d5780637959473614610abb5780637abdc1ca14610ae45780637db1342c14610b0f57610426565b80632dab693f116103245780635932ead1116102ac57806366d602ae1161027b57806366d602ae146109aa578063697cfc19146109d55780636ebcf607146109ec57806370a0823114610a29578063715018a614610a6657610426565b80635932ead1146109025780635a7ba73c1461092b5780636108a3db146109565780636440d60b1461097f57610426565b80634188bf5a116102f35780634188bf5a14610807578063423f8f9d146108325780634481c7a31461085d5780634d5ce0381461089a578063553193ca146108d757610426565b80632dab693f14610749578063313ce567146107745780633bfe62ca1461079f5780633c11100d146107ca57610426565b80630f890b86116103a757806316f2f1a81161037657806316f2f1a81461066057806318160ddd1461068b5780631846a5a4146106b6578063206c17bb146106e157806323b872dd1461070c57610426565b80630f890b86146105cc57806314a432c9146105e3578063150e4c471461060c57806315d07d821461063557610426565b8063063be69e116103ee578063063be69e146104e757806306fdde03146104fe57806307313d8d14610529578063095ea7b3146105525780630d08f2381461058f57610426565b806301339c211461042b57806301986fad14610442578063024c2ddd1461047f57806303da2b23146104bc57610426565b3661042657005b600080fd5b34801561043757600080fd5b506104406110e5565b005b34801561044e57600080fd5b5061046960048036038101906104649190614ed5565b6111c8565b6040516104769190614f1d565b60405180910390f35b34801561048b57600080fd5b506104a660048036038101906104a19190614f38565b6111e8565b6040516104b39190614f91565b60405180910390f35b3480156104c857600080fd5b506104d161120d565b6040516104de9190614f1d565b60405180910390f35b3480156104f357600080fd5b506104fc611220565b005b34801561050a57600080fd5b506105136112d1565b604051610520919061503c565b60405180910390f35b34801561053557600080fd5b50610550600480360381019061054b919061508a565b61135f565b005b34801561055e57600080fd5b50610579600480360381019061057491906150e3565b611411565b6040516105869190614f1d565b60405180910390f35b34801561059b57600080fd5b506105b660048036038101906105b19190615123565b611428565b6040516105c39190614f91565b60405180910390f35b3480156105d857600080fd5b506105e161156a565b005b3480156105ef57600080fd5b5061060a60048036038101906106059190615123565b61161b565b005b34801561061857600080fd5b50610633600480360381019061062e91906151b5565b6116ba565b005b34801561064157600080fd5b5061064a6117f4565b6040516106579190614f1d565b60405180910390f35b34801561066c57600080fd5b50610675611807565b6040516106829190614f91565b60405180910390f35b34801561069757600080fd5b506106a061180d565b6040516106ad9190614f91565b60405180910390f35b3480156106c257600080fd5b506106cb611813565b6040516106d89190614f1d565b60405180910390f35b3480156106ed57600080fd5b506106f6611826565b6040516107039190615274565b60405180910390f35b34801561071857600080fd5b50610733600480360381019061072e919061528f565b61184c565b6040516107409190614f1d565b60405180910390f35b34801561075557600080fd5b5061075e6119f2565b60405161076b9190614f91565b60405180910390f35b34801561078057600080fd5b506107896119f8565b6040516107969190614f91565b60405180910390f35b3480156107ab57600080fd5b506107b46119fe565b6040516107c19190614f91565b60405180910390f35b3480156107d657600080fd5b506107f160048036038101906107ec9190614ed5565b611a04565b6040516107fe9190614f1d565b60405180910390f35b34801561081357600080fd5b5061081c611a24565b60405161082991906152f1565b60405180910390f35b34801561083e57600080fd5b50610847611a4a565b6040516108549190615329565b60405180910390f35b34801561086957600080fd5b50610884600480360381019061087f9190614ed5565b611a5e565b6040516108919190614f91565b60405180910390f35b3480156108a657600080fd5b506108c160048036038101906108bc9190614ed5565b611ac4565b6040516108ce9190614f91565b60405180910390f35b3480156108e357600080fd5b506108ec611b81565b6040516108f99190614f91565b60405180910390f35b34801561090e57600080fd5b506109296004803603810190610924919061508a565b611b87565b005b34801561093757600080fd5b50610940611c70565b60405161094d9190614f1d565b60405180910390f35b34801561096257600080fd5b5061097d600480360381019061097891906151b5565b611c83565b005b34801561098b57600080fd5b50610994611e1a565b6040516109a19190614f91565b60405180910390f35b3480156109b657600080fd5b506109bf611fb6565b6040516109cc9190614f91565b60405180910390f35b3480156109e157600080fd5b506109ea611fbc565b005b3480156109f857600080fd5b50610a136004803603810190610a0e9190614ed5565b61206d565b604051610a209190614f91565b60405180910390f35b348015610a3557600080fd5b50610a506004803603810190610a4b9190614ed5565b612085565b604051610a5d9190614f91565b60405180910390f35b348015610a7257600080fd5b50610a7b6120ce565b005b348015610a8957600080fd5b50610aa46004803603810190610a9f9190614ed5565b612223565b604051610ab2929190615363565b60405180910390f35b348015610ac757600080fd5b50610ae26004803603810190610add919061508a565b612265565b005b348015610af057600080fd5b50610af9612334565b604051610b069190614f91565b60405180910390f35b348015610b1b57600080fd5b50610b366004803603810190610b319190615123565b61233a565b005b348015610b4457600080fd5b50610b5f6004803603810190610b5a9190614ed5565b6123d9565b005b348015610b6d57600080fd5b50610b7661250a565b604051610b8391906153ad565b60405180910390f35b348015610b9857600080fd5b50610ba1612530565b604051610bae9190614f91565b60405180910390f35b348015610bc357600080fd5b50610bcc612536565b604051610bd991906152f1565b60405180910390f35b348015610bee57600080fd5b50610c096004803603810190610c049190615123565b61255f565b005b348015610c1757600080fd5b50610c326004803603810190610c2d91906153c8565b612643565b005b348015610c4057600080fd5b50610c49612731565b604051610c56919061503c565b60405180910390f35b348015610c6b57600080fd5b50610c746127bf565b604051610c819190614f1d565b60405180910390f35b348015610c9657600080fd5b50610cb16004803603810190610cac9190615408565b6127d2565b005b348015610cbf57600080fd5b50610cda6004803603810190610cd591906150e3565b6128c2565b604051610ce79190614f1d565b60405180910390f35b348015610cfc57600080fd5b50610d056128d9565b604051610d129190614f91565b60405180910390f35b348015610d2757600080fd5b50610d426004803603810190610d3d919061549e565b6128df565b005b348015610d5057600080fd5b50610d59612b4d565b604051610d669190614f91565b60405180910390f35b348015610d7b57600080fd5b50610d84612b53565b604051610d919190614f91565b60405180910390f35b348015610da657600080fd5b50610daf612b59565b604051610dbc9190614f1d565b60405180910390f35b348015610dd157600080fd5b50610dda612b6c565b604051610de791906154eb565b60405180910390f35b348015610dfc57600080fd5b50610e176004803603810190610e129190614ed5565b612b82565b604051610e25929190615506565b60405180910390f35b348015610e3a57600080fd5b50610e43612c8f565b604051610e509190614f91565b60405180910390f35b348015610e6557600080fd5b50610e806004803603810190610e7b9190614ed5565b612c95565b604051610e8d9190614f1d565b60405180910390f35b348015610ea257600080fd5b50610eab612cb5565b604051610eb89190614f1d565b60405180910390f35b348015610ecd57600080fd5b50610ed6612cc8565b604051610ee39190614f1d565b60405180910390f35b348015610ef857600080fd5b50610f01612cdb565b604051610f0e9190614f91565b60405180910390f35b348015610f2357600080fd5b50610f2c612ce1565b604051610f399190614f91565b60405180910390f35b348015610f4e57600080fd5b50610f57612ce7565b604051610f649190614f1d565b60405180910390f35b348015610f7957600080fd5b50610f82612cfa565b604051610f8f9190614f1d565b60405180910390f35b348015610fa457600080fd5b50610fbf6004803603810190610fba9190614f38565b612d0d565b604051610fcc9190614f91565b60405180910390f35b348015610fe157600080fd5b50610fea612d94565b604051610ff79190614f91565b60405180910390f35b34801561100c57600080fd5b50611015612d9a565b60405161102291906152f1565b60405180910390f35b34801561103757600080fd5b50611052600480360381019061104d9190615123565b612dc0565b005b34801561106057600080fd5b5061107b60048036038101906110769190615123565b612ea3565b6040516110889190614f91565b60405180910390f35b34801561109d57600080fd5b506110a6612ff5565b6040516110b391906152f1565b60405180910390f35b3480156110c857600080fd5b506110e360048036038101906110de9190614ed5565b61301b565b005b6110ed6131dc565b73ffffffffffffffffffffffffffffffffffffffff1660008054906101000a900473ffffffffffffffffffffffffffffffffffffffff1673ffffffffffffffffffffffffffffffffffffffff161461117a576040517f08c379a00000000000000000000000000000000000000000000000000000000081526004016111719061557b565b60405180910390fd5b6000600d54146111bf576040517f08c379a00000000000000000000000000000000000000000000000000000000081526004016111b6906155e7565b60405180910390fd5b43600d81905550565b601a6020528060005260406000206000915054906101000a900460ff1681565b6016602052816000526040600020602052806000526040600020600091509150505481565b600060199054906101000a900460ff1681565b6112286131dc565b73ffffffffffffffffffffffffffffffffffffffff1660008054906101000a900473ffffffffffffffffffffffffffffffffffffffff1673ffffffffffffffffffffffffffffffffffffffff16146112b5576040517f08c379a00000000000000000000000000000000000000000000000000000000081526004016112ac9061557b565b60405180910390fd5b60008060186101000a81548160ff021916908315150217905550565b600e80546112de90615636565b80601f016020809104026020016040519081016040528092919081815260200182805461130a90615636565b80156113575780601f1061132c57610100808354040283529160200191611357565b820191906000526020600020905b81548152906001019060200180831161133a57829003601f168201915b505050505081565b6113676131dc565b73ffffffffffffffffffffffffffffffffffffffff1660008054906101000a900473ffffffffffffffffffffffffffffffffffffffff1673ffffffffffffffffffffffffffffffffffffffff16146113f4576040517f08c379a00000000000000000000000000000000000000000000000000000000081526004016113eb9061557b565b60405180910390fd5b80601c60146101000a81548160ff02191690831515021790555050565b600061141e3384846131e4565b6001905092915050565b60008060156000601b60009054906101000a900473ffffffffffffffffffffffffffffffffffffffff1673ffffffffffffffffffffffffffffffffffffffff1673ffffffffffffffffffffffffffffffffffffffff16815260200190815260200160002054905060008173118427b3b4a05bc8a8a4de8459868000000000006114b191906156c5565b9050600082670de0b6b3a7640000836114ca91906156f6565b6114d491906156c5565b9050600085846114e49190615738565b905060008173118427b3b4a05bc8a8a4de84598680000000000061150891906156c5565b9050600082670de0b6b3a76400008361152191906156f6565b61152b91906156c5565b9050600184612710868461153f9190615738565b61154991906156f6565b61155391906156c5565b61155d919061576c565b9650505050505050919050565b6115726131dc565b73ffffffffffffffffffffffffffffffffffffffff1660008054906101000a900473ffffffffffffffffffffffffffffffffffffffff1673ffffffffffffffffffffffffffffffffffffffff16146115ff576040517f08c379a00000000000000000000000000000000000000000000000000000000081526004016115f69061557b565b60405180910390fd5b600080601a6101000a81548160ff021916908315150217905550565b6116236131dc565b73ffffffffffffffffffffffffffffffffffffffff1660008054906101000a900473ffffffffffffffffffffffffffffffffffffffff1673ffffffffffffffffffffffffffffffffffffffff16146116b0576040517f08c379a00000000000000000000000000000000000000000000000000000000081526004016116a79061557b565b60405180910390fd5b8060098190555050565b6116c26131dc565b73ffffffffffffffffffffffffffffffffffffffff1660008054906101000a900473ffffffffffffffffffffffffffffffffffffffff1673ffffffffffffffffffffffffffffffffffffffff161461174f576040517f08c379a00000000000000000000000000000000000000000000000000000000081526004016117469061557b565b60405180910390fd5b60005b838390508110156117ee5781601a6000868685818110611775576117746157a0565b5b905060200201602081019061178a9190614ed5565b73ffffffffffffffffffffffffffffffffffffffff1673ffffffffffffffffffffffffffffffffffffffff16815260200190815260200160002060006101000a81548160ff02191690831515021790555080806117e6906157cf565b915050611752565b50505050565b600060149054906101000a900460ff1681565b60055481565b60115481565b601c60149054906101000a900460ff1681565b601860009054906101000a900473ffffffffffffffffffffffffffffffffffffffff1681565b60006118598484846132cf565b600019601660008673ffffffffffffffffffffffffffffffffffffffff1673ffffffffffffffffffffffffffffffffffffffff16815260200190815260200160002060003373ffffffffffffffffffffffffffffffffffffffff1673ffffffffffffffffffffffffffffffffffffffff16815260200190815260200160002054146119e75781601660008673ffffffffffffffffffffffffffffffffffffffff1673ffffffffffffffffffffffffffffffffffffffff16815260200190815260200160002060003373ffffffffffffffffffffffffffffffffffffffff1673ffffffffffffffffffffffffffffffffffffffff168152602001908152602001600020546119669190615738565b601660008673ffffffffffffffffffffffffffffffffffffffff1673ffffffffffffffffffffffffffffffffffffffff16815260200190815260200160002060003373ffffffffffffffffffffffffffffffffffffffff1673ffffffffffffffffffffffffffffffffffffffff168152602001908152602001600020819055505b600190509392505050565b60095481565b60105481565b60065481565b60196020528060005260406000206000915054906101000a900460ff1681565b601b60009054906101000a900473ffffffffffffffffffffffffffffffffffffffff1681565b601260019054906101000a900461ffff1681565b6000611abd601360008473ffffffffffffffffffffffffffffffffffffffff1673ffffffffffffffffffffffffffffffffffffffff16815260200190815260200160002060000160009054906101000a900461ffff1661ffff16612ea3565b9050919050565b6000601760008373ffffffffffffffffffffffffffffffffffffffff1673ffffffffffffffffffffffffffffffffffffffff16815260200190815260200160002060009054906101000a900460ff168015611b695750601960008373ffffffffffffffffffffffffffffffffffffffff1673ffffffffffffffffffffffffffffffffffffffff16815260200190815260200160002060009054906101000a900460ff16155b15611b775760019050611b7c565b600090505b919050565b600d5481565b611b8f6131dc565b73ffffffffffffffffffffffffffffffffffffffff1660008054906101000a900473ffffffffffffffffffffffffffffffffffffffff1673ffffffffffffffffffffffffffffffffffffffff1614611c1c576040517f08c379a0000000000000000000000000000000000000000000000000000000008152600401611c139061557b565b60405180910390fd5b80601260006101000a81548160ff0219169083151502179055507f0d63187a8abb5b4d1bb562e1163897386b0a88ee72e0799dd105bd0fd6f2870681604051611c659190614f1d565b60405180910390a150565b600060169054906101000a900460ff1681565b611c8b6131dc565b73ffffffffffffffffffffffffffffffffffffffff1660008054906101000a900473ffffffffffffffffffffffffffffffffffffffff1673ffffffffffffffffffffffffffffffffffffffff1614611d18576040517f08c379a0000000000000000000000000000000000000000000000000000000008152600401611d0f9061557b565b60405180910390fd5b600060179054906101000a900460ff16611d67576040517f08c379a0000000000000000000000000000000000000000000000000000000008152600401611d5e90615863565b60405180910390fd5b60c98383905010611d7757600080fd5b60005b83839050811015611e14578160176000868685818110611d9d57611d9c6157a0565b5b9050602002016020810190611db29190614ed5565b73ffffffffffffffffffffffffffffffffffffffff1673ffffffffffffffffffffffffffffffffffffffff16815260200190815260200160002060006101000a81548160ff02191690831515021790555080611e0d906157cf565b9050611d7a565b50505050565b600080600554600454600354611e30919061576c565b611e3a919061576c565b90506000611e5b601260019054906101000a900461ffff1661ffff16612ea3565b905060006127108383611e6e91906156f6565b611e7891906156c5565b905060008183611e88919061576c565b9050600060156000601b60009054906101000a900473ffffffffffffffffffffffffffffffffffffffff1673ffffffffffffffffffffffffffffffffffffffff1673ffffffffffffffffffffffffffffffffffffffff1681526020019081526020016000205473118427b3b4a05bc8a8a4de845986800000000000611f0d91906156c5565b905060008260156000601b60009054906101000a900473ffffffffffffffffffffffffffffffffffffffff1673ffffffffffffffffffffffffffffffffffffffff1673ffffffffffffffffffffffffffffffffffffffff16815260200190815260200160002054611f7e9190615738565b73118427b3b4a05bc8a8a4de845986800000000000611f9d91906156c5565b90508181611fab9190615738565b965050505050505090565b600c5481565b611fc46131dc565b73ffffffffffffffffffffffffffffffffffffffff1660008054906101000a900473ffffffffffffffffffffffffffffffffffffffff1673ffffffffffffffffffffffffffffffffffffffff1614612051576040517f08c379a00000000000000000000000000000000000000000000000000000000081526004016120489061557b565b60405180910390fd5b60008060196101000a81548160ff021916908315150217905550565b60156020528060005260406000206000915090505481565b6000601560008373ffffffffffffffffffffffffffffffffffffffff1673ffffffffffffffffffffffffffffffffffffffff168152602001908152602001600020549050919050565b6120d66131dc565b73ffffffffffffffffffffffffffffffffffffffff1660008054906101000a900473ffffffffffffffffffffffffffffffffffffffff1673ffffffffffffffffffffffffffffffffffffffff1614612163576040517f08c379a000000000000000000000000000000000000000000000000000000000815260040161215a9061557b565b60405180910390fd5b61dead73ffffffffffffffffffffffffffffffffffffffff1660008054906101000a900473ffffffffffffffffffffffffffffffffffffffff1673ffffffffffffffffffffffffffffffffffffffff167f8be0079c531659141344cd1fd0a4f28419497f9722a3daafe3b4186f6b6457e060405160405180910390a361dead6000806101000a81548173ffffffffffffffffffffffffffffffffffffffff021916908373ffffffffffffffffffffffffffffffffffffffff160217905550565b60136020528060005260406000206000915090508060000160009054906101000a900461ffff16908060000160029054906101000a900463ffffffff16905082565b61226d6131dc565b73ffffffffffffffffffffffffffffffffffffffff1660008054906101000a900473ffffffffffffffffffffffffffffffffffffffff1673ffffffffffffffffffffffffffffffffffffffff16146122fa576040517f08c379a00000000000000000000000000000000000000000000000000000000081526004016122f19061557b565b60405180910390fd5b801561232857600854600754600654612313919061576c565b61231d919061576c565b601f81905550612331565b6000601f819055505b50565b60085481565b6123426131dc565b73ffffffffffffffffffffffffffffffffffffffff1660008054906101000a900473ffffffffffffffffffffffffffffffffffffffff1673ffffffffffffffffffffffffffffffffffffffff16146123cf576040517f08c379a00000000000000000000000000000000000000000000000000000000081526004016123c69061557b565b60405180910390fd5b80600b8190555050565b6123e16131dc565b73ffffffffffffffffffffffffffffffffffffffff1660008054906101000a900473ffffffffffffffffffffffffffffffffffffffff1673ffffffffffffffffffffffffffffffffffffffff161461246e576040517f08c379a00000000000000000000000000000000000000000000000000000000081526004016124659061557b565b60405180910390fd5b80600260006101000a81548173ffffffffffffffffffffffffffffffffffffffff021916908373ffffffffffffffffffffffffffffffffffffffff1602179055506001601a60008373ffffffffffffffffffffffffffffffffffffffff1673ffffffffffffffffffffffffffffffffffffffff16815260200190815260200160002060006101000a81548160ff02191690831515021790555050565b601c60009054906101000a900473ffffffffffffffffffffffffffffffffffffffff1681565b600a5481565b60008060009054906101000a900473ffffffffffffffffffffffffffffffffffffffff16905090565b6125676131dc565b73ffffffffffffffffffffffffffffffffffffffff1660008054906101000a900473ffffffffffffffffffffffffffffffffffffffff1673ffffffffffffffffffffffffffffffffffffffff16146125f4576040517f08c379a00000000000000000000000000000000000000000000000000000000081526004016125eb9061557b565b60405180910390fd5b6109c4811115612639576040517f08c379a0000000000000000000000000000000000000000000000000000000008152600401612630906158cf565b60405180910390fd5b80601f8190555050565b61264b6131dc565b73ffffffffffffffffffffffffffffffffffffffff1660008054906101000a900473ffffffffffffffffffffffffffffffffffffffff1673ffffffffffffffffffffffffffffffffffffffff16146126d8576040517f08c379a00000000000000000000000000000000000000000000000000000000081526004016126cf9061557b565b60405180910390fd5b81600a8190555080600c81905550600a54600c54101561272d576040517f08c379a000000000000000000000000000000000000000000000000000000000815260040161272490615961565b60405180910390fd5b5050565b600f805461273e90615636565b80601f016020809104026020016040519081016040528092919081815260200182805461276a90615636565b80156127b75780601f1061278c576101008083540402835291602001916127b7565b820191906000526020600020905b81548152906001019060200180831161279a57829003601f168201915b505050505081565b600060189054906101000a900460ff1681565b6127da6131dc565b73ffffffffffffffffffffffffffffffffffffffff1660008054906101000a900473ffffffffffffffffffffffffffffffffffffffff1673ffffffffffffffffffffffffffffffffffffffff1614612867576040517f08c379a000000000000000000000000000000000000000000000000000000000815260040161285e9061557b565b60405180910390fd5b80601960008473ffffffffffffffffffffffffffffffffffffffff1673ffffffffffffffffffffffffffffffffffffffff16815260200190815260200160002060006101000a81548160ff0219169083151502179055505050565b60006128cf3384846132cf565b6001905092915050565b600b5481565b6128e76131dc565b73ffffffffffffffffffffffffffffffffffffffff1660008054906101000a900473ffffffffffffffffffffffffffffffffffffffff1673ffffffffffffffffffffffffffffffffffffffff1614612974576040517f08c379a000000000000000000000000000000000000000000000000000000000815260040161296b9061557b565b60405180910390fd5b6000601a9054906101000a900460ff166129c3576040517f08c379a00000000000000000000000000000000000000000000000000000000081526004016129ba906159cd565b60405180910390fd5b818160008181106129d7576129d66157a0565b5b90506020020135600481905550818160018181106129f8576129f76157a0565b5b9050602002013560058190555081816002818110612a1957612a186157a0565b5b9050602002013560038190555081816003818110612a3a57612a396157a0565b5b9050602002013560078190555081816004818110612a5b57612a5a6157a0565b5b9050602002013560088190555081816005818110612a7c57612a7b6157a0565b5b905060200201356006819055506109c4600354600454600554612a9f919061576c565b612aa9919061576c565b10612ae9576040517f08c379a0000000000000000000000000000000000000000000000000000000008152600401612ae090615a39565b60405180910390fd5b6109c4600654600754600854612aff919061576c565b612b09919061576c565b10612b49576040517f08c379a0000000000000000000000000000000000000000000000000000000008152600401612b4090615a39565b60405180910390fd5b5050565b601f5481565b60075481565b600060179054906101000a900460ff1681565b601260039054906101000a900463ffffffff1681565b6000806000601360008573ffffffffffffffffffffffffffffffffffffffff1673ffffffffffffffffffffffffffffffffffffffff1681526020019081526020016000206040518060400160405290816000820160009054906101000a900461ffff1661ffff1661ffff1681526020016000820160029054906101000a900463ffffffff1663ffffffff1663ffffffff168152505090506000429050816020015163ffffffff16811115612c3e57600080935093505050612c8a565b610e1081836020015163ffffffff16612c579190615738565b612c6191906156c5565b9350603c81836020015163ffffffff16612c7b9190615738565b612c8591906156c5565b925050505b915091565b60045481565b60176020528060005260406000206000915054906101000a900460ff1681565b601260009054906101000a900460ff1681565b600060159054906101000a900460ff1681565b60035481565b60001981565b6000601a9054906101000a900460ff1681565b601e60009054906101000a900460ff1681565b6000601660008473ffffffffffffffffffffffffffffffffffffffff1673ffffffffffffffffffffffffffffffffffffffff16815260200190815260200160002060008373ffffffffffffffffffffffffffffffffffffffff1673ffffffffffffffffffffffffffffffffffffffff16815260200190815260200160002054905092915050565b601d5481565b600160009054906101000a900473ffffffffffffffffffffffffffffffffffffffff1681565b612dc86131dc565b73ffffffffffffffffffffffffffffffffffffffff1660008054906101000a900473ffffffffffffffffffffffffffffffffffffffff1673ffffffffffffffffffffffffffffffffffffffff1614612e55576040517f08c379a0000000000000000000000000000000000000000000000000000000008152600401612e4c9061557b565b60405180910390fd5b6003811115612e99576040517f08c379a0000000000000000000000000000000000000000000000000000000008152600401612e9090615aa5565b60405180910390fd5b80601d8190555050565b60008060156000601b60009054906101000a900473ffffffffffffffffffffffffffffffffffffffff1673ffffffffffffffffffffffffffffffffffffffff1673ffffffffffffffffffffffffffffffffffffffff16815260200190815260200160002054905060008173118427b3b4a05bc8a8a4de845986800000000000612f2c91906156c5565b9050600082670de0b6b3a764000083612f4591906156f6565b612f4f91906156c5565b90506000816127108388612f6391906156f6565b612f6d91906156c5565b612f77919061576c565b90506000612fb6670de0b6b3a764000073118427b3b4a05bc8a8a4de84598680000000000084612fa791906156f6565b612fb191906156c5565b613b3a565b905060008173118427b3b4a05bc8a8a4de845986800000000000612fda91906156c5565b90508086612fe89190615738565b9650505050505050919050565b600260009054906101000a900473ffffffffffffffffffffffffffffffffffffffff1681565b6130236131dc565b73ffffffffffffffffffffffffffffffffffffffff1660008054906101000a900473ffffffffffffffffffffffffffffffffffffffff1673ffffffffffffffffffffffffffffffffffffffff16146130b0576040517f08c379a00000000000000000000000000000000000000000000000000000000081526004016130a79061557b565b60405180910390fd5b600073ffffffffffffffffffffffffffffffffffffffff168173ffffffffffffffffffffffffffffffffffffffff160361311f576040517f08c379a000000000000000000000000000000000000000000000000000000000815260040161311690615b37565b60405180910390fd5b8073ffffffffffffffffffffffffffffffffffffffff1660008054906101000a900473ffffffffffffffffffffffffffffffffffffffff1673ffffffffffffffffffffffffffffffffffffffff167f8be0079c531659141344cd1fd0a4f28419497f9722a3daafe3b4186f6b6457e060405160405180910390a3806000806101000a81548173ffffffffffffffffffffffffffffffffffffffff021916908373ffffffffffffffffffffffffffffffffffffffff16021790555050565b600033905090565b80601660008573ffffffffffffffffffffffffffffffffffffffff1673ffffffffffffffffffffffffffffffffffffffff16815260200190815260200160002060008473ffffffffffffffffffffffffffffffffffffffff1673ffffffffffffffffffffffffffffffffffffffff168152602001908152602001600020819055508173ffffffffffffffffffffffffffffffffffffffff168373ffffffffffffffffffffffffffffffffffffffff167f8c5be1e5ebec7d5bd14f71427d1e84f3dd0314c0f7b2291e5b200ac8c7c3b925836040516132c29190614f91565b60405180910390a3505050565b60006132da84611ac4565b1115613322576000613321576040517f08c379a000000000000000000000000000000000000000000000000000000000815260040161331890615ba3565b60405180910390fd5b5b601b60149054906101000a900460ff161561334857613342838383613ce5565b50613b35565b600061335384612085565b905081811015613398576040517f08c379a000000000000000000000000000000000000000000000000000000000815260040161338f90615c0f565b60405180910390fd5b601a60008573ffffffffffffffffffffffffffffffffffffffff1673ffffffffffffffffffffffffffffffffffffffff16815260200190815260200160002060009054906101000a900460ff1615801561343c5750601a60008473ffffffffffffffffffffffffffffffffffffffff1673ffffffffffffffffffffffffffffffffffffffff16815260200190815260200160002060009054906101000a900460ff16155b80156134545750601c60149054906101000a900460ff165b801561346257506000601d54115b156134e857600080600090505b601d548110156134c95780844260405160200161348e93929190615c50565b6040516020818303038152906040528051906020012060001c91506134b586836001613ce5565b5080806134c1906157cf565b91505061346f565b506001601d546134d991906156f6565b836134e49190615738565b9250505b600080601960008773ffffffffffffffffffffffffffffffffffffffff1673ffffffffffffffffffffffffffffffffffffffff16815260200190815260200160002060009054906101000a900460ff168061358c5750601960008673ffffffffffffffffffffffffffffffffffffffff1673ffffffffffffffffffffffffffffffffffffffff16815260200190815260200160002060009054906101000a900460ff165b15613a7257601a60008773ffffffffffffffffffffffffffffffffffffffff1673ffffffffffffffffffffffffffffffffffffffff16815260200190815260200160002060009054906101000a900460ff161580156136355750601a60008673ffffffffffffffffffffffffffffffffffffffff1673ffffffffffffffffffffffffffffffffffffffff16815260200190815260200160002060009054906101000a900460ff16155b15613a1a57600060159054906101000a900460ff1680156136585750600d546000145b1561366957600061366857600080fd5b5b600060159054906101000a900460ff1680156136915750600060169054906101000a900460ff165b80156136ab5750600954600d546136a8919061576c565b43105b1561375b57601960008673ffffffffffffffffffffffffffffffffffffffff1673ffffffffffffffffffffffffffffffffffffffff16815260200190815260200160002060009054906101000a900460ff1661375a576001601760008773ffffffffffffffffffffffffffffffffffffffff1673ffffffffffffffffffffffffffffffffffffffff16815260200190815260200160002060006101000a81548160ff0219169083151502179055505b5b600060189054906101000a900460ff161561385d57601960008773ffffffffffffffffffffffffffffffffffffffff1673ffffffffffffffffffffffffffffffffffffffff16815260200190815260200160002060009054906101000a900460ff1615613811576137ca613e03565b84111561380c576040517f08c379a000000000000000000000000000000000000000000000000000000000815260040161380390615cff565b60405180910390fd5b61385c565b613819613e77565b84111561385b576040517f08c379a000000000000000000000000000000000000000000000000000000000815260040161385290615cff565b60405180910390fd5b5b5b600060199054906101000a900460ff1680156138c25750601960008773ffffffffffffffffffffffffffffffffffffffff1673ffffffffffffffffffffffffffffffffffffffff16815260200190815260200160002060009054906101000a900460ff165b156139265760006138d286612085565b9050600b5485826138e3919061576c565b1115613924576040517f08c379a000000000000000000000000000000000000000000000000000000000815260040161391b90615d6b565b60405180910390fd5b505b601960008673ffffffffffffffffffffffffffffffffffffffff1673ffffffffffffffffffffffffffffffffffffffff16815260200190815260200160002060009054906101000a900460ff1615613a1557601b60149054906101000a900460ff16613a1457600061399730612085565b90506000811115613a125760006007546006546004546003546139ba919061576c565b6139c4919061576c565b6139ce919061576c565b90506000612710600283896139e391906156f6565b6139ed91906156f6565b6139f791906156c5565b905082811115613a05578290505b613a0f8183613eeb565b50505b505b5b600191505b601960008673ffffffffffffffffffffffffffffffffffffffff1673ffffffffffffffffffffffffffffffffffffffff16815260200190815260200160002060009054906101000a900460ff1615613a7157600190505b5b6000601960008873ffffffffffffffffffffffffffffffffffffffff1673ffffffffffffffffffffffffffffffffffffffff16815260200190815260200160002060009054906101000a900460ff16158015613b185750601960008773ffffffffffffffffffffffffffffffffffffffff1673ffffffffffffffffffffffffffffffffffffffff16815260200190815260200160002060009054906101000a900460ff16155b15613b2257600190505b613b30878787868686614838565b505050505b505050565b6000808203613b4c5760009050613ce0565b6000829050600191507001000000000000000000000000000000008110613b7c57608081901c9050604082901b91505b680100000000000000008110613b9b57604081901c9050602082901b91505b6401000000008110613bb657602081901c9050601082901b91505b620100008110613bcf57601081901c9050600882901b91505b6101008110613be757600881901c9050600482901b91505b60108110613bfe57600481901c9050600282901b91505b60048110613c0e57600182901b91505b6001828481613c2057613c1f615667565b5b048301901c91506001828481613c3957613c38615667565b5b048301901c91506001828481613c5257613c51615667565b5b048301901c91506001828481613c6b57613c6a615667565b5b048301901c91506001828481613c8457613c83615667565b5b048301901c91506001828481613c9d57613c9c615667565b5b048301901c91506001828481613cb657613cb5615667565b5b048301901c91506000828481613ccf57613cce615667565b5b049050808310613cdd578092505b50505b919050565b600081601560008673ffffffffffffffffffffffffffffffffffffffff1673ffffffffffffffffffffffffffffffffffffffff1681526020019081526020016000206000828254613d369190615738565b9250508190555081601560008573ffffffffffffffffffffffffffffffffffffffff1673ffffffffffffffffffffffffffffffffffffffff1681526020019081526020016000206000828254613d8c919061576c565b925050819055508273ffffffffffffffffffffffffffffffffffffffff168473ffffffffffffffffffffffffffffffffffffffff167fddf252ad1be2c89b69c2b068fc378daa952ba7f163c4a11628f55a4df523b3ef84604051613df09190614f91565b60405180910390a3600190509392505050565b600080613e23601260019054906101000a900461ffff1661ffff16612ea3565b90506000600554600454600354613e3a919061576c565b613e44919061576c565b905060006127108284613e5791906156f6565b613e6191906156c5565b90508083613e6f919061576c565b935050505090565b600080613e97601260019054906101000a900461ffff1661ffff16612ea3565b90506000600854600754600654613eae919061576c565b613eb8919061576c565b905060006127108284613ecb91906156f6565b613ed591906156c5565b90508083613ee3919061576c565b935050505090565b6001601b60146101000a81548160ff0219169083151502179055506000810315614819578081613f1b919061576c565b90506000600454600754613f2f919061576c565b90506000828285613f4091906156f6565b613f4a91906156c5565b90506000600267ffffffffffffffff811115613f6957613f68615d8b565b5b604051908082528060200260200182016040528015613f975781602001602082028036833780820191505090505b5090503081600081518110613faf57613fae6157a0565b5b602002602001019073ffffffffffffffffffffffffffffffffffffffff16908173ffffffffffffffffffffffffffffffffffffffff1681525050600160009054906101000a900473ffffffffffffffffffffffffffffffffffffffff16816001815181106140205761401f6157a0565b5b602002602001019073ffffffffffffffffffffffffffffffffffffffff16908173ffffffffffffffffffffffffffffffffffffffff1681525050600060149054906101000a900460ff161561414457601860009054906101000a900473ffffffffffffffffffffffffffffffffffffffff1673ffffffffffffffffffffffffffffffffffffffff1663791ac94783876140b99190615738565b60008430426040518663ffffffff1660e01b81526004016140de959493929190615eb3565b600060405180830381600087803b1580156140f857600080fd5b505af1925050508015614109575060015b61413e577fe2ca28dff25f053218cef44cd4580a8df8e34fd11ee24e2e45b5394750c20d3c60405160405180910390a161413f565b5b614237565b601860009054906101000a900473ffffffffffffffffffffffffffffffffffffffff1673ffffffffffffffffffffffffffffffffffffffff16635c11d795838761418e9190615738565b600084601c60009054906101000a900473ffffffffffffffffffffffffffffffffffffffff16426040518663ffffffff1660e01b81526004016141d5959493929190615eb3565b600060405180830381600087803b1580156141ef57600080fd5b505af1925050508015614200575060015b614235577ffa4626fc78df02cb8fdea85a8af60ad29e2c95f22e2a91c79d99631c288a8b6c60405160405180910390a1614236565b5b5b82846142439190615738565b935060008060008060149054906101000a900460ff161561446f5747925086868461426e91906156f6565b61427891906156c5565b915081836142869190615738565b90506000811180156142e75750600073ffffffffffffffffffffffffffffffffffffffff16600260009054906101000a900473ffffffffffffffffffffffffffffffffffffffff1673ffffffffffffffffffffffffffffffffffffffff1614155b1561435657600260009054906101000a900473ffffffffffffffffffffffffffffffffffffffff1673ffffffffffffffffffffffffffffffffffffffff166108fc829081150290604051600060405180830381858888f19350505050158015614354573d6000803e3d6000fd5b505b6000851180156143665750600082115b1561446a57601860009054906101000a900473ffffffffffffffffffffffffffffffffffffffff1673ffffffffffffffffffffffffffffffffffffffff1663f305d719833088600080600260009054906101000a900473ffffffffffffffffffffffffffffffffffffffff16426040518863ffffffff1660e01b81526004016143f496959493929190615f0d565b60606040518083038185885af19350505050801561443057506040513d601f19601f8201168201806040525081019061442d9190615f83565b60015b614465577fce671f3a6f00739ccc1874c850866644bdbe23b07cb11974f696e72d1672272360405160405180910390a1614469565b5050505b5b614812565b6000600160009054906101000a900473ffffffffffffffffffffffffffffffffffffffff1690508073ffffffffffffffffffffffffffffffffffffffff166370a08231601c60009054906101000a900473ffffffffffffffffffffffffffffffffffffffff166040518263ffffffff1660e01b81526004016144f191906152f1565b602060405180830381865afa15801561450e573d6000803e3d6000fd5b505050506040513d601f19601f820116820180604052508101906145329190615fd6565b935087878561454191906156f6565b61454b91906156c5565b925082846145599190615738565b91506000831115614608578073ffffffffffffffffffffffffffffffffffffffff166323b872dd601c60009054906101000a900473ffffffffffffffffffffffffffffffffffffffff1630866040518463ffffffff1660e01b81526004016145c393929190616003565b6020604051808303816000875af11580156145e2573d6000803e3d6000fd5b505050506040513d601f19601f82011682018060405250810190614606919061604f565b505b60008211156146d7578073ffffffffffffffffffffffffffffffffffffffff166323b872dd601c60009054906101000a900473ffffffffffffffffffffffffffffffffffffffff16600260009054906101000a900473ffffffffffffffffffffffffffffffffffffffff16856040518463ffffffff1660e01b815260040161469293929190616003565b6020604051808303816000875af11580156146b1573d6000803e3d6000fd5b505050506040513d601f19601f820116820180604052508101906146d5919061604f565b505b6000861180156146e75750600083115b1561481057601860009054906101000a900473ffffffffffffffffffffffffffffffffffffffff1673ffffffffffffffffffffffffffffffffffffffff1663e8e3370030600160009054906101000a900473ffffffffffffffffffffffffffffffffffffffff168987600080600260009054906101000a900473ffffffffffffffffffffffffffffffffffffffff16426040518963ffffffff1660e01b815260040161479a98979695949392919061607c565b6060604051808303816000875af19250505080156147d657506040513d601f19601f820116820180604052508101906147d39190615f83565b60015b61480b577f0e944a8ae3ee1160b2678930fb103c5ceadb14ecbb4c16e311d7402f7011322c60405160405180910390a161480f565b5050505b5b505b5050505050505b6000601b60146101000a81548160ff0219169083151502179055505050565b83601560008873ffffffffffffffffffffffffffffffffffffffff1673ffffffffffffffffffffffffffffffffffffffff168152602001908152602001600020546148839190615738565b601560008873ffffffffffffffffffffffffffffffffffffffff1673ffffffffffffffffffffffffffffffffffffffff16815260200190815260200160002081905550600083156149b057600083156148ed576007546006546148e6919061576c565b9050614900565b6004546003546148fd919061576c565b90505b6000612710828861491191906156f6565b61491b91906156c5565b90506000811115614940578083614932919061576c565b925061493f893083614aeb565b5b600085614969576127106005548961495891906156f6565b61496291906156c5565b9050614987565b6127106008548961497a91906156f6565b61498491906156c5565b90505b60008111156149ac57808461499c919061576c565b93506149ab8a61dead83614aeb565b5b5050505b818015614a075750601a60008873ffffffffffffffffffffffffffffffffffffffff1673ffffffffffffffffffffffffffffffffffffffff16815260200190815260200160002060009054906101000a900460ff16155b8015614a5d5750601a60008773ffffffffffffffffffffffffffffffffffffffff1673ffffffffffffffffffffffffffffffffffffffff16815260200190815260200160002060009054906101000a900460ff16155b15614aa6576000612710601f5487614a7591906156f6565b614a7f91906156c5565b90506000811115614aa4578082614a96919061576c565b9150614aa3883083614aeb565b5b505b8180614aaf5750825b15614acc57614acb87878388614ac59190615738565b85614be3565b5b614ae287878388614add9190615738565b614aeb565b50505050505050565b80601560008473ffffffffffffffffffffffffffffffffffffffff1673ffffffffffffffffffffffffffffffffffffffff16815260200190815260200160002054614b36919061576c565b601560008473ffffffffffffffffffffffffffffffffffffffff1673ffffffffffffffffffffffffffffffffffffffff168152602001908152602001600020819055508173ffffffffffffffffffffffffffffffffffffffff168373ffffffffffffffffffffffffffffffffffffffff167fddf252ad1be2c89b69c2b068fc378daa952ba7f163c4a11628f55a4df523b3ef83604051614bd69190614f91565b60405180910390a3505050565b601260009054906101000a900460ff1615614e67576000601360008673ffffffffffffffffffffffffffffffffffffffff1673ffffffffffffffffffffffffffffffffffffffff168152602001908152602001600020905060004290508160000160029054906101000a900463ffffffff1663ffffffff16811115614cd257601260019054906101000a900461ffff168260000160006101000a81548161ffff021916908361ffff160217905550601260039054906101000a900463ffffffff1681614caf91906160fa565b8260000160026101000a81548163ffffffff021916908363ffffffff1602179055505b8215614dc657601360008773ffffffffffffffffffffffffffffffffffffffff1673ffffffffffffffffffffffffffffffffffffffff168152602001908152602001600020601360008773ffffffffffffffffffffffffffffffffffffffff1673ffffffffffffffffffffffffffffffffffffffff1681526020019081526020016000206000820160009054906101000a900461ffff168160000160006101000a81548161ffff021916908361ffff1602179055506000820160029054906101000a900463ffffffff168160000160026101000a81548163ffffffff021916908363ffffffff160217905550905050614e64565b6000614dd185611428565b90508260000160009054906101000a900461ffff1661ffff168161ffff161115614e27576040517f68ef332a00000000000000000000000000000000000000000000000000000000815260040160405180910390fd5b808360000160008282829054906101000a900461ffff16614e489190616132565b92506101000a81548161ffff021916908361ffff160217905550505b50505b50505050565b600080fd5b600080fd5b600073ffffffffffffffffffffffffffffffffffffffff82169050919050565b6000614ea282614e77565b9050919050565b614eb281614e97565b8114614ebd57600080fd5b50565b600081359050614ecf81614ea9565b92915050565b600060208284031215614eeb57614eea614e6d565b5b6000614ef984828501614ec0565b91505092915050565b60008115159050919050565b614f1781614f02565b82525050565b6000602082019050614f326000830184614f0e565b92915050565b60008060408385031215614f4f57614f4e614e6d565b5b6000614f5d85828601614ec0565b9250506020614f6e85828601614ec0565b9150509250929050565b6000819050919050565b614f8b81614f78565b82525050565b6000602082019050614fa66000830184614f82565b92915050565b600081519050919050565b600082825260208201905092915050565b60005b83811015614fe6578082015181840152602081019050614fcb565b60008484015250505050565b6000601f19601f8301169050919050565b600061500e82614fac565b6150188185614fb7565b9350615028818560208601614fc8565b61503181614ff2565b840191505092915050565b600060208201905081810360008301526150568184615003565b905092915050565b61506781614f02565b811461507257600080fd5b50565b6000813590506150848161505e565b92915050565b6000602082840312156150a05761509f614e6d565b5b60006150ae84828501615075565b91505092915050565b6150c081614f78565b81146150cb57600080fd5b50565b6000813590506150dd816150b7565b92915050565b600080604083850312156150fa576150f9614e6d565b5b600061510885828601614ec0565b9250506020615119858286016150ce565b9150509250929050565b60006020828403121561513957615138614e6d565b5b6000615147848285016150ce565b91505092915050565b600080fd5b600080fd5b600080fd5b60008083601f84011261517557615174615150565b5b8235905067ffffffffffffffff81111561519257615191615155565b5b6020830191508360208202830111156151ae576151ad61515a565b5b9250929050565b6000806000604084860312156151ce576151cd614e6d565b5b600084013567ffffffffffffffff8111156151ec576151eb614e72565b5b6151f88682870161515f565b9350935050602061520b86828701615075565b9150509250925092565b6000819050919050565b600061523a61523561523084614e77565b615215565b614e77565b9050919050565b600061524c8261521f565b9050919050565b600061525e82615241565b9050919050565b61526e81615253565b82525050565b60006020820190506152896000830184615265565b92915050565b6000806000606084860312156152a8576152a7614e6d565b5b60006152b686828701614ec0565b93505060206152c786828701614ec0565b92505060406152d8868287016150ce565b9150509250925092565b6152eb81614e97565b82525050565b600060208201905061530660008301846152e2565b92915050565b600061ffff82169050919050565b6153238161530c565b82525050565b600060208201905061533e600083018461531a565b92915050565b600063ffffffff82169050919050565b61535d81615344565b82525050565b6000604082019050615378600083018561531a565b6153856020830184615354565b9392505050565b600061539782615241565b9050919050565b6153a78161538c565b82525050565b60006020820190506153c2600083018461539e565b92915050565b600080604083850312156153df576153de614e6d565b5b60006153ed858286016150ce565b92505060206153fe858286016150ce565b9150509250929050565b6000806040838503121561541f5761541e614e6d565b5b600061542d85828601614ec0565b925050602061543e85828601615075565b9150509250929050565b60008083601f84011261545e5761545d615150565b5b8235905067ffffffffffffffff81111561547b5761547a615155565b5b6020830191508360208202830111156154975761549661515a565b5b9250929050565b600080602083850312156154b5576154b4614e6d565b5b600083013567ffffffffffffffff8111156154d3576154d2614e72565b5b6154df85828601615448565b92509250509250929050565b60006020820190506155006000830184615354565b92915050565b600060408201905061551b6000830185614f82565b6155286020830184614f82565b9392505050565b7f4f776e61626c653a2063616c6c6572206973206e6f7420746865206f776e6572600082015250565b6000615565602083614fb7565b91506155708261552f565b602082019050919050565b6000602082019050818103600083015261559481615558565b9050919050565b7f616c726561647920737461727465640000000000000000000000000000000000600082015250565b60006155d1600f83614fb7565b91506155dc8261559b565b602082019050919050565b60006020820190508181036000830152615600816155c4565b9050919050565b7f4e487b7100000000000000000000000000000000000000000000000000000000600052602260045260246000fd5b6000600282049050600182168061564e57607f821691505b60208210810361566157615660615607565b5b50919050565b7f4e487b7100000000000000000000000000000000000000000000000000000000600052601260045260246000fd5b7f4e487b7100000000000000000000000000000000000000000000000000000000600052601160045260246000fd5b60006156d082614f78565b91506156db83614f78565b9250826156eb576156ea615667565b5b828204905092915050565b600061570182614f78565b915061570c83614f78565b925082820261571a81614f78565b9150828204841483151761573157615730615696565b5b5092915050565b600061574382614f78565b915061574e83614f78565b925082820390508181111561576657615765615696565b5b92915050565b600061577782614f78565b915061578283614f78565b925082820190508082111561579a57615799615696565b5b92915050565b7f4e487b7100000000000000000000000000000000000000000000000000000000600052603260045260246000fd5b60006157da82614f78565b91507fffffffffffffffffffffffffffffffffffffffffffffffffffffffffffffffff820361580c5761580b615696565b5b600182019050919050565b7f7265776172644c6973742064697361626c656400000000000000000000000000600082015250565b600061584d601383614fb7565b915061585882615817565b602082019050919050565b6000602082019050818103600083015261587c81615840565b9050919050565b7f7472616e73666572203e20323520210000000000000000000000000000000000600082015250565b60006158b9600f83614fb7565b91506158c482615883565b602082019050919050565b600060208201905081810360008301526158e8816158ac565b9050919050565b7f206d617853656c6c2073686f756c64206265203e207468616e206d617842757960008201527f2000000000000000000000000000000000000000000000000000000000000000602082015250565b600061594b602183614fb7565b9150615956826158ef565b604082019050919050565b6000602082019050818103600083015261597a8161593e565b9050919050565b7f746178206368616e67652064697361626c656400000000000000000000000000600082015250565b60006159b7601383614fb7565b91506159c282615981565b602082019050919050565b600060208201905081810360008301526159e6816159aa565b9050919050565b7f66656520746f6f20686967680000000000000000000000000000000000000000600082015250565b6000615a23600c83614fb7565b9150615a2e826159ed565b602082019050919050565b60006020820190508181036000830152615a5281615a16565b9050919050565b7f6e657756616c7565206d757374203c3d20330000000000000000000000000000600082015250565b6000615a8f601283614fb7565b9150615a9a82615a59565b602082019050919050565b60006020820190508181036000830152615abe81615a82565b9050919050565b7f4f776e61626c653a206e6577206f776e657220697320746865207a65726f206160008201527f6464726573730000000000000000000000000000000000000000000000000000602082015250565b6000615b21602683614fb7565b9150615b2c82615ac5565b604082019050919050565b60006020820190508181036000830152615b5081615b14565b9050919050565b7f6973526577617264203e20302021000000000000000000000000000000000000600082015250565b6000615b8d600e83614fb7565b9150615b9882615b57565b602082019050919050565b60006020820190508181036000830152615bbc81615b80565b9050919050565b7f62616c616e63654e6f74456e6f75676800000000000000000000000000000000600082015250565b6000615bf9601083614fb7565b9150615c0482615bc3565b602082019050919050565b60006020820190508181036000830152615c2881615bec565b9050919050565b6000819050919050565b615c4a615c4582614f78565b615c2f565b82525050565b6000615c5c8286615c39565b602082019150615c6c8285615c39565b602082019150615c7c8284615c39565b602082019150819050949350505050565b7f4578636565646564206d6178696d756d207472616e73616374696f6e20766f6c60008201527f756d650000000000000000000000000000000000000000000000000000000000602082015250565b6000615ce9602383614fb7565b9150615cf482615c8d565b604082019050919050565b60006020820190508181036000830152615d1881615cdc565b9050919050565b7f4578636565646564206d6178696d756d2077616c6c65742062616c616e636500600082015250565b6000615d55601f83614fb7565b9150615d6082615d1f565b602082019050919050565b60006020820190508181036000830152615d8481615d48565b9050919050565b7f4e487b7100000000000000000000000000000000000000000000000000000000600052604160045260246000fd5b6000819050919050565b6000615ddf615dda615dd584615dba565b615215565b614f78565b9050919050565b615def81615dc4565b82525050565b600081519050919050565b600082825260208201905092915050565b6000819050602082019050919050565b615e2a81614e97565b82525050565b6000615e3c8383615e21565b60208301905092915050565b6000602082019050919050565b6000615e6082615df5565b615e6a8185615e00565b9350615e7583615e11565b8060005b83811015615ea6578151615e8d8882615e30565b9750615e9883615e48565b925050600181019050615e79565b5085935050505092915050565b600060a082019050615ec86000830188614f82565b615ed56020830187615de6565b8181036040830152615ee78186615e55565b9050615ef660608301856152e2565b615f036080830184614f82565b9695505050505050565b600060c082019050615f2260008301896152e2565b615f2f6020830188614f82565b615f3c6040830187615de6565b615f496060830186615de6565b615f5660808301856152e2565b615f6360a0830184614f82565b979650505050505050565b600081519050615f7d816150b7565b92915050565b600080600060608486031215615f9c57615f9b614e6d565b5b6000615faa86828701615f6e565b9350506020615fbb86828701615f6e565b9250506040615fcc86828701615f6e565b9150509250925092565b600060208284031215615fec57615feb614e6d565b5b6000615ffa84828501615f6e565b91505092915050565b600060608201905061601860008301866152e2565b61602560208301856152e2565b6160326040830184614f82565b949350505050565b6000815190506160498161505e565b92915050565b60006020828403121561606557616064614e6d565b5b60006160738482850161603a565b91505092915050565b600061010082019050616092600083018b6152e2565b61609f602083018a6152e2565b6160ac6040830189614f82565b6160b96060830188614f82565b6160c66080830187615de6565b6160d360a0830186615de6565b6160e060c08301856152e2565b6160ed60e0830184614f82565b9998505050505050505050565b600061610582615344565b915061611083615344565b9250828201905063ffffffff81111561612c5761612b615696565b5b92915050565b600061613d8261530c565b91506161488361530c565b9250828203905061ffff81111561616257616161615696565b5b9291505056fea2646970667358221220e4856c90abbf0cfc540eb736389696549fd92e33703499ed17aececd51785e5a64736f6c63430008130033608060405234801561001057600080fd5b5060405161024c38038061024c8339818101604052810190610032919061011c565b8073ffffffffffffffffffffffffffffffffffffffff1663095ea7b3336000196040518363ffffffff1660e01b815260040161006f929190610171565b6020604051808303816000875af115801561008e573d6000803e3d6000fd5b505050506040513d601f19601f820116820180604052508101906100b291906101d2565b50506101ff565b600080fd5b600073ffffffffffffffffffffffffffffffffffffffff82169050919050565b60006100e9826100be565b9050919050565b6100f9816100de565b811461010457600080fd5b50565b600081519050610116816100f0565b92915050565b600060208284031215610132576101316100b9565b5b600061014084828501610107565b91505092915050565b610152816100de565b82525050565b6000819050919050565b61016b81610158565b82525050565b60006040820190506101866000830185610149565b6101936020830184610162565b9392505050565b60008115159050919050565b6101af8161019a565b81146101ba57600080fd5b50565b6000815190506101cc816101a6565b92915050565b6000602082840312156101e8576101e76100b9565b5b60006101f6848285016101bd565b91505092915050565b603f8061020d6000396000f3fe6080604052600080fdfea264697066735822122097529ea947b292305605f0075107a47bad02178c3e8e05f7d9357630e5a15cbf64736f6c63430008130033",
			"opcodes": "PUSH1 0x80 PUSH1 0x40 MSTORE PUSH1 0x0 PUSH1 0x3 SSTORE PUSH1 0x0 PUSH1 0x4 SSTORE PUSH1 0x0 PUSH1 0x5 SSTORE PUSH2 0x1F4 PUSH1 0x6 SSTORE PUSH1 0x0 PUSH1 0x7 SSTORE PUSH1 0x0 PUSH1 0x8 SSTORE PUSH1 0x0 PUSH1 0x9 SSTORE PUSH1 0x0 PUSH1 0x12 PUSH1 0x0 PUSH2 0x100 EXP DUP2 SLOAD DUP2 PUSH1 0xFF MUL NOT AND SWAP1 DUP4 ISZERO ISZERO MUL OR SWAP1 SSTORE POP PUSH1 0x64 PUSH1 0x12 PUSH1 0x1 PUSH2 0x100 EXP DUP2 SLOAD DUP2 PUSH2 0xFFFF MUL NOT AND SWAP1 DUP4 PUSH2 0xFFFF AND MUL OR SWAP1 SSTORE POP PUSH3 0x15180 PUSH1 0x12 PUSH1 0x3 PUSH2 0x100 EXP DUP2 SLOAD DUP2 PUSH4 0xFFFFFFFF MUL NOT AND SWAP1 DUP4 PUSH4 0xFFFFFFFF AND MUL OR SWAP1 SSTORE POP PUSH2 0xDEAD PUSH1 0x14 PUSH1 0x0 PUSH2 0x100 EXP DUP2 SLOAD DUP2 PUSH20 0xFFFFFFFFFFFFFFFFFFFFFFFFFFFFFFFFFFFFFFFF MUL NOT AND SWAP1 DUP4 PUSH20 0xFFFFFFFFFFFFFFFFFFFFFFFFFFFFFFFFFFFFFFFF AND MUL OR SWAP1 SSTORE POP PUSH1 0x1 PUSH1 0x1C PUSH1 0x14 PUSH2 0x100 EXP DUP2 SLOAD DUP2 PUSH1 0xFF MUL NOT AND SWAP1 DUP4 ISZERO ISZERO MUL OR SWAP1 SSTORE POP PUSH1 0x0 PUSH1 0x1D SSTORE PUSH1 0x0 PUSH1 0x1E PUSH1 0x0 PUSH2 0x100 EXP DUP2 SLOAD DUP2 PUSH1 0xFF MUL NOT AND SWAP1 DUP4 ISZERO ISZERO MUL OR SWAP1 SSTORE POP CALLVALUE DUP1 ISZERO PUSH3 0x110 JUMPI PUSH1 0x0 DUP1 REVERT JUMPDEST POP PUSH1 0x40 MLOAD PUSH3 0x811D CODESIZE SUB DUP1 PUSH3 0x811D DUP4 CODECOPY DUP2 DUP2 ADD PUSH1 0x40 MSTORE DUP2 ADD SWAP1 PUSH3 0x136 SWAP2 SWAP1 PUSH3 0x15CD JUMP JUMPDEST PUSH1 0x0 PUSH3 0x148 PUSH3 0xFC9 PUSH1 0x20 SHL PUSH1 0x20 SHR JUMP JUMPDEST SWAP1 POP DUP1 PUSH1 0x0 DUP1 PUSH2 0x100 EXP DUP2 SLOAD DUP2 PUSH20 0xFFFFFFFFFFFFFFFFFFFFFFFFFFFFFFFFFFFFFFFF MUL NOT AND SWAP1 DUP4 PUSH20 0xFFFFFFFFFFFFFFFFFFFFFFFFFFFFFFFFFFFFFFFF AND MUL OR SWAP1 SSTORE POP DUP1 PUSH20 0xFFFFFFFFFFFFFFFFFFFFFFFFFFFFFFFFFFFFFFFF AND PUSH1 0x0 PUSH20 0xFFFFFFFFFFFFFFFFFFFFFFFFFFFFFFFFFFFFFFFF AND PUSH32 0x8BE0079C531659141344CD1FD0A4F28419497F9722A3DAAFE3B4186F6B6457E0 PUSH1 0x40 MLOAD PUSH1 0x40 MLOAD DUP1 SWAP2 SUB SWAP1 LOG3 POP DUP4 PUSH1 0x0 DUP2 MLOAD DUP2 LT PUSH3 0x1FD JUMPI PUSH3 0x1FC PUSH3 0x16BB JUMP JUMPDEST JUMPDEST PUSH1 0x20 MUL PUSH1 0x20 ADD ADD MLOAD PUSH1 0xE SWAP1 DUP2 PUSH3 0x215 SWAP2 SWAP1 PUSH3 0x192B JUMP JUMPDEST POP DUP4 PUSH1 0x1 DUP2 MLOAD DUP2 LT PUSH3 0x22D JUMPI PUSH3 0x22C PUSH3 0x16BB JUMP JUMPDEST JUMPDEST PUSH1 0x20 MUL PUSH1 0x20 ADD ADD MLOAD PUSH1 0xF SWAP1 DUP2 PUSH3 0x245 SWAP2 SWAP1 PUSH3 0x192B JUMP JUMPDEST POP DUP2 PUSH1 0x0 DUP2 MLOAD DUP2 LT PUSH3 0x25D JUMPI PUSH3 0x25C PUSH3 0x16BB JUMP JUMPDEST JUMPDEST PUSH1 0x20 MUL PUSH1 0x20 ADD ADD MLOAD PUSH1 0x10 DUP2 SWAP1 SSTORE POP DUP2 PUSH1 0x1 DUP2 MLOAD DUP2 LT PUSH3 0x282 JUMPI PUSH3 0x281 PUSH3 0x16BB JUMP JUMPDEST JUMPDEST PUSH1 0x20 MUL PUSH1 0x20 ADD ADD MLOAD PUSH1 0x11 DUP2 SWAP1 SSTORE POP DUP3 PUSH1 0x0 DUP2 MLOAD DUP2 LT PUSH3 0x2A7 JUMPI PUSH3 0x2A6 PUSH3 0x16BB JUMP JUMPDEST JUMPDEST PUSH1 0x20 MUL PUSH1 0x20 ADD ADD MLOAD PUSH1 0x1 PUSH1 0x0 PUSH2 0x100 EXP DUP2 SLOAD DUP2 PUSH20 0xFFFFFFFFFFFFFFFFFFFFFFFFFFFFFFFFFFFFFFFF MUL NOT AND SWAP1 DUP4 PUSH20 0xFFFFFFFFFFFFFFFFFFFFFFFFFFFFFFFFFFFFFFFF AND MUL OR SWAP1 SSTORE POP DUP2 PUSH1 0x2 DUP2 MLOAD DUP2 LT PUSH3 0x306 JUMPI PUSH3 0x305 PUSH3 0x16BB JUMP JUMPDEST JUMPDEST PUSH1 0x20 MUL PUSH1 0x20 ADD ADD MLOAD PUSH1 0x3 DUP2 SWAP1 SSTORE POP DUP2 PUSH1 0x3 DUP2 MLOAD DUP2 LT PUSH3 0x32B JUMPI PUSH3 0x32A PUSH3 0x16BB JUMP JUMPDEST JUMPDEST PUSH1 0x20 MUL PUSH1 0x20 ADD ADD MLOAD PUSH1 0x5 DUP2 SWAP1 SSTORE POP DUP2 PUSH1 0x4 DUP2 MLOAD DUP2 LT PUSH3 0x350 JUMPI PUSH3 0x34F PUSH3 0x16BB JUMP JUMPDEST JUMPDEST PUSH1 0x20 MUL PUSH1 0x20 ADD ADD MLOAD PUSH1 0x4 DUP2 SWAP1 SSTORE POP DUP2 PUSH1 0x5 DUP2 MLOAD DUP2 LT PUSH3 0x375 JUMPI PUSH3 0x374 PUSH3 0x16BB JUMP JUMPDEST JUMPDEST PUSH1 0x20 MUL PUSH1 0x20 ADD ADD MLOAD PUSH1 0x6 DUP2 SWAP1 SSTORE POP DUP2 PUSH1 0x6 DUP2 MLOAD DUP2 LT PUSH3 0x39A JUMPI PUSH3 0x399 PUSH3 0x16BB JUMP JUMPDEST JUMPDEST PUSH1 0x20 MUL PUSH1 0x20 ADD ADD MLOAD PUSH1 0x8 DUP2 SWAP1 SSTORE POP DUP2 PUSH1 0x7 DUP2 MLOAD DUP2 LT PUSH3 0x3BF JUMPI PUSH3 0x3BE PUSH3 0x16BB JUMP JUMPDEST JUMPDEST PUSH1 0x20 MUL PUSH1 0x20 ADD ADD MLOAD PUSH1 0x7 DUP2 SWAP1 SSTORE POP DUP2 PUSH1 0x8 DUP2 MLOAD DUP2 LT PUSH3 0x3E4 JUMPI PUSH3 0x3E3 PUSH3 0x16BB JUMP JUMPDEST JUMPDEST PUSH1 0x20 MUL PUSH1 0x20 ADD ADD MLOAD PUSH1 0x9 DUP2 SWAP1 SSTORE POP DUP2 PUSH1 0x9 DUP2 MLOAD DUP2 LT PUSH3 0x409 JUMPI PUSH3 0x408 PUSH3 0x16BB JUMP JUMPDEST JUMPDEST PUSH1 0x20 MUL PUSH1 0x20 ADD ADD MLOAD PUSH1 0xA DUP2 SWAP1 SSTORE POP DUP2 PUSH1 0xA DUP2 MLOAD DUP2 LT PUSH3 0x42E JUMPI PUSH3 0x42D PUSH3 0x16BB JUMP JUMPDEST JUMPDEST PUSH1 0x20 MUL PUSH1 0x20 ADD ADD MLOAD PUSH1 0xC DUP2 SWAP1 SSTORE POP DUP2 PUSH1 0xB DUP2 MLOAD DUP2 LT PUSH3 0x453 JUMPI PUSH3 0x452 PUSH3 0x16BB JUMP JUMPDEST JUMPDEST PUSH1 0x20 MUL PUSH1 0x20 ADD ADD MLOAD PUSH1 0xB DUP2 SWAP1 SSTORE POP PUSH1 0xA SLOAD PUSH1 0xC SLOAD LT ISZERO PUSH3 0x4AB JUMPI PUSH1 0x40 MLOAD PUSH32 0x8C379A000000000000000000000000000000000000000000000000000000000 DUP2 MSTORE PUSH1 0x4 ADD PUSH3 0x4A2 SWAP1 PUSH3 0x1A99 JUMP JUMPDEST PUSH1 0x40 MLOAD DUP1 SWAP2 SUB SWAP1 REVERT JUMPDEST DUP2 PUSH1 0xC DUP2 MLOAD DUP2 LT PUSH3 0x4C2 JUMPI PUSH3 0x4C1 PUSH3 0x16BB JUMP JUMPDEST JUMPDEST PUSH1 0x20 MUL PUSH1 0x20 ADD ADD MLOAD PUSH1 0x1D DUP2 SWAP1 SSTORE POP PUSH1 0x3 PUSH1 0x1D SLOAD GT ISZERO PUSH3 0x519 JUMPI PUSH1 0x40 MLOAD PUSH32 0x8C379A000000000000000000000000000000000000000000000000000000000 DUP2 MSTORE PUSH1 0x4 ADD PUSH3 0x510 SWAP1 PUSH3 0x1B0B JUMP JUMPDEST PUSH1 0x40 MLOAD DUP1 SWAP2 SUB SWAP1 REVERT JUMPDEST PUSH2 0x9C4 PUSH1 0x3 SLOAD PUSH1 0x4 SLOAD PUSH1 0x5 SLOAD PUSH3 0x531 SWAP2 SWAP1 PUSH3 0x1B5C JUMP JUMPDEST PUSH3 0x53D SWAP2 SWAP1 PUSH3 0x1B5C JUMP JUMPDEST LT PUSH3 0x580 JUMPI PUSH1 0x40 MLOAD PUSH32 0x8C379A000000000000000000000000000000000000000000000000000000000 DUP2 MSTORE PUSH1 0x4 ADD PUSH3 0x577 SWAP1 PUSH3 0x1BE7 JUMP JUMPDEST PUSH1 0x40 MLOAD DUP1 SWAP2 SUB SWAP1 REVERT JUMPDEST PUSH2 0x9C4 PUSH1 0x6 SLOAD PUSH1 0x7 SLOAD PUSH1 0x8 SLOAD PUSH3 0x598 SWAP2 SWAP1 PUSH3 0x1B5C JUMP JUMPDEST PUSH3 0x5A4 SWAP2 SWAP1 PUSH3 0x1B5C JUMP JUMPDEST LT PUSH3 0x5E7 JUMPI PUSH1 0x40 MLOAD PUSH32 0x8C379A000000000000000000000000000000000000000000000000000000000 DUP2 MSTORE PUSH1 0x4 ADD PUSH3 0x5DE SWAP1 PUSH3 0x1BE7 JUMP JUMPDEST PUSH1 0x40 MLOAD DUP1 SWAP2 SUB SWAP1 REVERT JUMPDEST DUP1 PUSH1 0x0 DUP2 MLOAD DUP2 LT PUSH3 0x5FE JUMPI PUSH3 0x5FD PUSH3 0x16BB JUMP JUMPDEST JUMPDEST PUSH1 0x20 MUL PUSH1 0x20 ADD ADD MLOAD PUSH1 0x0 PUSH1 0x14 PUSH2 0x100 EXP DUP2 SLOAD DUP2 PUSH1 0xFF MUL NOT AND SWAP1 DUP4 ISZERO ISZERO MUL OR SWAP1 SSTORE POP DUP1 PUSH1 0x1 DUP2 MLOAD DUP2 LT PUSH3 0x636 JUMPI PUSH3 0x635 PUSH3 0x16BB JUMP JUMPDEST JUMPDEST PUSH1 0x20 MUL PUSH1 0x20 ADD ADD MLOAD PUSH1 0x0 PUSH1 0x15 PUSH2 0x100 EXP DUP2 SLOAD DUP2 PUSH1 0xFF MUL NOT AND SWAP1 DUP4 ISZERO ISZERO MUL OR SWAP1 SSTORE POP DUP1 PUSH1 0x2 DUP2 MLOAD DUP2 LT PUSH3 0x66E JUMPI PUSH3 0x66D PUSH3 0x16BB JUMP JUMPDEST JUMPDEST PUSH1 0x20 MUL PUSH1 0x20 ADD ADD MLOAD PUSH1 0x0 PUSH1 0x16 PUSH2 0x100 EXP DUP2 SLOAD DUP2 PUSH1 0xFF MUL NOT AND SWAP1 DUP4 ISZERO ISZERO MUL OR SWAP1 SSTORE POP DUP1 PUSH1 0x3 DUP2 MLOAD DUP2 LT PUSH3 0x6A6 JUMPI PUSH3 0x6A5 PUSH3 0x16BB JUMP JUMPDEST JUMPDEST PUSH1 0x20 MUL PUSH1 0x20 ADD ADD MLOAD PUSH1 0x0 PUSH1 0x17 PUSH2 0x100 EXP DUP2 SLOAD DUP2 PUSH1 0xFF MUL NOT AND SWAP1 DUP4 ISZERO ISZERO MUL OR SWAP1 SSTORE POP DUP1 PUSH1 0x4 DUP2 MLOAD DUP2 LT PUSH3 0x6DE JUMPI PUSH3 0x6DD PUSH3 0x16BB JUMP JUMPDEST JUMPDEST PUSH1 0x20 MUL PUSH1 0x20 ADD ADD MLOAD PUSH1 0x0 PUSH1 0x18 PUSH2 0x100 EXP DUP2 SLOAD DUP2 PUSH1 0xFF MUL NOT AND SWAP1 DUP4 ISZERO ISZERO MUL OR SWAP1 SSTORE POP DUP1 PUSH1 0x5 DUP2 MLOAD DUP2 LT PUSH3 0x716 JUMPI PUSH3 0x715 PUSH3 0x16BB JUMP JUMPDEST JUMPDEST PUSH1 0x20 MUL PUSH1 0x20 ADD ADD MLOAD PUSH1 0x0 PUSH1 0x19 PUSH2 0x100 EXP DUP2 SLOAD DUP2 PUSH1 0xFF MUL NOT AND SWAP1 DUP4 ISZERO ISZERO MUL OR SWAP1 SSTORE POP DUP1 PUSH1 0x6 DUP2 MLOAD DUP2 LT PUSH3 0x74E JUMPI PUSH3 0x74D PUSH3 0x16BB JUMP JUMPDEST JUMPDEST PUSH1 0x20 MUL PUSH1 0x20 ADD ADD MLOAD PUSH1 0x0 PUSH1 0x1A PUSH2 0x100 EXP DUP2 SLOAD DUP2 PUSH1 0xFF MUL NOT AND SWAP1 DUP4 ISZERO ISZERO MUL OR SWAP1 SSTORE POP DUP1 PUSH1 0x7 DUP2 MLOAD DUP2 LT PUSH3 0x786 JUMPI PUSH3 0x785 PUSH3 0x16BB JUMP JUMPDEST JUMPDEST PUSH1 0x20 MUL PUSH1 0x20 ADD ADD MLOAD PUSH1 0x1E PUSH1 0x0 PUSH2 0x100 EXP DUP2 SLOAD DUP2 PUSH1 0xFF MUL NOT AND SWAP1 DUP4 ISZERO ISZERO MUL OR SWAP1 SSTORE POP PUSH1 0x1E PUSH1 0x0 SWAP1 SLOAD SWAP1 PUSH2 0x100 EXP SWAP1 DIV PUSH1 0xFF AND ISZERO PUSH3 0x7E5 JUMPI PUSH1 0x8 SLOAD PUSH1 0x7 SLOAD PUSH1 0x6 SLOAD PUSH3 0x7D2 SWAP2 SWAP1 PUSH3 0x1B5C JUMP JUMPDEST PUSH3 0x7DE SWAP2 SWAP1 PUSH3 0x1B5C JUMP JUMPDEST PUSH1 0x1F DUP2 SWAP1 SSTORE POP JUMPDEST PUSH1 0x0 DUP4 PUSH1 0x1 DUP2 MLOAD DUP2 LT PUSH3 0x7FE JUMPI PUSH3 0x7FD PUSH3 0x16BB JUMP JUMPDEST JUMPDEST PUSH1 0x20 MUL PUSH1 0x20 ADD ADD MLOAD SWAP1 POP PUSH1 0x1 PUSH1 0x0 SWAP1 SLOAD SWAP1 PUSH2 0x100 EXP SWAP1 DIV PUSH20 0xFFFFFFFFFFFFFFFFFFFFFFFFFFFFFFFFFFFFFFFF AND PUSH20 0xFFFFFFFFFFFFFFFFFFFFFFFFFFFFFFFFFFFFFFFF AND PUSH4 0x95EA7B3 DUP3 PUSH1 0x0 NOT PUSH1 0x40 MLOAD DUP4 PUSH4 0xFFFFFFFF AND PUSH1 0xE0 SHL DUP2 MSTORE PUSH1 0x4 ADD PUSH3 0x869 SWAP3 SWAP2 SWAP1 PUSH3 0x1C2B JUMP JUMPDEST PUSH1 0x20 PUSH1 0x40 MLOAD DUP1 DUP4 SUB DUP2 PUSH1 0x0 DUP8 GAS CALL ISZERO DUP1 ISZERO PUSH3 0x889 JUMPI RETURNDATASIZE PUSH1 0x0 DUP1 RETURNDATACOPY RETURNDATASIZE PUSH1 0x0 REVERT JUMPDEST POP POP POP POP PUSH1 0x40 MLOAD RETURNDATASIZE PUSH1 0x1F NOT PUSH1 0x1F DUP3 ADD AND DUP3 ADD DUP1 PUSH1 0x40 MSTORE POP DUP2 ADD SWAP1 PUSH3 0x8AF SWAP2 SWAP1 PUSH3 0x1C58 JUMP JUMPDEST POP DUP1 PUSH1 0x18 PUSH1 0x0 PUSH2 0x100 EXP DUP2 SLOAD DUP2 PUSH20 0xFFFFFFFFFFFFFFFFFFFFFFFFFFFFFFFFFFFFFFFF MUL NOT AND SWAP1 DUP4 PUSH20 0xFFFFFFFFFFFFFFFFFFFFFFFFFFFFFFFFFFFFFFFF AND MUL OR SWAP1 SSTORE POP PUSH1 0x0 NOT PUSH1 0x16 PUSH1 0x0 ADDRESS PUSH20 0xFFFFFFFFFFFFFFFFFFFFFFFFFFFFFFFFFFFFFFFF AND PUSH20 0xFFFFFFFFFFFFFFFFFFFFFFFFFFFFFFFFFFFFFFFF AND DUP2 MSTORE PUSH1 0x20 ADD SWAP1 DUP2 MSTORE PUSH1 0x20 ADD PUSH1 0x0 KECCAK256 PUSH1 0x0 DUP4 PUSH20 0xFFFFFFFFFFFFFFFFFFFFFFFFFFFFFFFFFFFFFFFF AND PUSH20 0xFFFFFFFFFFFFFFFFFFFFFFFFFFFFFFFFFFFFFFFF AND DUP2 MSTORE PUSH1 0x20 ADD SWAP1 DUP2 MSTORE PUSH1 0x20 ADD PUSH1 0x0 KECCAK256 DUP2 SWAP1 SSTORE POP PUSH1 0x0 DUP2 PUSH20 0xFFFFFFFFFFFFFFFFFFFFFFFFFFFFFFFFFFFFFFFF AND PUSH4 0xC45A0155 PUSH1 0x40 MLOAD DUP2 PUSH4 0xFFFFFFFF AND PUSH1 0xE0 SHL DUP2 MSTORE PUSH1 0x4 ADD PUSH1 0x20 PUSH1 0x40 MLOAD DUP1 DUP4 SUB DUP2 DUP7 GAS STATICCALL ISZERO DUP1 ISZERO PUSH3 0x9C2 JUMPI RETURNDATASIZE PUSH1 0x0 DUP1 RETURNDATACOPY RETURNDATASIZE PUSH1 0x0 REVERT JUMPDEST POP POP POP POP PUSH1 0x40 MLOAD RETURNDATASIZE PUSH1 0x1F NOT PUSH1 0x1F DUP3 ADD AND DUP3 ADD DUP1 PUSH1 0x40 MSTORE POP DUP2 ADD SWAP1 PUSH3 0x9E8 SWAP2 SWAP1 PUSH3 0x1C8A JUMP JUMPDEST SWAP1 POP PUSH1 0x0 DUP2 PUSH20 0xFFFFFFFFFFFFFFFFFFFFFFFFFFFFFFFFFFFFFFFF AND PUSH4 0xC9C65396 ADDRESS PUSH1 0x1 PUSH1 0x0 SWAP1 SLOAD SWAP1 PUSH2 0x100 EXP SWAP1 DIV PUSH20 0xFFFFFFFFFFFFFFFFFFFFFFFFFFFFFFFFFFFFFFFF AND PUSH1 0x40 MLOAD DUP4 PUSH4 0xFFFFFFFF AND PUSH1 0xE0 SHL DUP2 MSTORE PUSH1 0x4 ADD PUSH3 0xA4B SWAP3 SWAP2 SWAP1 PUSH3 0x1CBC JUMP JUMPDEST PUSH1 0x20 PUSH1 0x40 MLOAD DUP1 DUP4 SUB DUP2 PUSH1 0x0 DUP8 GAS CALL ISZERO DUP1 ISZERO PUSH3 0xA6B JUMPI RETURNDATASIZE PUSH1 0x0 DUP1 RETURNDATACOPY RETURNDATASIZE PUSH1 0x0 REVERT JUMPDEST POP POP POP POP PUSH1 0x40 MLOAD RETURNDATASIZE PUSH1 0x1F NOT PUSH1 0x1F DUP3 ADD AND DUP3 ADD DUP1 PUSH1 0x40 MSTORE POP DUP2 ADD SWAP1 PUSH3 0xA91 SWAP2 SWAP1 PUSH3 0x1C8A JUMP JUMPDEST SWAP1 POP DUP1 PUSH1 0x1B PUSH1 0x0 PUSH2 0x100 EXP DUP2 SLOAD DUP2 PUSH20 0xFFFFFFFFFFFFFFFFFFFFFFFFFFFFFFFFFFFFFFFF MUL NOT AND SWAP1 DUP4 PUSH20 0xFFFFFFFFFFFFFFFFFFFFFFFFFFFFFFFFFFFFFFFF AND MUL OR SWAP1 SSTORE POP PUSH1 0x1 PUSH1 0x19 PUSH1 0x0 DUP4 PUSH20 0xFFFFFFFFFFFFFFFFFFFFFFFFFFFFFFFFFFFFFFFF AND PUSH20 0xFFFFFFFFFFFFFFFFFFFFFFFFFFFFFFFFFFFFFFFF AND DUP2 MSTORE PUSH1 0x20 ADD SWAP1 DUP2 MSTORE PUSH1 0x20 ADD PUSH1 0x0 KECCAK256 PUSH1 0x0 PUSH2 0x100 EXP DUP2 SLOAD DUP2 PUSH1 0xFF MUL NOT AND SWAP1 DUP4 ISZERO ISZERO MUL OR SWAP1 SSTORE POP PUSH1 0x1 PUSH1 0x1A PUSH1 0x0 DUP6 PUSH20 0xFFFFFFFFFFFFFFFFFFFFFFFFFFFFFFFFFFFFFFFF AND PUSH20 0xFFFFFFFFFFFFFFFFFFFFFFFFFFFFFFFFFFFFFFFF AND DUP2 MSTORE PUSH1 0x20 ADD SWAP1 DUP2 MSTORE PUSH1 0x20 ADD PUSH1 0x0 KECCAK256 PUSH1 0x0 PUSH2 0x100 EXP DUP2 SLOAD DUP2 PUSH1 0xFF MUL NOT AND SWAP1 DUP4 ISZERO ISZERO MUL OR SWAP1 SSTORE POP PUSH1 0x0 PUSH1 0x14 SWAP1 SLOAD SWAP1 PUSH2 0x100 EXP SWAP1 DIV PUSH1 0xFF AND PUSH3 0xC35 JUMPI PUSH1 0x1 PUSH1 0x0 SWAP1 SLOAD SWAP1 PUSH2 0x100 EXP SWAP1 DIV PUSH20 0xFFFFFFFFFFFFFFFFFFFFFFFFFFFFFFFFFFFFFFFF AND PUSH1 0x40 MLOAD PUSH3 0xBCA SWAP1 PUSH3 0xFD1 JUMP JUMPDEST PUSH3 0xBD6 SWAP2 SWAP1 PUSH3 0x1CE9 JUMP JUMPDEST PUSH1 0x40 MLOAD DUP1 SWAP2 SUB SWAP1 PUSH1 0x0 CREATE DUP1 ISZERO DUP1 ISZERO PUSH3 0xBF3 JUMPI RETURNDATASIZE PUSH1 0x0 DUP1 RETURNDATACOPY RETURNDATASIZE PUSH1 0x0 REVERT JUMPDEST POP PUSH1 0x1C PUSH1 0x0 PUSH2 0x100 EXP DUP2 SLOAD DUP2 PUSH20 0xFFFFFFFFFFFFFFFFFFFFFFFFFFFFFFFFFFFFFFFF MUL NOT AND SWAP1 DUP4 PUSH20 0xFFFFFFFFFFFFFFFFFFFFFFFFFFFFFFFFFFFFFFFF AND MUL OR SWAP1 SSTORE POP JUMPDEST PUSH1 0x0 DUP7 PUSH1 0x2 DUP2 MLOAD DUP2 LT PUSH3 0xC4E JUMPI PUSH3 0xC4D PUSH3 0x16BB JUMP JUMPDEST JUMPDEST PUSH1 0x20 MUL PUSH1 0x20 ADD ADD MLOAD SWAP1 POP PUSH1 0x11 SLOAD PUSH1 0x15 PUSH1 0x0 DUP4 PUSH20 0xFFFFFFFFFFFFFFFFFFFFFFFFFFFFFFFFFFFFFFFF AND PUSH20 0xFFFFFFFFFFFFFFFFFFFFFFFFFFFFFFFFFFFFFFFF AND DUP2 MSTORE PUSH1 0x20 ADD SWAP1 DUP2 MSTORE PUSH1 0x20 ADD PUSH1 0x0 KECCAK256 DUP2 SWAP1 SSTORE POP DUP1 PUSH20 0xFFFFFFFFFFFFFFFFFFFFFFFFFFFFFFFFFFFFFFFF AND PUSH1 0x0 PUSH20 0xFFFFFFFFFFFFFFFFFFFFFFFFFFFFFFFFFFFFFFFF AND PUSH32 0xDDF252AD1BE2C89B69C2B068FC378DAA952BA7F163C4A11628F55A4DF523B3EF PUSH1 0x11 SLOAD PUSH1 0x40 MLOAD PUSH3 0xD00 SWAP2 SWAP1 PUSH3 0x1D06 JUMP JUMPDEST PUSH1 0x40 MLOAD DUP1 SWAP2 SUB SWAP1 LOG3 DUP7 PUSH1 0x3 DUP2 MLOAD DUP2 LT PUSH3 0xD1F JUMPI PUSH3 0xD1E PUSH3 0x16BB JUMP JUMPDEST JUMPDEST PUSH1 0x20 MUL PUSH1 0x20 ADD ADD MLOAD PUSH1 0x2 PUSH1 0x0 PUSH2 0x100 EXP DUP2 SLOAD DUP2 PUSH20 0xFFFFFFFFFFFFFFFFFFFFFFFFFFFFFFFFFFFFFFFF MUL NOT AND SWAP1 DUP4 PUSH20 0xFFFFFFFFFFFFFFFFFFFFFFFFFFFFFFFFFFFFFFFF AND MUL OR SWAP1 SSTORE POP PUSH1 0x1 PUSH1 0x1A PUSH1 0x0 PUSH1 0x2 PUSH1 0x0 SWAP1 SLOAD SWAP1 PUSH2 0x100 EXP SWAP1 DIV PUSH20 0xFFFFFFFFFFFFFFFFFFFFFFFFFFFFFFFFFFFFFFFF AND PUSH20 0xFFFFFFFFFFFFFFFFFFFFFFFFFFFFFFFFFFFFFFFF AND PUSH20 0xFFFFFFFFFFFFFFFFFFFFFFFFFFFFFFFFFFFFFFFF AND DUP2 MSTORE PUSH1 0x20 ADD SWAP1 DUP2 MSTORE PUSH1 0x20 ADD PUSH1 0x0 KECCAK256 PUSH1 0x0 PUSH2 0x100 EXP DUP2 SLOAD DUP2 PUSH1 0xFF MUL NOT AND SWAP1 DUP4 ISZERO ISZERO MUL OR SWAP1 SSTORE POP PUSH1 0x1 PUSH1 0x1A PUSH1 0x0 DUP4 PUSH20 0xFFFFFFFFFFFFFFFFFFFFFFFFFFFFFFFFFFFFFFFF AND PUSH20 0xFFFFFFFFFFFFFFFFFFFFFFFFFFFFFFFFFFFFFFFF AND DUP2 MSTORE PUSH1 0x20 ADD SWAP1 DUP2 MSTORE PUSH1 0x20 ADD PUSH1 0x0 KECCAK256 PUSH1 0x0 PUSH2 0x100 EXP DUP2 SLOAD DUP2 PUSH1 0xFF MUL NOT AND SWAP1 DUP4 ISZERO ISZERO MUL OR SWAP1 SSTORE POP PUSH1 0x1 PUSH1 0x1A PUSH1 0x0 ADDRESS PUSH20 0xFFFFFFFFFFFFFFFFFFFFFFFFFFFFFFFFFFFFFFFF AND PUSH20 0xFFFFFFFFFFFFFFFFFFFFFFFFFFFFFFFFFFFFFFFF AND DUP2 MSTORE PUSH1 0x20 ADD SWAP1 DUP2 MSTORE PUSH1 0x20 ADD PUSH1 0x0 KECCAK256 PUSH1 0x0 PUSH2 0x100 EXP DUP2 SLOAD DUP2 PUSH1 0xFF MUL NOT AND SWAP1 DUP4 ISZERO ISZERO MUL OR SWAP1 SSTORE POP PUSH1 0x1 PUSH1 0x1A PUSH1 0x0 CALLER PUSH20 0xFFFFFFFFFFFFFFFFFFFFFFFFFFFFFFFFFFFFFFFF AND PUSH20 0xFFFFFFFFFFFFFFFFFFFFFFFFFFFFFFFFFFFFFFFF AND DUP2 MSTORE PUSH1 0x20 ADD SWAP1 DUP2 MSTORE PUSH1 0x20 ADD PUSH1 0x0 KECCAK256 PUSH1 0x0 PUSH2 0x100 EXP DUP2 SLOAD DUP2 PUSH1 0xFF MUL NOT AND SWAP1 DUP4 ISZERO ISZERO MUL OR SWAP1 SSTORE POP PUSH1 0x1 PUSH1 0x1A PUSH1 0x0 ORIGIN PUSH20 0xFFFFFFFFFFFFFFFFFFFFFFFFFFFFFFFFFFFFFFFF AND PUSH20 0xFFFFFFFFFFFFFFFFFFFFFFFFFFFFFFFFFFFFFFFF AND DUP2 MSTORE PUSH1 0x20 ADD SWAP1 DUP2 MSTORE PUSH1 0x20 ADD PUSH1 0x0 KECCAK256 PUSH1 0x0 PUSH2 0x100 EXP DUP2 SLOAD DUP2 PUSH1 0xFF MUL NOT AND SWAP1 DUP4 ISZERO ISZERO MUL OR SWAP1 SSTORE POP PUSH1 0x1 PUSH1 0x1A PUSH1 0x0 PUSH1 0x14 PUSH1 0x0 SWAP1 SLOAD SWAP1 PUSH2 0x100 EXP SWAP1 DIV PUSH20 0xFFFFFFFFFFFFFFFFFFFFFFFFFFFFFFFFFFFFFFFF AND PUSH20 0xFFFFFFFFFFFFFFFFFFFFFFFFFFFFFFFFFFFFFFFF AND PUSH20 0xFFFFFFFFFFFFFFFFFFFFFFFFFFFFFFFFFFFFFFFF AND DUP2 MSTORE PUSH1 0x20 ADD SWAP1 DUP2 MSTORE PUSH1 0x20 ADD PUSH1 0x0 KECCAK256 PUSH1 0x0 PUSH2 0x100 EXP DUP2 SLOAD DUP2 PUSH1 0xFF MUL NOT AND SWAP1 DUP4 ISZERO ISZERO MUL OR SWAP1 SSTORE POP POP POP POP POP POP POP POP POP PUSH3 0x1D23 JUMP JUMPDEST PUSH1 0x0 CALLER SWAP1 POP SWAP1 JUMP JUMPDEST PUSH2 0x24C DUP1 PUSH3 0x7ED1 DUP4 CODECOPY ADD SWAP1 JUMP JUMPDEST PUSH1 0x0 PUSH1 0x40 MLOAD SWAP1 POP SWAP1 JUMP JUMPDEST PUSH1 0x0 DUP1 REVERT JUMPDEST PUSH1 0x0 DUP1 REVERT JUMPDEST PUSH1 0x0 DUP1 REVERT JUMPDEST PUSH1 0x0 PUSH1 0x1F NOT PUSH1 0x1F DUP4 ADD AND SWAP1 POP SWAP2 SWAP1 POP JUMP JUMPDEST PUSH32 0x4E487B7100000000000000000000000000000000000000000000000000000000 PUSH1 0x0 MSTORE PUSH1 0x41 PUSH1 0x4 MSTORE PUSH1 0x24 PUSH1 0x0 REVERT JUMPDEST PUSH3 0x1043 DUP3 PUSH3 0xFF8 JUMP JUMPDEST DUP2 ADD DUP2 DUP2 LT PUSH8 0xFFFFFFFFFFFFFFFF DUP3 GT OR ISZERO PUSH3 0x1065 JUMPI PUSH3 0x1064 PUSH3 0x1009 JUMP JUMPDEST JUMPDEST DUP1 PUSH1 0x40 MSTORE POP POP POP JUMP JUMPDEST PUSH1 0x0 PUSH3 0x107A PUSH3 0xFDF JUMP JUMPDEST SWAP1 POP PUSH3 0x1088 DUP3 DUP3 PUSH3 0x1038 JUMP JUMPDEST SWAP2 SWAP1 POP JUMP JUMPDEST PUSH1 0x0 PUSH8 0xFFFFFFFFFFFFFFFF DUP3 GT ISZERO PUSH3 0x10AB JUMPI PUSH3 0x10AA PUSH3 0x1009 JUMP JUMPDEST JUMPDEST PUSH1 0x20 DUP3 MUL SWAP1 POP PUSH1 0x20 DUP2 ADD SWAP1 POP SWAP2 SWAP1 POP JUMP JUMPDEST PUSH1 0x0 DUP1 REVERT JUMPDEST PUSH1 0x0 DUP1 REVERT JUMPDEST PUSH1 0x0 PUSH8 0xFFFFFFFFFFFFFFFF DUP3 GT ISZERO PUSH3 0x10E4 JUMPI PUSH3 0x10E3 PUSH3 0x1009 JUMP JUMPDEST JUMPDEST PUSH3 0x10EF DUP3 PUSH3 0xFF8 JUMP JUMPDEST SWAP1 POP PUSH1 0x20 DUP2 ADD SWAP1 POP SWAP2 SWAP1 POP JUMP JUMPDEST PUSH1 0x0 JUMPDEST DUP4 DUP2 LT ISZERO PUSH3 0x111C JUMPI DUP1 DUP3 ADD MLOAD DUP2 DUP5 ADD MSTORE PUSH1 0x20 DUP2 ADD SWAP1 POP PUSH3 0x10FF JUMP JUMPDEST PUSH1 0x0 DUP5 DUP5 ADD MSTORE POP POP POP POP JUMP JUMPDEST PUSH1 0x0 PUSH3 0x113F PUSH3 0x1139 DUP5 PUSH3 0x10C6 JUMP JUMPDEST PUSH3 0x106E JUMP JUMPDEST SWAP1 POP DUP3 DUP2 MSTORE PUSH1 0x20 DUP2 ADD DUP5 DUP5 DUP5 ADD GT ISZERO PUSH3 0x115E JUMPI PUSH3 0x115D PUSH3 0x10C1 JUMP JUMPDEST JUMPDEST PUSH3 0x116B DUP5 DUP3 DUP6 PUSH3 0x10FC JUMP JUMPDEST POP SWAP4 SWAP3 POP POP POP JUMP JUMPDEST PUSH1 0x0 DUP3 PUSH1 0x1F DUP4 ADD SLT PUSH3 0x118B JUMPI PUSH3 0x118A PUSH3 0xFF3 JUMP JUMPDEST JUMPDEST DUP2 MLOAD PUSH3 0x119D DUP5 DUP3 PUSH1 0x20 DUP7 ADD PUSH3 0x1128 JUMP JUMPDEST SWAP2 POP POP SWAP3 SWAP2 POP POP JUMP JUMPDEST PUSH1 0x0 PUSH3 0x11BD PUSH3 0x11B7 DUP5 PUSH3 0x108D JUMP JUMPDEST PUSH3 0x106E JUMP JUMPDEST SWAP1 POP DUP1 DUP4 DUP3 MSTORE PUSH1 0x20 DUP3 ADD SWAP1 POP PUSH1 0x20 DUP5 MUL DUP4 ADD DUP6 DUP2 GT ISZERO PUSH3 0x11E3 JUMPI PUSH3 0x11E2 PUSH3 0x10BC JUMP JUMPDEST JUMPDEST DUP4 JUMPDEST DUP2 DUP2 LT ISZERO PUSH3 0x1231 JUMPI DUP1 MLOAD PUSH8 0xFFFFFFFFFFFFFFFF DUP2 GT ISZERO PUSH3 0x120C JUMPI PUSH3 0x120B PUSH3 0xFF3 JUMP JUMPDEST JUMPDEST DUP1 DUP7 ADD PUSH3 0x121B DUP10 DUP3 PUSH3 0x1173 JUMP JUMPDEST DUP6 MSTORE PUSH1 0x20 DUP6 ADD SWAP5 POP POP POP PUSH1 0x20 DUP2 ADD SWAP1 POP PUSH3 0x11E5 JUMP JUMPDEST POP POP POP SWAP4 SWAP3 POP POP POP JUMP JUMPDEST PUSH1 0x0 DUP3 PUSH1 0x1F DUP4 ADD SLT PUSH3 0x1253 JUMPI PUSH3 0x1252 PUSH3 0xFF3 JUMP JUMPDEST JUMPDEST DUP2 MLOAD PUSH3 0x1265 DUP5 DUP3 PUSH1 0x20 DUP7 ADD PUSH3 0x11A6 JUMP JUMPDEST SWAP2 POP POP SWAP3 SWAP2 POP POP JUMP JUMPDEST PUSH1 0x0 PUSH8 0xFFFFFFFFFFFFFFFF DUP3 GT ISZERO PUSH3 0x128C JUMPI PUSH3 0x128B PUSH3 0x1009 JUMP JUMPDEST JUMPDEST PUSH1 0x20 DUP3 MUL SWAP1 POP PUSH1 0x20 DUP2 ADD SWAP1 POP SWAP2 SWAP1 POP JUMP JUMPDEST PUSH1 0x0 PUSH20 0xFFFFFFFFFFFFFFFFFFFFFFFFFFFFFFFFFFFFFFFF DUP3 AND SWAP1 POP SWAP2 SWAP1 POP JUMP JUMPDEST PUSH1 0x0 PUSH3 0x12CA DUP3 PUSH3 0x129D JUMP JUMPDEST SWAP1 POP SWAP2 SWAP1 POP JUMP JUMPDEST PUSH3 0x12DC DUP2 PUSH3 0x12BD JUMP JUMPDEST DUP2 EQ PUSH3 0x12E8 JUMPI PUSH1 0x0 DUP1 REVERT JUMPDEST POP JUMP JUMPDEST PUSH1 0x0 DUP2 MLOAD SWAP1 POP PUSH3 0x12FC DUP2 PUSH3 0x12D1 JUMP JUMPDEST SWAP3 SWAP2 POP POP JUMP JUMPDEST PUSH1 0x0 PUSH3 0x1319 PUSH3 0x1313 DUP5 PUSH3 0x126E JUMP JUMPDEST PUSH3 0x106E JUMP JUMPDEST SWAP1 POP DUP1 DUP4 DUP3 MSTORE PUSH1 0x20 DUP3 ADD SWAP1 POP PUSH1 0x20 DUP5 MUL DUP4 ADD DUP6 DUP2 GT ISZERO PUSH3 0x133F JUMPI PUSH3 0x133E PUSH3 0x10BC JUMP JUMPDEST JUMPDEST DUP4 JUMPDEST DUP2 DUP2 LT ISZERO PUSH3 0x136C JUMPI DUP1 PUSH3 0x1357 DUP9 DUP3 PUSH3 0x12EB JUMP JUMPDEST DUP5 MSTORE PUSH1 0x20 DUP5 ADD SWAP4 POP POP PUSH1 0x20 DUP2 ADD SWAP1 POP PUSH3 0x1341 JUMP JUMPDEST POP POP POP SWAP4 SWAP3 POP POP POP JUMP JUMPDEST PUSH1 0x0 DUP3 PUSH1 0x1F DUP4 ADD SLT PUSH3 0x138E JUMPI PUSH3 0x138D PUSH3 0xFF3 JUMP JUMPDEST JUMPDEST DUP2 MLOAD PUSH3 0x13A0 DUP5 DUP3 PUSH1 0x20 DUP7 ADD PUSH3 0x1302 JUMP JUMPDEST SWAP2 POP POP SWAP3 SWAP2 POP POP JUMP JUMPDEST PUSH1 0x0 PUSH8 0xFFFFFFFFFFFFFFFF DUP3 GT ISZERO PUSH3 0x13C7 JUMPI PUSH3 0x13C6 PUSH3 0x1009 JUMP JUMPDEST JUMPDEST PUSH1 0x20 DUP3 MUL SWAP1 POP PUSH1 0x20 DUP2 ADD SWAP1 POP SWAP2 SWAP1 POP JUMP JUMPDEST PUSH1 0x0 DUP2 SWAP1 POP SWAP2 SWAP1 POP JUMP JUMPDEST PUSH3 0x13ED DUP2 PUSH3 0x13D8 JUMP JUMPDEST DUP2 EQ PUSH3 0x13F9 JUMPI PUSH1 0x0 DUP1 REVERT JUMPDEST POP JUMP JUMPDEST PUSH1 0x0 DUP2 MLOAD SWAP1 POP PUSH3 0x140D DUP2 PUSH3 0x13E2 JUMP JUMPDEST SWAP3 SWAP2 POP POP JUMP JUMPDEST PUSH1 0x0 PUSH3 0x142A PUSH3 0x1424 DUP5 PUSH3 0x13A9 JUMP JUMPDEST PUSH3 0x106E JUMP JUMPDEST SWAP1 POP DUP1 DUP4 DUP3 MSTORE PUSH1 0x20 DUP3 ADD SWAP1 POP PUSH1 0x20 DUP5 MUL DUP4 ADD DUP6 DUP2 GT ISZERO PUSH3 0x1450 JUMPI PUSH3 0x144F PUSH3 0x10BC JUMP JUMPDEST JUMPDEST DUP4 JUMPDEST DUP2 DUP2 LT ISZERO PUSH3 0x147D JUMPI DUP1 PUSH3 0x1468 DUP9 DUP3 PUSH3 0x13FC JUMP JUMPDEST DUP5 MSTORE PUSH1 0x20 DUP5 ADD SWAP4 POP POP PUSH1 0x20 DUP2 ADD SWAP1 POP PUSH3 0x1452 JUMP JUMPDEST POP POP POP SWAP4 SWAP3 POP POP POP JUMP JUMPDEST PUSH1 0x0 DUP3 PUSH1 0x1F DUP4 ADD SLT PUSH3 0x149F JUMPI PUSH3 0x149E PUSH3 0xFF3 JUMP JUMPDEST JUMPDEST DUP2 MLOAD PUSH3 0x14B1 DUP5 DUP3 PUSH1 0x20 DUP7 ADD PUSH3 0x1413 JUMP JUMPDEST SWAP2 POP POP SWAP3 SWAP2 POP POP JUMP JUMPDEST PUSH1 0x0 PUSH8 0xFFFFFFFFFFFFFFFF DUP3 GT ISZERO PUSH3 0x14D8 JUMPI PUSH3 0x14D7 PUSH3 0x1009 JUMP JUMPDEST JUMPDEST PUSH1 0x20 DUP3 MUL SWAP1 POP PUSH1 0x20 DUP2 ADD SWAP1 POP SWAP2 SWAP1 POP JUMP JUMPDEST PUSH1 0x0 DUP2 ISZERO ISZERO SWAP1 POP SWAP2 SWAP1 POP JUMP JUMPDEST PUSH3 0x1500 DUP2 PUSH3 0x14E9 JUMP JUMPDEST DUP2 EQ PUSH3 0x150C JUMPI PUSH1 0x0 DUP1 REVERT JUMPDEST POP JUMP JUMPDEST PUSH1 0x0 DUP2 MLOAD SWAP1 POP PUSH3 0x1520 DUP2 PUSH3 0x14F5 JUMP JUMPDEST SWAP3 SWAP2 POP POP JUMP JUMPDEST PUSH1 0x0 PUSH3 0x153D PUSH3 0x1537 DUP5 PUSH3 0x14BA JUMP JUMPDEST PUSH3 0x106E JUMP JUMPDEST SWAP1 POP DUP1 DUP4 DUP3 MSTORE PUSH1 0x20 DUP3 ADD SWAP1 POP PUSH1 0x20 DUP5 MUL DUP4 ADD DUP6 DUP2 GT ISZERO PUSH3 0x1563 JUMPI PUSH3 0x1562 PUSH3 0x10BC JUMP JUMPDEST JUMPDEST DUP4 JUMPDEST DUP2 DUP2 LT ISZERO PUSH3 0x1590 JUMPI DUP1 PUSH3 0x157B DUP9 DUP3 PUSH3 0x150F JUMP JUMPDEST DUP5 MSTORE PUSH1 0x20 DUP5 ADD SWAP4 POP POP PUSH1 0x20 DUP2 ADD SWAP1 POP PUSH3 0x1565 JUMP JUMPDEST POP POP POP SWAP4 SWAP3 POP POP POP JUMP JUMPDEST PUSH1 0x0 DUP3 PUSH1 0x1F DUP4 ADD SLT PUSH3 0x15B2 JUMPI PUSH3 0x15B1 PUSH3 0xFF3 JUMP JUMPDEST JUMPDEST DUP2 MLOAD PUSH3 0x15C4 DUP5 DUP3 PUSH1 0x20 DUP7 ADD PUSH3 0x1526 JUMP JUMPDEST SWAP2 POP POP SWAP3 SWAP2 POP POP JUMP JUMPDEST PUSH1 0x0 DUP1 PUSH1 0x0 DUP1 PUSH1 0x80 DUP6 DUP8 SUB SLT ISZERO PUSH3 0x15EA JUMPI PUSH3 0x15E9 PUSH3 0xFE9 JUMP JUMPDEST JUMPDEST PUSH1 0x0 DUP6 ADD MLOAD PUSH8 0xFFFFFFFFFFFFFFFF DUP2 GT ISZERO PUSH3 0x160B JUMPI PUSH3 0x160A PUSH3 0xFEE JUMP JUMPDEST JUMPDEST PUSH3 0x1619 DUP8 DUP3 DUP9 ADD PUSH3 0x123B JUMP JUMPDEST SWAP5 POP POP PUSH1 0x20 DUP6 ADD MLOAD PUSH8 0xFFFFFFFFFFFFFFFF DUP2 GT ISZERO PUSH3 0x163D JUMPI PUSH3 0x163C PUSH3 0xFEE JUMP JUMPDEST JUMPDEST PUSH3 0x164B DUP8 DUP3 DUP9 ADD PUSH3 0x1376 JUMP JUMPDEST SWAP4 POP POP PUSH1 0x40 DUP6 ADD MLOAD PUSH8 0xFFFFFFFFFFFFFFFF DUP2 GT ISZERO PUSH3 0x166F JUMPI PUSH3 0x166E PUSH3 0xFEE JUMP JUMPDEST JUMPDEST PUSH3 0x167D DUP8 DUP3 DUP9 ADD PUSH3 0x1487 JUMP JUMPDEST SWAP3 POP POP PUSH1 0x60 DUP6 ADD MLOAD PUSH8 0xFFFFFFFFFFFFFFFF DUP2 GT ISZERO PUSH3 0x16A1 JUMPI PUSH3 0x16A0 PUSH3 0xFEE JUMP JUMPDEST JUMPDEST PUSH3 0x16AF DUP8 DUP3 DUP9 ADD PUSH3 0x159A JUMP JUMPDEST SWAP2 POP POP SWAP3 SWAP6 SWAP2 SWAP5 POP SWAP3 POP JUMP JUMPDEST PUSH32 0x4E487B7100000000000000000000000000000000000000000000000000000000 PUSH1 0x0 MSTORE PUSH1 0x32 PUSH1 0x4 MSTORE PUSH1 0x24 PUSH1 0x0 REVERT JUMPDEST PUSH1 0x0 DUP2 MLOAD SWAP1 POP SWAP2 SWAP1 POP JUMP JUMPDEST PUSH32 0x4E487B7100000000000000000000000000000000000000000000000000000000 PUSH1 0x0 MSTORE PUSH1 0x22 PUSH1 0x4 MSTORE PUSH1 0x24 PUSH1 0x0 REVERT JUMPDEST PUSH1 0x0 PUSH1 0x2 DUP3 DIV SWAP1 POP PUSH1 0x1 DUP3 AND DUP1 PUSH3 0x173D JUMPI PUSH1 0x7F DUP3 AND SWAP2 POP JUMPDEST PUSH1 0x20 DUP3 LT DUP2 SUB PUSH3 0x1753 JUMPI PUSH3 0x1752 PUSH3 0x16F5 JUMP JUMPDEST JUMPDEST POP SWAP2 SWAP1 POP JUMP JUMPDEST PUSH1 0x0 DUP2 SWAP1 POP DUP2 PUSH1 0x0 MSTORE PUSH1 0x20 PUSH1 0x0 KECCAK256 SWAP1 POP SWAP2 SWAP1 POP JUMP JUMPDEST PUSH1 0x0 PUSH1 0x20 PUSH1 0x1F DUP4 ADD DIV SWAP1 POP SWAP2 SWAP1 POP JUMP JUMPDEST PUSH1 0x0 DUP3 DUP3 SHL SWAP1 POP SWAP3 SWAP2 POP POP JUMP JUMPDEST PUSH1 0x0 PUSH1 0x8 DUP4 MUL PUSH3 0x17BD PUSH32 0xFFFFFFFFFFFFFFFFFFFFFFFFFFFFFFFFFFFFFFFFFFFFFFFFFFFFFFFFFFFFFFFF DUP3 PUSH3 0x177E JUMP JUMPDEST PUSH3 0x17C9 DUP7 DUP4 PUSH3 0x177E JUMP JUMPDEST SWAP6 POP DUP1 NOT DUP5 AND SWAP4 POP DUP1 DUP7 AND DUP5 OR SWAP3 POP POP POP SWAP4 SWAP3 POP POP POP JUMP JUMPDEST PUSH1 0x0 DUP2 SWAP1 POP SWAP2 SWAP1 POP JUMP JUMPDEST PUSH1 0x0 PUSH3 0x180C PUSH3 0x1806 PUSH3 0x1800 DUP5 PUSH3 0x13D8 JUMP JUMPDEST PUSH3 0x17E1 JUMP JUMPDEST PUSH3 0x13D8 JUMP JUMPDEST SWAP1 POP SWAP2 SWAP1 POP JUMP JUMPDEST PUSH1 0x0 DUP2 SWAP1 POP SWAP2 SWAP1 POP JUMP JUMPDEST PUSH3 0x1828 DUP4 PUSH3 0x17EB JUMP JUMPDEST PUSH3 0x1840 PUSH3 0x1837 DUP3 PUSH3 0x1813 JUMP JUMPDEST DUP5 DUP5 SLOAD PUSH3 0x178B JUMP JUMPDEST DUP3 SSTORE POP POP POP POP JUMP JUMPDEST PUSH1 0x0 SWAP1 JUMP JUMPDEST PUSH3 0x1857 PUSH3 0x1848 JUMP JUMPDEST PUSH3 0x1864 DUP2 DUP5 DUP5 PUSH3 0x181D JUMP JUMPDEST POP POP POP JUMP JUMPDEST JUMPDEST DUP2 DUP2 LT ISZERO PUSH3 0x188C JUMPI PUSH3 0x1880 PUSH1 0x0 DUP3 PUSH3 0x184D JUMP JUMPDEST PUSH1 0x1 DUP2 ADD SWAP1 POP PUSH3 0x186A JUMP JUMPDEST POP POP JUMP JUMPDEST PUSH1 0x1F DUP3 GT ISZERO PUSH3 0x18DB JUMPI PUSH3 0x18A5 DUP2 PUSH3 0x1759 JUMP JUMPDEST PUSH3 0x18B0 DUP5 PUSH3 0x176E JUMP JUMPDEST DUP2 ADD PUSH1 0x20 DUP6 LT ISZERO PUSH3 0x18C0 JUMPI DUP2 SWAP1 POP JUMPDEST PUSH3 0x18D8 PUSH3 0x18CF DUP6 PUSH3 0x176E JUMP JUMPDEST DUP4 ADD DUP3 PUSH3 0x1869 JUMP JUMPDEST POP POP JUMPDEST POP POP POP JUMP JUMPDEST PUSH1 0x0 DUP3 DUP3 SHR SWAP1 POP SWAP3 SWAP2 POP POP JUMP JUMPDEST PUSH1 0x0 PUSH3 0x1900 PUSH1 0x0 NOT DUP5 PUSH1 0x8 MUL PUSH3 0x18E0 JUMP JUMPDEST NOT DUP1 DUP4 AND SWAP2 POP POP SWAP3 SWAP2 POP POP JUMP JUMPDEST PUSH1 0x0 PUSH3 0x191B DUP4 DUP4 PUSH3 0x18ED JUMP JUMPDEST SWAP2 POP DUP3 PUSH1 0x2 MUL DUP3 OR SWAP1 POP SWAP3 SWAP2 POP POP JUMP JUMPDEST PUSH3 0x1936 DUP3 PUSH3 0x16EA JUMP JUMPDEST PUSH8 0xFFFFFFFFFFFFFFFF DUP2 GT ISZERO PUSH3 0x1952 JUMPI PUSH3 0x1951 PUSH3 0x1009 JUMP JUMPDEST JUMPDEST PUSH3 0x195E DUP3 SLOAD PUSH3 0x1724 JUMP JUMPDEST PUSH3 0x196B DUP3 DUP3 DUP6 PUSH3 0x1890 JUMP JUMPDEST PUSH1 0x0 PUSH1 0x20 SWAP1 POP PUSH1 0x1F DUP4 GT PUSH1 0x1 DUP2 EQ PUSH3 0x19A3 JUMPI PUSH1 0x0 DUP5 ISZERO PUSH3 0x198E JUMPI DUP3 DUP8 ADD MLOAD SWAP1 POP JUMPDEST PUSH3 0x199A DUP6 DUP3 PUSH3 0x190D JUMP JUMPDEST DUP7 SSTORE POP PUSH3 0x1A0A JUMP JUMPDEST PUSH1 0x1F NOT DUP5 AND PUSH3 0x19B3 DUP7 PUSH3 0x1759 JUMP JUMPDEST PUSH1 0x0 JUMPDEST DUP3 DUP2 LT ISZERO PUSH3 0x19DD JUMPI DUP5 DUP10 ADD MLOAD DUP3 SSTORE PUSH1 0x1 DUP3 ADD SWAP2 POP PUSH1 0x20 DUP6 ADD SWAP5 POP PUSH1 0x20 DUP2 ADD SWAP1 POP PUSH3 0x19B6 JUMP JUMPDEST DUP7 DUP4 LT ISZERO PUSH3 0x19FD JUMPI DUP5 DUP10 ADD MLOAD PUSH3 0x19F9 PUSH1 0x1F DUP10 AND DUP3 PUSH3 0x18ED JUMP JUMPDEST DUP4 SSTORE POP JUMPDEST PUSH1 0x1 PUSH1 0x2 DUP9 MUL ADD DUP9 SSTORE POP POP POP JUMPDEST POP POP POP POP POP POP JUMP JUMPDEST PUSH1 0x0 DUP3 DUP3 MSTORE PUSH1 0x20 DUP3 ADD SWAP1 POP SWAP3 SWAP2 POP POP JUMP JUMPDEST PUSH32 0x206D617853656C6C2073686F756C64206265203E207468616E206D6178427579 PUSH1 0x0 DUP3 ADD MSTORE PUSH32 0x2000000000000000000000000000000000000000000000000000000000000000 PUSH1 0x20 DUP3 ADD MSTORE POP JUMP JUMPDEST PUSH1 0x0 PUSH3 0x1A81 PUSH1 0x21 DUP4 PUSH3 0x1A12 JUMP JUMPDEST SWAP2 POP PUSH3 0x1A8E DUP3 PUSH3 0x1A23 JUMP JUMPDEST PUSH1 0x40 DUP3 ADD SWAP1 POP SWAP2 SWAP1 POP JUMP JUMPDEST PUSH1 0x0 PUSH1 0x20 DUP3 ADD SWAP1 POP DUP2 DUP2 SUB PUSH1 0x0 DUP4 ADD MSTORE PUSH3 0x1AB4 DUP2 PUSH3 0x1A72 JUMP JUMPDEST SWAP1 POP SWAP2 SWAP1 POP JUMP JUMPDEST PUSH32 0x61697264726F704E756D62732073686F756C64206265203C3D20330000000000 PUSH1 0x0 DUP3 ADD MSTORE POP JUMP JUMPDEST PUSH1 0x0 PUSH3 0x1AF3 PUSH1 0x1B DUP4 PUSH3 0x1A12 JUMP JUMPDEST SWAP2 POP PUSH3 0x1B00 DUP3 PUSH3 0x1ABB JUMP JUMPDEST PUSH1 0x20 DUP3 ADD SWAP1 POP SWAP2 SWAP1 POP JUMP JUMPDEST PUSH1 0x0 PUSH1 0x20 DUP3 ADD SWAP1 POP DUP2 DUP2 SUB PUSH1 0x0 DUP4 ADD MSTORE PUSH3 0x1B26 DUP2 PUSH3 0x1AE4 JUMP JUMPDEST SWAP1 POP SWAP2 SWAP1 POP JUMP JUMPDEST PUSH32 0x4E487B7100000000000000000000000000000000000000000000000000000000 PUSH1 0x0 MSTORE PUSH1 0x11 PUSH1 0x4 MSTORE PUSH1 0x24 PUSH1 0x0 REVERT JUMPDEST PUSH1 0x0 PUSH3 0x1B69 DUP3 PUSH3 0x13D8 JUMP JUMPDEST SWAP2 POP PUSH3 0x1B76 DUP4 PUSH3 0x13D8 JUMP JUMPDEST SWAP3 POP DUP3 DUP3 ADD SWAP1 POP DUP1 DUP3 GT ISZERO PUSH3 0x1B91 JUMPI PUSH3 0x1B90 PUSH3 0x1B2D JUMP JUMPDEST JUMPDEST SWAP3 SWAP2 POP POP JUMP JUMPDEST PUSH32 0x66656520746F6F20686967680000000000000000000000000000000000000000 PUSH1 0x0 DUP3 ADD MSTORE POP JUMP JUMPDEST PUSH1 0x0 PUSH3 0x1BCF PUSH1 0xC DUP4 PUSH3 0x1A12 JUMP JUMPDEST SWAP2 POP PUSH3 0x1BDC DUP3 PUSH3 0x1B97 JUMP JUMPDEST PUSH1 0x20 DUP3 ADD SWAP1 POP SWAP2 SWAP1 POP JUMP JUMPDEST PUSH1 0x0 PUSH1 0x20 DUP3 ADD SWAP1 POP DUP2 DUP2 SUB PUSH1 0x0 DUP4 ADD MSTORE PUSH3 0x1C02 DUP2 PUSH3 0x1BC0 JUMP JUMPDEST SWAP1 POP SWAP2 SWAP1 POP JUMP JUMPDEST PUSH3 0x1C14 DUP2 PUSH3 0x12BD JUMP JUMPDEST DUP3 MSTORE POP POP JUMP JUMPDEST PUSH3 0x1C25 DUP2 PUSH3 0x13D8 JUMP JUMPDEST DUP3 MSTORE POP POP JUMP JUMPDEST PUSH1 0x0 PUSH1 0x40 DUP3 ADD SWAP1 POP PUSH3 0x1C42 PUSH1 0x0 DUP4 ADD DUP6 PUSH3 0x1C09 JUMP JUMPDEST PUSH3 0x1C51 PUSH1 0x20 DUP4 ADD DUP5 PUSH3 0x1C1A JUMP JUMPDEST SWAP4 SWAP3 POP POP POP JUMP JUMPDEST PUSH1 0x0 PUSH1 0x20 DUP3 DUP5 SUB SLT ISZERO PUSH3 0x1C71 JUMPI PUSH3 0x1C70 PUSH3 0xFE9 JUMP JUMPDEST JUMPDEST PUSH1 0x0 PUSH3 0x1C81 DUP5 DUP3 DUP6 ADD PUSH3 0x150F JUMP JUMPDEST SWAP2 POP POP SWAP3 SWAP2 POP POP JUMP JUMPDEST PUSH1 0x0 PUSH1 0x20 DUP3 DUP5 SUB SLT ISZERO PUSH3 0x1CA3 JUMPI PUSH3 0x1CA2 PUSH3 0xFE9 JUMP JUMPDEST JUMPDEST PUSH1 0x0 PUSH3 0x1CB3 DUP5 DUP3 DUP6 ADD PUSH3 0x12EB JUMP JUMPDEST SWAP2 POP POP SWAP3 SWAP2 POP POP JUMP JUMPDEST PUSH1 0x0 PUSH1 0x40 DUP3 ADD SWAP1 POP PUSH3 0x1CD3 PUSH1 0x0 DUP4 ADD DUP6 PUSH3 0x1C09 JUMP JUMPDEST PUSH3 0x1CE2 PUSH1 0x20 DUP4 ADD DUP5 PUSH3 0x1C09 JUMP JUMPDEST SWAP4 SWAP3 POP POP POP JUMP JUMPDEST PUSH1 0x0 PUSH1 0x20 DUP3 ADD SWAP1 POP PUSH3 0x1D00 PUSH1 0x0 DUP4 ADD DUP5 PUSH3 0x1C09 JUMP JUMPDEST SWAP3 SWAP2 POP POP JUMP JUMPDEST PUSH1 0x0 PUSH1 0x20 DUP3 ADD SWAP1 POP PUSH3 0x1D1D PUSH1 0x0 DUP4 ADD DUP5 PUSH3 0x1C1A JUMP JUMPDEST SWAP3 SWAP2 POP POP JUMP JUMPDEST PUSH2 0x619E DUP1 PUSH3 0x1D33 PUSH1 0x0 CODECOPY PUSH1 0x0 RETURN INVALID PUSH1 0x80 PUSH1 0x40 MSTORE PUSH1 0x4 CALLDATASIZE LT PUSH2 0x41F JUMPI PUSH1 0x0 CALLDATALOAD PUSH1 0xE0 SHR DUP1 PUSH4 0x7862A67F GT PUSH2 0x21E JUMPI DUP1 PUSH4 0xB02D757F GT PUSH2 0x123 JUMPI DUP1 PUSH4 0xD5986433 GT PUSH2 0xAB JUMPI DUP1 PUSH4 0xE5A6B10F GT PUSH2 0x7A JUMPI DUP1 PUSH4 0xE5A6B10F EQ PUSH2 0x1000 JUMPI DUP1 PUSH4 0xE5C2B0A6 EQ PUSH2 0x102B JUMPI DUP1 PUSH4 0xE72B6A49 EQ PUSH2 0x1054 JUMPI DUP1 PUSH4 0xE82BEF29 EQ PUSH2 0x1091 JUMPI DUP1 PUSH4 0xF2FDE38B EQ PUSH2 0x10BC JUMPI PUSH2 0x426 JUMP JUMPDEST DUP1 PUSH4 0xD5986433 EQ PUSH2 0xF42 JUMPI DUP1 PUSH4 0xDAC1DCFE EQ PUSH2 0xF6D JUMPI DUP1 PUSH4 0xDD62ED3E EQ PUSH2 0xF98 JUMPI DUP1 PUSH4 0xE32759CF EQ PUSH2 0xFD5 JUMPI PUSH2 0x426 JUMP JUMPDEST DUP1 PUSH4 0xBD25BF29 GT PUSH2 0xF2 JUMPI DUP1 PUSH4 0xBD25BF29 EQ PUSH2 0xE59 JUMPI DUP1 PUSH4 0xBEBE766F EQ PUSH2 0xE96 JUMPI DUP1 PUSH4 0xC92D567E EQ PUSH2 0xEC1 JUMPI DUP1 PUSH4 0xCE0192F9 EQ PUSH2 0xEEC JUMPI DUP1 PUSH4 0xD49D5181 EQ PUSH2 0xF17 JUMPI PUSH2 0x426 JUMP JUMPDEST DUP1 PUSH4 0xB02D757F EQ PUSH2 0xD9A JUMPI DUP1 PUSH4 0xB3ACE4EC EQ PUSH2 0xDC5 JUMPI DUP1 PUSH4 0xB8996BC3 EQ PUSH2 0xDF0 JUMPI DUP1 PUSH4 0xB9FBC49D EQ PUSH2 0xE2E JUMPI PUSH2 0x426 JUMP JUMPDEST DUP1 PUSH4 0x90D1DFA9 GT PUSH2 0x1A6 JUMPI DUP1 PUSH4 0xA9059CBB GT PUSH2 0x175 JUMPI DUP1 PUSH4 0xA9059CBB EQ PUSH2 0xCB3 JUMPI DUP1 PUSH4 0xAA4BDE28 EQ PUSH2 0xCF0 JUMPI DUP1 PUSH4 0xAA582B42 EQ PUSH2 0xD1B JUMPI DUP1 PUSH4 0xACB2AD6F EQ PUSH2 0xD44 JUMPI DUP1 PUSH4 0xADC7955D EQ PUSH2 0xD6F JUMPI PUSH2 0x426 JUMP JUMPDEST DUP1 PUSH4 0x90D1DFA9 EQ PUSH2 0xC0B JUMPI DUP1 PUSH4 0x95D89B41 EQ PUSH2 0xC34 JUMPI DUP1 PUSH4 0xA23270D7 EQ PUSH2 0xC5F JUMPI DUP1 PUSH4 0xA8424861 EQ PUSH2 0xC8A JUMPI PUSH2 0x426 JUMP JUMPDEST DUP1 PUSH4 0x85DC3004 GT PUSH2 0x1ED JUMPI DUP1 PUSH4 0x85DC3004 EQ PUSH2 0xB38 JUMPI DUP1 PUSH4 0x8718B24F EQ PUSH2 0xB61 JUMPI DUP1 PUSH4 0x88E765FF EQ PUSH2 0xB8C JUMPI DUP1 PUSH4 0x8DA5CB5B EQ PUSH2 0xBB7 JUMPI DUP1 PUSH4 0x8F02BB5B EQ PUSH2 0xBE2 JUMPI PUSH2 0x426 JUMP JUMPDEST DUP1 PUSH4 0x7862A67F EQ PUSH2 0xA7D JUMPI DUP1 PUSH4 0x79594736 EQ PUSH2 0xABB JUMPI DUP1 PUSH4 0x7ABDC1CA EQ PUSH2 0xAE4 JUMPI DUP1 PUSH4 0x7DB1342C EQ PUSH2 0xB0F JUMPI PUSH2 0x426 JUMP JUMPDEST DUP1 PUSH4 0x2DAB693F GT PUSH2 0x324 JUMPI DUP1 PUSH4 0x5932EAD1 GT PUSH2 0x2AC JUMPI DUP1 PUSH4 0x66D602AE GT PUSH2 0x27B JUMPI DUP1 PUSH4 0x66D602AE EQ PUSH2 0x9AA JUMPI DUP1 PUSH4 0x697CFC19 EQ PUSH2 0x9D5 JUMPI DUP1 PUSH4 0x6EBCF607 EQ PUSH2 0x9EC JUMPI DUP1 PUSH4 0x70A08231 EQ PUSH2 0xA29 JUMPI DUP1 PUSH4 0x715018A6 EQ PUSH2 0xA66 JUMPI PUSH2 0x426 JUMP JUMPDEST DUP1 PUSH4 0x5932EAD1 EQ PUSH2 0x902 JUMPI DUP1 PUSH4 0x5A7BA73C EQ PUSH2 0x92B JUMPI DUP1 PUSH4 0x6108A3DB EQ PUSH2 0x956 JUMPI DUP1 PUSH4 0x6440D60B EQ PUSH2 0x97F JUMPI PUSH2 0x426 JUMP JUMPDEST DUP1 PUSH4 0x4188BF5A GT PUSH2 0x2F3 JUMPI DUP1 PUSH4 0x4188BF5A EQ PUSH2 0x807 JUMPI DUP1 PUSH4 0x423F8F9D EQ PUSH2 0x832 JUMPI DUP1 PUSH4 0x4481C7A3 EQ PUSH2 0x85D JUMPI DUP1 PUSH4 0x4D5CE038 EQ PUSH2 0x89A JUMPI DUP1 PUSH4 0x553193CA EQ PUSH2 0x8D7 JUMPI PUSH2 0x426 JUMP JUMPDEST DUP1 PUSH4 0x2DAB693F EQ PUSH2 0x749 JUMPI DUP1 PUSH4 0x313CE567 EQ PUSH2 0x774 JUMPI DUP1 PUSH4 0x3BFE62CA EQ PUSH2 0x79F JUMPI DUP1 PUSH4 0x3C11100D EQ PUSH2 0x7CA JUMPI PUSH2 0x426 JUMP JUMPDEST DUP1 PUSH4 0xF890B86 GT PUSH2 0x3A7 JUMPI DUP1 PUSH4 0x16F2F1A8 GT PUSH2 0x376 JUMPI DUP1 PUSH4 0x16F2F1A8 EQ PUSH2 0x660 JUMPI DUP1 PUSH4 0x18160DDD EQ PUSH2 0x68B JUMPI DUP1 PUSH4 0x1846A5A4 EQ PUSH2 0x6B6 JUMPI DUP1 PUSH4 0x206C17BB EQ PUSH2 0x6E1 JUMPI DUP1 PUSH4 0x23B872DD EQ PUSH2 0x70C JUMPI PUSH2 0x426 JUMP JUMPDEST DUP1 PUSH4 0xF890B86 EQ PUSH2 0x5CC JUMPI DUP1 PUSH4 0x14A432C9 EQ PUSH2 0x5E3 JUMPI DUP1 PUSH4 0x150E4C47 EQ PUSH2 0x60C JUMPI DUP1 PUSH4 0x15D07D82 EQ PUSH2 0x635 JUMPI PUSH2 0x426 JUMP JUMPDEST DUP1 PUSH4 0x63BE69E GT PUSH2 0x3EE JUMPI DUP1 PUSH4 0x63BE69E EQ PUSH2 0x4E7 JUMPI DUP1 PUSH4 0x6FDDE03 EQ PUSH2 0x4FE JUMPI DUP1 PUSH4 0x7313D8D EQ PUSH2 0x529 JUMPI DUP1 PUSH4 0x95EA7B3 EQ PUSH2 0x552 JUMPI DUP1 PUSH4 0xD08F238 EQ PUSH2 0x58F JUMPI PUSH2 0x426 JUMP JUMPDEST DUP1 PUSH4 0x1339C21 EQ PUSH2 0x42B JUMPI DUP1 PUSH4 0x1986FAD EQ PUSH2 0x442 JUMPI DUP1 PUSH4 0x24C2DDD EQ PUSH2 0x47F JUMPI DUP1 PUSH4 0x3DA2B23 EQ PUSH2 0x4BC JUMPI PUSH2 0x426 JUMP JUMPDEST CALLDATASIZE PUSH2 0x426 JUMPI STOP JUMPDEST PUSH1 0x0 DUP1 REVERT JUMPDEST CALLVALUE DUP1 ISZERO PUSH2 0x437 JUMPI PUSH1 0x0 DUP1 REVERT JUMPDEST POP PUSH2 0x440 PUSH2 0x10E5 JUMP JUMPDEST STOP JUMPDEST CALLVALUE DUP1 ISZERO PUSH2 0x44E JUMPI PUSH1 0x0 DUP1 REVERT JUMPDEST POP PUSH2 0x469 PUSH1 0x4 DUP1 CALLDATASIZE SUB DUP2 ADD SWAP1 PUSH2 0x464 SWAP2 SWAP1 PUSH2 0x4ED5 JUMP JUMPDEST PUSH2 0x11C8 JUMP JUMPDEST PUSH1 0x40 MLOAD PUSH2 0x476 SWAP2 SWAP1 PUSH2 0x4F1D JUMP JUMPDEST PUSH1 0x40 MLOAD DUP1 SWAP2 SUB SWAP1 RETURN JUMPDEST CALLVALUE DUP1 ISZERO PUSH2 0x48B JUMPI PUSH1 0x0 DUP1 REVERT JUMPDEST POP PUSH2 0x4A6 PUSH1 0x4 DUP1 CALLDATASIZE SUB DUP2 ADD SWAP1 PUSH2 0x4A1 SWAP2 SWAP1 PUSH2 0x4F38 JUMP JUMPDEST PUSH2 0x11E8 JUMP JUMPDEST PUSH1 0x40 MLOAD PUSH2 0x4B3 SWAP2 SWAP1 PUSH2 0x4F91 JUMP JUMPDEST PUSH1 0x40 MLOAD DUP1 SWAP2 SUB SWAP1 RETURN JUMPDEST CALLVALUE DUP1 ISZERO PUSH2 0x4C8 JUMPI PUSH1 0x0 DUP1 REVERT JUMPDEST POP PUSH2 0x4D1 PUSH2 0x120D JUMP JUMPDEST PUSH1 0x40 MLOAD PUSH2 0x4DE SWAP2 SWAP1 PUSH2 0x4F1D JUMP JUMPDEST PUSH1 0x40 MLOAD DUP1 SWAP2 SUB SWAP1 RETURN JUMPDEST CALLVALUE DUP1 ISZERO PUSH2 0x4F3 JUMPI PUSH1 0x0 DUP1 REVERT JUMPDEST POP PUSH2 0x4FC PUSH2 0x1220 JUMP JUMPDEST STOP JUMPDEST CALLVALUE DUP1 ISZERO PUSH2 0x50A JUMPI PUSH1 0x0 DUP1 REVERT JUMPDEST POP PUSH2 0x513 PUSH2 0x12D1 JUMP JUMPDEST PUSH1 0x40 MLOAD PUSH2 0x520 SWAP2 SWAP1 PUSH2 0x503C JUMP JUMPDEST PUSH1 0x40 MLOAD DUP1 SWAP2 SUB SWAP1 RETURN JUMPDEST CALLVALUE DUP1 ISZERO PUSH2 0x535 JUMPI PUSH1 0x0 DUP1 REVERT JUMPDEST POP PUSH2 0x550 PUSH1 0x4 DUP1 CALLDATASIZE SUB DUP2 ADD SWAP1 PUSH2 0x54B SWAP2 SWAP1 PUSH2 0x508A JUMP JUMPDEST PUSH2 0x135F JUMP JUMPDEST STOP JUMPDEST CALLVALUE DUP1 ISZERO PUSH2 0x55E JUMPI PUSH1 0x0 DUP1 REVERT JUMPDEST POP PUSH2 0x579 PUSH1 0x4 DUP1 CALLDATASIZE SUB DUP2 ADD SWAP1 PUSH2 0x574 SWAP2 SWAP1 PUSH2 0x50E3 JUMP JUMPDEST PUSH2 0x1411 JUMP JUMPDEST PUSH1 0x40 MLOAD PUSH2 0x586 SWAP2 SWAP1 PUSH2 0x4F1D JUMP JUMPDEST PUSH1 0x40 MLOAD DUP1 SWAP2 SUB SWAP1 RETURN JUMPDEST CALLVALUE DUP1 ISZERO PUSH2 0x59B JUMPI PUSH1 0x0 DUP1 REVERT JUMPDEST POP PUSH2 0x5B6 PUSH1 0x4 DUP1 CALLDATASIZE SUB DUP2 ADD SWAP1 PUSH2 0x5B1 SWAP2 SWAP1 PUSH2 0x5123 JUMP JUMPDEST PUSH2 0x1428 JUMP JUMPDEST PUSH1 0x40 MLOAD PUSH2 0x5C3 SWAP2 SWAP1 PUSH2 0x4F91 JUMP JUMPDEST PUSH1 0x40 MLOAD DUP1 SWAP2 SUB SWAP1 RETURN JUMPDEST CALLVALUE DUP1 ISZERO PUSH2 0x5D8 JUMPI PUSH1 0x0 DUP1 REVERT JUMPDEST POP PUSH2 0x5E1 PUSH2 0x156A JUMP JUMPDEST STOP JUMPDEST CALLVALUE DUP1 ISZERO PUSH2 0x5EF JUMPI PUSH1 0x0 DUP1 REVERT JUMPDEST POP PUSH2 0x60A PUSH1 0x4 DUP1 CALLDATASIZE SUB DUP2 ADD SWAP1 PUSH2 0x605 SWAP2 SWAP1 PUSH2 0x5123 JUMP JUMPDEST PUSH2 0x161B JUMP JUMPDEST STOP JUMPDEST CALLVALUE DUP1 ISZERO PUSH2 0x618 JUMPI PUSH1 0x0 DUP1 REVERT JUMPDEST POP PUSH2 0x633 PUSH1 0x4 DUP1 CALLDATASIZE SUB DUP2 ADD SWAP1 PUSH2 0x62E SWAP2 SWAP1 PUSH2 0x51B5 JUMP JUMPDEST PUSH2 0x16BA JUMP JUMPDEST STOP JUMPDEST CALLVALUE DUP1 ISZERO PUSH2 0x641 JUMPI PUSH1 0x0 DUP1 REVERT JUMPDEST POP PUSH2 0x64A PUSH2 0x17F4 JUMP JUMPDEST PUSH1 0x40 MLOAD PUSH2 0x657 SWAP2 SWAP1 PUSH2 0x4F1D JUMP JUMPDEST PUSH1 0x40 MLOAD DUP1 SWAP2 SUB SWAP1 RETURN JUMPDEST CALLVALUE DUP1 ISZERO PUSH2 0x66C JUMPI PUSH1 0x0 DUP1 REVERT JUMPDEST POP PUSH2 0x675 PUSH2 0x1807 JUMP JUMPDEST PUSH1 0x40 MLOAD PUSH2 0x682 SWAP2 SWAP1 PUSH2 0x4F91 JUMP JUMPDEST PUSH1 0x40 MLOAD DUP1 SWAP2 SUB SWAP1 RETURN JUMPDEST CALLVALUE DUP1 ISZERO PUSH2 0x697 JUMPI PUSH1 0x0 DUP1 REVERT JUMPDEST POP PUSH2 0x6A0 PUSH2 0x180D JUMP JUMPDEST PUSH1 0x40 MLOAD PUSH2 0x6AD SWAP2 SWAP1 PUSH2 0x4F91 JUMP JUMPDEST PUSH1 0x40 MLOAD DUP1 SWAP2 SUB SWAP1 RETURN JUMPDEST CALLVALUE DUP1 ISZERO PUSH2 0x6C2 JUMPI PUSH1 0x0 DUP1 REVERT JUMPDEST POP PUSH2 0x6CB PUSH2 0x1813 JUMP JUMPDEST PUSH1 0x40 MLOAD PUSH2 0x6D8 SWAP2 SWAP1 PUSH2 0x4F1D JUMP JUMPDEST PUSH1 0x40 MLOAD DUP1 SWAP2 SUB SWAP1 RETURN JUMPDEST CALLVALUE DUP1 ISZERO PUSH2 0x6ED JUMPI PUSH1 0x0 DUP1 REVERT JUMPDEST POP PUSH2 0x6F6 PUSH2 0x1826 JUMP JUMPDEST PUSH1 0x40 MLOAD PUSH2 0x703 SWAP2 SWAP1 PUSH2 0x5274 JUMP JUMPDEST PUSH1 0x40 MLOAD DUP1 SWAP2 SUB SWAP1 RETURN JUMPDEST CALLVALUE DUP1 ISZERO PUSH2 0x718 JUMPI PUSH1 0x0 DUP1 REVERT JUMPDEST POP PUSH2 0x733 PUSH1 0x4 DUP1 CALLDATASIZE SUB DUP2 ADD SWAP1 PUSH2 0x72E SWAP2 SWAP1 PUSH2 0x528F JUMP JUMPDEST PUSH2 0x184C JUMP JUMPDEST PUSH1 0x40 MLOAD PUSH2 0x740 SWAP2 SWAP1 PUSH2 0x4F1D JUMP JUMPDEST PUSH1 0x40 MLOAD DUP1 SWAP2 SUB SWAP1 RETURN JUMPDEST CALLVALUE DUP1 ISZERO PUSH2 0x755 JUMPI PUSH1 0x0 DUP1 REVERT JUMPDEST POP PUSH2 0x75E PUSH2 0x19F2 JUMP JUMPDEST PUSH1 0x40 MLOAD PUSH2 0x76B SWAP2 SWAP1 PUSH2 0x4F91 JUMP JUMPDEST PUSH1 0x40 MLOAD DUP1 SWAP2 SUB SWAP1 RETURN JUMPDEST CALLVALUE DUP1 ISZERO PUSH2 0x780 JUMPI PUSH1 0x0 DUP1 REVERT JUMPDEST POP PUSH2 0x789 PUSH2 0x19F8 JUMP JUMPDEST PUSH1 0x40 MLOAD PUSH2 0x796 SWAP2 SWAP1 PUSH2 0x4F91 JUMP JUMPDEST PUSH1 0x40 MLOAD DUP1 SWAP2 SUB SWAP1 RETURN JUMPDEST CALLVALUE DUP1 ISZERO PUSH2 0x7AB JUMPI PUSH1 0x0 DUP1 REVERT JUMPDEST POP PUSH2 0x7B4 PUSH2 0x19FE JUMP JUMPDEST PUSH1 0x40 MLOAD PUSH2 0x7C1 SWAP2 SWAP1 PUSH2 0x4F91 JUMP JUMPDEST PUSH1 0x40 MLOAD DUP1 SWAP2 SUB SWAP1 RETURN JUMPDEST CALLVALUE DUP1 ISZERO PUSH2 0x7D6 JUMPI PUSH1 0x0 DUP1 REVERT JUMPDEST POP PUSH2 0x7F1 PUSH1 0x4 DUP1 CALLDATASIZE SUB DUP2 ADD SWAP1 PUSH2 0x7EC SWAP2 SWAP1 PUSH2 0x4ED5 JUMP JUMPDEST PUSH2 0x1A04 JUMP JUMPDEST PUSH1 0x40 MLOAD PUSH2 0x7FE SWAP2 SWAP1 PUSH2 0x4F1D JUMP JUMPDEST PUSH1 0x40 MLOAD DUP1 SWAP2 SUB SWAP1 RETURN JUMPDEST CALLVALUE DUP1 ISZERO PUSH2 0x813 JUMPI PUSH1 0x0 DUP1 REVERT JUMPDEST POP PUSH2 0x81C PUSH2 0x1A24 JUMP JUMPDEST PUSH1 0x40 MLOAD PUSH2 0x829 SWAP2 SWAP1 PUSH2 0x52F1 JUMP JUMPDEST PUSH1 0x40 MLOAD DUP1 SWAP2 SUB SWAP1 RETURN JUMPDEST CALLVALUE DUP1 ISZERO PUSH2 0x83E JUMPI PUSH1 0x0 DUP1 REVERT JUMPDEST POP PUSH2 0x847 PUSH2 0x1A4A JUMP JUMPDEST PUSH1 0x40 MLOAD PUSH2 0x854 SWAP2 SWAP1 PUSH2 0x5329 JUMP JUMPDEST PUSH1 0x40 MLOAD DUP1 SWAP2 SUB SWAP1 RETURN JUMPDEST CALLVALUE DUP1 ISZERO PUSH2 0x869 JUMPI PUSH1 0x0 DUP1 REVERT JUMPDEST POP PUSH2 0x884 PUSH1 0x4 DUP1 CALLDATASIZE SUB DUP2 ADD SWAP1 PUSH2 0x87F SWAP2 SWAP1 PUSH2 0x4ED5 JUMP JUMPDEST PUSH2 0x1A5E JUMP JUMPDEST PUSH1 0x40 MLOAD PUSH2 0x891 SWAP2 SWAP1 PUSH2 0x4F91 JUMP JUMPDEST PUSH1 0x40 MLOAD DUP1 SWAP2 SUB SWAP1 RETURN JUMPDEST CALLVALUE DUP1 ISZERO PUSH2 0x8A6 JUMPI PUSH1 0x0 DUP1 REVERT JUMPDEST POP PUSH2 0x8C1 PUSH1 0x4 DUP1 CALLDATASIZE SUB DUP2 ADD SWAP1 PUSH2 0x8BC SWAP2 SWAP1 PUSH2 0x4ED5 JUMP JUMPDEST PUSH2 0x1AC4 JUMP JUMPDEST PUSH1 0x40 MLOAD PUSH2 0x8CE SWAP2 SWAP1 PUSH2 0x4F91 JUMP JUMPDEST PUSH1 0x40 MLOAD DUP1 SWAP2 SUB SWAP1 RETURN JUMPDEST CALLVALUE DUP1 ISZERO PUSH2 0x8E3 JUMPI PUSH1 0x0 DUP1 REVERT JUMPDEST POP PUSH2 0x8EC PUSH2 0x1B81 JUMP JUMPDEST PUSH1 0x40 MLOAD PUSH2 0x8F9 SWAP2 SWAP1 PUSH2 0x4F91 JUMP JUMPDEST PUSH1 0x40 MLOAD DUP1 SWAP2 SUB SWAP1 RETURN JUMPDEST CALLVALUE DUP1 ISZERO PUSH2 0x90E JUMPI PUSH1 0x0 DUP1 REVERT JUMPDEST POP PUSH2 0x929 PUSH1 0x4 DUP1 CALLDATASIZE SUB DUP2 ADD SWAP1 PUSH2 0x924 SWAP2 SWAP1 PUSH2 0x508A JUMP JUMPDEST PUSH2 0x1B87 JUMP JUMPDEST STOP JUMPDEST CALLVALUE DUP1 ISZERO PUSH2 0x937 JUMPI PUSH1 0x0 DUP1 REVERT JUMPDEST POP PUSH2 0x940 PUSH2 0x1C70 JUMP JUMPDEST PUSH1 0x40 MLOAD PUSH2 0x94D SWAP2 SWAP1 PUSH2 0x4F1D JUMP JUMPDEST PUSH1 0x40 MLOAD DUP1 SWAP2 SUB SWAP1 RETURN JUMPDEST CALLVALUE DUP1 ISZERO PUSH2 0x962 JUMPI PUSH1 0x0 DUP1 REVERT JUMPDEST POP PUSH2 0x97D PUSH1 0x4 DUP1 CALLDATASIZE SUB DUP2 ADD SWAP1 PUSH2 0x978 SWAP2 SWAP1 PUSH2 0x51B5 JUMP JUMPDEST PUSH2 0x1C83 JUMP JUMPDEST STOP JUMPDEST CALLVALUE DUP1 ISZERO PUSH2 0x98B JUMPI PUSH1 0x0 DUP1 REVERT JUMPDEST POP PUSH2 0x994 PUSH2 0x1E1A JUMP JUMPDEST PUSH1 0x40 MLOAD PUSH2 0x9A1 SWAP2 SWAP1 PUSH2 0x4F91 JUMP JUMPDEST PUSH1 0x40 MLOAD DUP1 SWAP2 SUB SWAP1 RETURN JUMPDEST CALLVALUE DUP1 ISZERO PUSH2 0x9B6 JUMPI PUSH1 0x0 DUP1 REVERT JUMPDEST POP PUSH2 0x9BF PUSH2 0x1FB6 JUMP JUMPDEST PUSH1 0x40 MLOAD PUSH2 0x9CC SWAP2 SWAP1 PUSH2 0x4F91 JUMP JUMPDEST PUSH1 0x40 MLOAD DUP1 SWAP2 SUB SWAP1 RETURN JUMPDEST CALLVALUE DUP1 ISZERO PUSH2 0x9E1 JUMPI PUSH1 0x0 DUP1 REVERT JUMPDEST POP PUSH2 0x9EA PUSH2 0x1FBC JUMP JUMPDEST STOP JUMPDEST CALLVALUE DUP1 ISZERO PUSH2 0x9F8 JUMPI PUSH1 0x0 DUP1 REVERT JUMPDEST POP PUSH2 0xA13 PUSH1 0x4 DUP1 CALLDATASIZE SUB DUP2 ADD SWAP1 PUSH2 0xA0E SWAP2 SWAP1 PUSH2 0x4ED5 JUMP JUMPDEST PUSH2 0x206D JUMP JUMPDEST PUSH1 0x40 MLOAD PUSH2 0xA20 SWAP2 SWAP1 PUSH2 0x4F91 JUMP JUMPDEST PUSH1 0x40 MLOAD DUP1 SWAP2 SUB SWAP1 RETURN JUMPDEST CALLVALUE DUP1 ISZERO PUSH2 0xA35 JUMPI PUSH1 0x0 DUP1 REVERT JUMPDEST POP PUSH2 0xA50 PUSH1 0x4 DUP1 CALLDATASIZE SUB DUP2 ADD SWAP1 PUSH2 0xA4B SWAP2 SWAP1 PUSH2 0x4ED5 JUMP JUMPDEST PUSH2 0x2085 JUMP JUMPDEST PUSH1 0x40 MLOAD PUSH2 0xA5D SWAP2 SWAP1 PUSH2 0x4F91 JUMP JUMPDEST PUSH1 0x40 MLOAD DUP1 SWAP2 SUB SWAP1 RETURN JUMPDEST CALLVALUE DUP1 ISZERO PUSH2 0xA72 JUMPI PUSH1 0x0 DUP1 REVERT JUMPDEST POP PUSH2 0xA7B PUSH2 0x20CE JUMP JUMPDEST STOP JUMPDEST CALLVALUE DUP1 ISZERO PUSH2 0xA89 JUMPI PUSH1 0x0 DUP1 REVERT JUMPDEST POP PUSH2 0xAA4 PUSH1 0x4 DUP1 CALLDATASIZE SUB DUP2 ADD SWAP1 PUSH2 0xA9F SWAP2 SWAP1 PUSH2 0x4ED5 JUMP JUMPDEST PUSH2 0x2223 JUMP JUMPDEST PUSH1 0x40 MLOAD PUSH2 0xAB2 SWAP3 SWAP2 SWAP1 PUSH2 0x5363 JUMP JUMPDEST PUSH1 0x40 MLOAD DUP1 SWAP2 SUB SWAP1 RETURN JUMPDEST CALLVALUE DUP1 ISZERO PUSH2 0xAC7 JUMPI PUSH1 0x0 DUP1 REVERT JUMPDEST POP PUSH2 0xAE2 PUSH1 0x4 DUP1 CALLDATASIZE SUB DUP2 ADD SWAP1 PUSH2 0xADD SWAP2 SWAP1 PUSH2 0x508A JUMP JUMPDEST PUSH2 0x2265 JUMP JUMPDEST STOP JUMPDEST CALLVALUE DUP1 ISZERO PUSH2 0xAF0 JUMPI PUSH1 0x0 DUP1 REVERT JUMPDEST POP PUSH2 0xAF9 PUSH2 0x2334 JUMP JUMPDEST PUSH1 0x40 MLOAD PUSH2 0xB06 SWAP2 SWAP1 PUSH2 0x4F91 JUMP JUMPDEST PUSH1 0x40 MLOAD DUP1 SWAP2 SUB SWAP1 RETURN JUMPDEST CALLVALUE DUP1 ISZERO PUSH2 0xB1B JUMPI PUSH1 0x0 DUP1 REVERT JUMPDEST POP PUSH2 0xB36 PUSH1 0x4 DUP1 CALLDATASIZE SUB DUP2 ADD SWAP1 PUSH2 0xB31 SWAP2 SWAP1 PUSH2 0x5123 JUMP JUMPDEST PUSH2 0x233A JUMP JUMPDEST STOP JUMPDEST CALLVALUE DUP1 ISZERO PUSH2 0xB44 JUMPI PUSH1 0x0 DUP1 REVERT JUMPDEST POP PUSH2 0xB5F PUSH1 0x4 DUP1 CALLDATASIZE SUB DUP2 ADD SWAP1 PUSH2 0xB5A SWAP2 SWAP1 PUSH2 0x4ED5 JUMP JUMPDEST PUSH2 0x23D9 JUMP JUMPDEST STOP JUMPDEST CALLVALUE DUP1 ISZERO PUSH2 0xB6D JUMPI PUSH1 0x0 DUP1 REVERT JUMPDEST POP PUSH2 0xB76 PUSH2 0x250A JUMP JUMPDEST PUSH1 0x40 MLOAD PUSH2 0xB83 SWAP2 SWAP1 PUSH2 0x53AD JUMP JUMPDEST PUSH1 0x40 MLOAD DUP1 SWAP2 SUB SWAP1 RETURN JUMPDEST CALLVALUE DUP1 ISZERO PUSH2 0xB98 JUMPI PUSH1 0x0 DUP1 REVERT JUMPDEST POP PUSH2 0xBA1 PUSH2 0x2530 JUMP JUMPDEST PUSH1 0x40 MLOAD PUSH2 0xBAE SWAP2 SWAP1 PUSH2 0x4F91 JUMP JUMPDEST PUSH1 0x40 MLOAD DUP1 SWAP2 SUB SWAP1 RETURN JUMPDEST CALLVALUE DUP1 ISZERO PUSH2 0xBC3 JUMPI PUSH1 0x0 DUP1 REVERT JUMPDEST POP PUSH2 0xBCC PUSH2 0x2536 JUMP JUMPDEST PUSH1 0x40 MLOAD PUSH2 0xBD9 SWAP2 SWAP1 PUSH2 0x52F1 JUMP JUMPDEST PUSH1 0x40 MLOAD DUP1 SWAP2 SUB SWAP1 RETURN JUMPDEST CALLVALUE DUP1 ISZERO PUSH2 0xBEE JUMPI PUSH1 0x0 DUP1 REVERT JUMPDEST POP PUSH2 0xC09 PUSH1 0x4 DUP1 CALLDATASIZE SUB DUP2 ADD SWAP1 PUSH2 0xC04 SWAP2 SWAP1 PUSH2 0x5123 JUMP JUMPDEST PUSH2 0x255F JUMP JUMPDEST STOP JUMPDEST CALLVALUE DUP1 ISZERO PUSH2 0xC17 JUMPI PUSH1 0x0 DUP1 REVERT JUMPDEST POP PUSH2 0xC32 PUSH1 0x4 DUP1 CALLDATASIZE SUB DUP2 ADD SWAP1 PUSH2 0xC2D SWAP2 SWAP1 PUSH2 0x53C8 JUMP JUMPDEST PUSH2 0x2643 JUMP JUMPDEST STOP JUMPDEST CALLVALUE DUP1 ISZERO PUSH2 0xC40 JUMPI PUSH1 0x0 DUP1 REVERT JUMPDEST POP PUSH2 0xC49 PUSH2 0x2731 JUMP JUMPDEST PUSH1 0x40 MLOAD PUSH2 0xC56 SWAP2 SWAP1 PUSH2 0x503C JUMP JUMPDEST PUSH1 0x40 MLOAD DUP1 SWAP2 SUB SWAP1 RETURN JUMPDEST CALLVALUE DUP1 ISZERO PUSH2 0xC6B JUMPI PUSH1 0x0 DUP1 REVERT JUMPDEST POP PUSH2 0xC74 PUSH2 0x27BF JUMP JUMPDEST PUSH1 0x40 MLOAD PUSH2 0xC81 SWAP2 SWAP1 PUSH2 0x4F1D JUMP JUMPDEST PUSH1 0x40 MLOAD DUP1 SWAP2 SUB SWAP1 RETURN JUMPDEST CALLVALUE DUP1 ISZERO PUSH2 0xC96 JUMPI PUSH1 0x0 DUP1 REVERT JUMPDEST POP PUSH2 0xCB1 PUSH1 0x4 DUP1 CALLDATASIZE SUB DUP2 ADD SWAP1 PUSH2 0xCAC SWAP2 SWAP1 PUSH2 0x5408 JUMP JUMPDEST PUSH2 0x27D2 JUMP JUMPDEST STOP JUMPDEST CALLVALUE DUP1 ISZERO PUSH2 0xCBF JUMPI PUSH1 0x0 DUP1 REVERT JUMPDEST POP PUSH2 0xCDA PUSH1 0x4 DUP1 CALLDATASIZE SUB DUP2 ADD SWAP1 PUSH2 0xCD5 SWAP2 SWAP1 PUSH2 0x50E3 JUMP JUMPDEST PUSH2 0x28C2 JUMP JUMPDEST PUSH1 0x40 MLOAD PUSH2 0xCE7 SWAP2 SWAP1 PUSH2 0x4F1D JUMP JUMPDEST PUSH1 0x40 MLOAD DUP1 SWAP2 SUB SWAP1 RETURN JUMPDEST CALLVALUE DUP1 ISZERO PUSH2 0xCFC JUMPI PUSH1 0x0 DUP1 REVERT JUMPDEST POP PUSH2 0xD05 PUSH2 0x28D9 JUMP JUMPDEST PUSH1 0x40 MLOAD PUSH2 0xD12 SWAP2 SWAP1 PUSH2 0x4F91 JUMP JUMPDEST PUSH1 0x40 MLOAD DUP1 SWAP2 SUB SWAP1 RETURN JUMPDEST CALLVALUE DUP1 ISZERO PUSH2 0xD27 JUMPI PUSH1 0x0 DUP1 REVERT JUMPDEST POP PUSH2 0xD42 PUSH1 0x4 DUP1 CALLDATASIZE SUB DUP2 ADD SWAP1 PUSH2 0xD3D SWAP2 SWAP1 PUSH2 0x549E JUMP JUMPDEST PUSH2 0x28DF JUMP JUMPDEST STOP JUMPDEST CALLVALUE DUP1 ISZERO PUSH2 0xD50 JUMPI PUSH1 0x0 DUP1 REVERT JUMPDEST POP PUSH2 0xD59 PUSH2 0x2B4D JUMP JUMPDEST PUSH1 0x40 MLOAD PUSH2 0xD66 SWAP2 SWAP1 PUSH2 0x4F91 JUMP JUMPDEST PUSH1 0x40 MLOAD DUP1 SWAP2 SUB SWAP1 RETURN JUMPDEST CALLVALUE DUP1 ISZERO PUSH2 0xD7B JUMPI PUSH1 0x0 DUP1 REVERT JUMPDEST POP PUSH2 0xD84 PUSH2 0x2B53 JUMP JUMPDEST PUSH1 0x40 MLOAD PUSH2 0xD91 SWAP2 SWAP1 PUSH2 0x4F91 JUMP JUMPDEST PUSH1 0x40 MLOAD DUP1 SWAP2 SUB SWAP1 RETURN JUMPDEST CALLVALUE DUP1 ISZERO PUSH2 0xDA6 JUMPI PUSH1 0x0 DUP1 REVERT JUMPDEST POP PUSH2 0xDAF PUSH2 0x2B59 JUMP JUMPDEST PUSH1 0x40 MLOAD PUSH2 0xDBC SWAP2 SWAP1 PUSH2 0x4F1D JUMP JUMPDEST PUSH1 0x40 MLOAD DUP1 SWAP2 SUB SWAP1 RETURN JUMPDEST CALLVALUE DUP1 ISZERO PUSH2 0xDD1 JUMPI PUSH1 0x0 DUP1 REVERT JUMPDEST POP PUSH2 0xDDA PUSH2 0x2B6C JUMP JUMPDEST PUSH1 0x40 MLOAD PUSH2 0xDE7 SWAP2 SWAP1 PUSH2 0x54EB JUMP JUMPDEST PUSH1 0x40 MLOAD DUP1 SWAP2 SUB SWAP1 RETURN JUMPDEST CALLVALUE DUP1 ISZERO PUSH2 0xDFC JUMPI PUSH1 0x0 DUP1 REVERT JUMPDEST POP PUSH2 0xE17 PUSH1 0x4 DUP1 CALLDATASIZE SUB DUP2 ADD SWAP1 PUSH2 0xE12 SWAP2 SWAP1 PUSH2 0x4ED5 JUMP JUMPDEST PUSH2 0x2B82 JUMP JUMPDEST PUSH1 0x40 MLOAD PUSH2 0xE25 SWAP3 SWAP2 SWAP1 PUSH2 0x5506 JUMP JUMPDEST PUSH1 0x40 MLOAD DUP1 SWAP2 SUB SWAP1 RETURN JUMPDEST CALLVALUE DUP1 ISZERO PUSH2 0xE3A JUMPI PUSH1 0x0 DUP1 REVERT JUMPDEST POP PUSH2 0xE43 PUSH2 0x2C8F JUMP JUMPDEST PUSH1 0x40 MLOAD PUSH2 0xE50 SWAP2 SWAP1 PUSH2 0x4F91 JUMP JUMPDEST PUSH1 0x40 MLOAD DUP1 SWAP2 SUB SWAP1 RETURN JUMPDEST CALLVALUE DUP1 ISZERO PUSH2 0xE65 JUMPI PUSH1 0x0 DUP1 REVERT JUMPDEST POP PUSH2 0xE80 PUSH1 0x4 DUP1 CALLDATASIZE SUB DUP2 ADD SWAP1 PUSH2 0xE7B SWAP2 SWAP1 PUSH2 0x4ED5 JUMP JUMPDEST PUSH2 0x2C95 JUMP JUMPDEST PUSH1 0x40 MLOAD PUSH2 0xE8D SWAP2 SWAP1 PUSH2 0x4F1D JUMP JUMPDEST PUSH1 0x40 MLOAD DUP1 SWAP2 SUB SWAP1 RETURN JUMPDEST CALLVALUE DUP1 ISZERO PUSH2 0xEA2 JUMPI PUSH1 0x0 DUP1 REVERT JUMPDEST POP PUSH2 0xEAB PUSH2 0x2CB5 JUMP JUMPDEST PUSH1 0x40 MLOAD PUSH2 0xEB8 SWAP2 SWAP1 PUSH2 0x4F1D JUMP JUMPDEST PUSH1 0x40 MLOAD DUP1 SWAP2 SUB SWAP1 RETURN JUMPDEST CALLVALUE DUP1 ISZERO PUSH2 0xECD JUMPI PUSH1 0x0 DUP1 REVERT JUMPDEST POP PUSH2 0xED6 PUSH2 0x2CC8 JUMP JUMPDEST PUSH1 0x40 MLOAD PUSH2 0xEE3 SWAP2 SWAP1 PUSH2 0x4F1D JUMP JUMPDEST PUSH1 0x40 MLOAD DUP1 SWAP2 SUB SWAP1 RETURN JUMPDEST CALLVALUE DUP1 ISZERO PUSH2 0xEF8 JUMPI PUSH1 0x0 DUP1 REVERT JUMPDEST POP PUSH2 0xF01 PUSH2 0x2CDB JUMP JUMPDEST PUSH1 0x40 MLOAD PUSH2 0xF0E SWAP2 SWAP1 PUSH2 0x4F91 JUMP JUMPDEST PUSH1 0x40 MLOAD DUP1 SWAP2 SUB SWAP1 RETURN JUMPDEST CALLVALUE DUP1 ISZERO PUSH2 0xF23 JUMPI PUSH1 0x0 DUP1 REVERT JUMPDEST POP PUSH2 0xF2C PUSH2 0x2CE1 JUMP JUMPDEST PUSH1 0x40 MLOAD PUSH2 0xF39 SWAP2 SWAP1 PUSH2 0x4F91 JUMP JUMPDEST PUSH1 0x40 MLOAD DUP1 SWAP2 SUB SWAP1 RETURN JUMPDEST CALLVALUE DUP1 ISZERO PUSH2 0xF4E JUMPI PUSH1 0x0 DUP1 REVERT JUMPDEST POP PUSH2 0xF57 PUSH2 0x2CE7 JUMP JUMPDEST PUSH1 0x40 MLOAD PUSH2 0xF64 SWAP2 SWAP1 PUSH2 0x4F1D JUMP JUMPDEST PUSH1 0x40 MLOAD DUP1 SWAP2 SUB SWAP1 RETURN JUMPDEST CALLVALUE DUP1 ISZERO PUSH2 0xF79 JUMPI PUSH1 0x0 DUP1 REVERT JUMPDEST POP PUSH2 0xF82 PUSH2 0x2CFA JUMP JUMPDEST PUSH1 0x40 MLOAD PUSH2 0xF8F SWAP2 SWAP1 PUSH2 0x4F1D JUMP JUMPDEST PUSH1 0x40 MLOAD DUP1 SWAP2 SUB SWAP1 RETURN JUMPDEST CALLVALUE DUP1 ISZERO PUSH2 0xFA4 JUMPI PUSH1 0x0 DUP1 REVERT JUMPDEST POP PUSH2 0xFBF PUSH1 0x4 DUP1 CALLDATASIZE SUB DUP2 ADD SWAP1 PUSH2 0xFBA SWAP2 SWAP1 PUSH2 0x4F38 JUMP JUMPDEST PUSH2 0x2D0D JUMP JUMPDEST PUSH1 0x40 MLOAD PUSH2 0xFCC SWAP2 SWAP1 PUSH2 0x4F91 JUMP JUMPDEST PUSH1 0x40 MLOAD DUP1 SWAP2 SUB SWAP1 RETURN JUMPDEST CALLVALUE DUP1 ISZERO PUSH2 0xFE1 JUMPI PUSH1 0x0 DUP1 REVERT JUMPDEST POP PUSH2 0xFEA PUSH2 0x2D94 JUMP JUMPDEST PUSH1 0x40 MLOAD PUSH2 0xFF7 SWAP2 SWAP1 PUSH2 0x4F91 JUMP JUMPDEST PUSH1 0x40 MLOAD DUP1 SWAP2 SUB SWAP1 RETURN JUMPDEST CALLVALUE DUP1 ISZERO PUSH2 0x100C JUMPI PUSH1 0x0 DUP1 REVERT JUMPDEST POP PUSH2 0x1015 PUSH2 0x2D9A JUMP JUMPDEST PUSH1 0x40 MLOAD PUSH2 0x1022 SWAP2 SWAP1 PUSH2 0x52F1 JUMP JUMPDEST PUSH1 0x40 MLOAD DUP1 SWAP2 SUB SWAP1 RETURN JUMPDEST CALLVALUE DUP1 ISZERO PUSH2 0x1037 JUMPI PUSH1 0x0 DUP1 REVERT JUMPDEST POP PUSH2 0x1052 PUSH1 0x4 DUP1 CALLDATASIZE SUB DUP2 ADD SWAP1 PUSH2 0x104D SWAP2 SWAP1 PUSH2 0x5123 JUMP JUMPDEST PUSH2 0x2DC0 JUMP JUMPDEST STOP JUMPDEST CALLVALUE DUP1 ISZERO PUSH2 0x1060 JUMPI PUSH1 0x0 DUP1 REVERT JUMPDEST POP PUSH2 0x107B PUSH1 0x4 DUP1 CALLDATASIZE SUB DUP2 ADD SWAP1 PUSH2 0x1076 SWAP2 SWAP1 PUSH2 0x5123 JUMP JUMPDEST PUSH2 0x2EA3 JUMP JUMPDEST PUSH1 0x40 MLOAD PUSH2 0x1088 SWAP2 SWAP1 PUSH2 0x4F91 JUMP JUMPDEST PUSH1 0x40 MLOAD DUP1 SWAP2 SUB SWAP1 RETURN JUMPDEST CALLVALUE DUP1 ISZERO PUSH2 0x109D JUMPI PUSH1 0x0 DUP1 REVERT JUMPDEST POP PUSH2 0x10A6 PUSH2 0x2FF5 JUMP JUMPDEST PUSH1 0x40 MLOAD PUSH2 0x10B3 SWAP2 SWAP1 PUSH2 0x52F1 JUMP JUMPDEST PUSH1 0x40 MLOAD DUP1 SWAP2 SUB SWAP1 RETURN JUMPDEST CALLVALUE DUP1 ISZERO PUSH2 0x10C8 JUMPI PUSH1 0x0 DUP1 REVERT JUMPDEST POP PUSH2 0x10E3 PUSH1 0x4 DUP1 CALLDATASIZE SUB DUP2 ADD SWAP1 PUSH2 0x10DE SWAP2 SWAP1 PUSH2 0x4ED5 JUMP JUMPDEST PUSH2 0x301B JUMP JUMPDEST STOP JUMPDEST PUSH2 0x10ED PUSH2 0x31DC JUMP JUMPDEST PUSH20 0xFFFFFFFFFFFFFFFFFFFFFFFFFFFFFFFFFFFFFFFF AND PUSH1 0x0 DUP1 SLOAD SWAP1 PUSH2 0x100 EXP SWAP1 DIV PUSH20 0xFFFFFFFFFFFFFFFFFFFFFFFFFFFFFFFFFFFFFFFF AND PUSH20 0xFFFFFFFFFFFFFFFFFFFFFFFFFFFFFFFFFFFFFFFF AND EQ PUSH2 0x117A JUMPI PUSH1 0x40 MLOAD PUSH32 0x8C379A000000000000000000000000000000000000000000000000000000000 DUP2 MSTORE PUSH1 0x4 ADD PUSH2 0x1171 SWAP1 PUSH2 0x557B JUMP JUMPDEST PUSH1 0x40 MLOAD DUP1 SWAP2 SUB SWAP1 REVERT JUMPDEST PUSH1 0x0 PUSH1 0xD SLOAD EQ PUSH2 0x11BF JUMPI PUSH1 0x40 MLOAD PUSH32 0x8C379A000000000000000000000000000000000000000000000000000000000 DUP2 MSTORE PUSH1 0x4 ADD PUSH2 0x11B6 SWAP1 PUSH2 0x55E7 JUMP JUMPDEST PUSH1 0x40 MLOAD DUP1 SWAP2 SUB SWAP1 REVERT JUMPDEST NUMBER PUSH1 0xD DUP2 SWAP1 SSTORE POP JUMP JUMPDEST PUSH1 0x1A PUSH1 0x20 MSTORE DUP1 PUSH1 0x0 MSTORE PUSH1 0x40 PUSH1 0x0 KECCAK256 PUSH1 0x0 SWAP2 POP SLOAD SWAP1 PUSH2 0x100 EXP SWAP1 DIV PUSH1 0xFF AND DUP2 JUMP JUMPDEST PUSH1 0x16 PUSH1 0x20 MSTORE DUP2 PUSH1 0x0 MSTORE PUSH1 0x40 PUSH1 0x0 KECCAK256 PUSH1 0x20 MSTORE DUP1 PUSH1 0x0 MSTORE PUSH1 0x40 PUSH1 0x0 KECCAK256 PUSH1 0x0 SWAP2 POP SWAP2 POP POP SLOAD DUP2 JUMP JUMPDEST PUSH1 0x0 PUSH1 0x19 SWAP1 SLOAD SWAP1 PUSH2 0x100 EXP SWAP1 DIV PUSH1 0xFF AND DUP2 JUMP JUMPDEST PUSH2 0x1228 PUSH2 0x31DC JUMP JUMPDEST PUSH20 0xFFFFFFFFFFFFFFFFFFFFFFFFFFFFFFFFFFFFFFFF AND PUSH1 0x0 DUP1 SLOAD SWAP1 PUSH2 0x100 EXP SWAP1 DIV PUSH20 0xFFFFFFFFFFFFFFFFFFFFFFFFFFFFFFFFFFFFFFFF AND PUSH20 0xFFFFFFFFFFFFFFFFFFFFFFFFFFFFFFFFFFFFFFFF AND EQ PUSH2 0x12B5 JUMPI PUSH1 0x40 MLOAD PUSH32 0x8C379A000000000000000000000000000000000000000000000000000000000 DUP2 MSTORE PUSH1 0x4 ADD PUSH2 0x12AC SWAP1 PUSH2 0x557B JUMP JUMPDEST PUSH1 0x40 MLOAD DUP1 SWAP2 SUB SWAP1 REVERT JUMPDEST PUSH1 0x0 DUP1 PUSH1 0x18 PUSH2 0x100 EXP DUP2 SLOAD DUP2 PUSH1 0xFF MUL NOT AND SWAP1 DUP4 ISZERO ISZERO MUL OR SWAP1 SSTORE POP JUMP JUMPDEST PUSH1 0xE DUP1 SLOAD PUSH2 0x12DE SWAP1 PUSH2 0x5636 JUMP JUMPDEST DUP1 PUSH1 0x1F ADD PUSH1 0x20 DUP1 SWAP2 DIV MUL PUSH1 0x20 ADD PUSH1 0x40 MLOAD SWAP1 DUP2 ADD PUSH1 0x40 MSTORE DUP1 SWAP3 SWAP2 SWAP1 DUP2 DUP2 MSTORE PUSH1 0x20 ADD DUP3 DUP1 SLOAD PUSH2 0x130A SWAP1 PUSH2 0x5636 JUMP JUMPDEST DUP1 ISZERO PUSH2 0x1357 JUMPI DUP1 PUSH1 0x1F LT PUSH2 0x132C JUMPI PUSH2 0x100 DUP1 DUP4 SLOAD DIV MUL DUP4 MSTORE SWAP2 PUSH1 0x20 ADD SWAP2 PUSH2 0x1357 JUMP JUMPDEST DUP3 ADD SWAP2 SWAP1 PUSH1 0x0 MSTORE PUSH1 0x20 PUSH1 0x0 KECCAK256 SWAP1 JUMPDEST DUP2 SLOAD DUP2 MSTORE SWAP1 PUSH1 0x1 ADD SWAP1 PUSH1 0x20 ADD DUP1 DUP4 GT PUSH2 0x133A JUMPI DUP3 SWAP1 SUB PUSH1 0x1F AND DUP3 ADD SWAP2 JUMPDEST POP POP POP POP POP DUP2 JUMP JUMPDEST PUSH2 0x1367 PUSH2 0x31DC JUMP JUMPDEST PUSH20 0xFFFFFFFFFFFFFFFFFFFFFFFFFFFFFFFFFFFFFFFF AND PUSH1 0x0 DUP1 SLOAD SWAP1 PUSH2 0x100 EXP SWAP1 DIV PUSH20 0xFFFFFFFFFFFFFFFFFFFFFFFFFFFFFFFFFFFFFFFF AND PUSH20 0xFFFFFFFFFFFFFFFFFFFFFFFFFFFFFFFFFFFFFFFF AND EQ PUSH2 0x13F4 JUMPI PUSH1 0x40 MLOAD PUSH32 0x8C379A000000000000000000000000000000000000000000000000000000000 DUP2 MSTORE PUSH1 0x4 ADD PUSH2 0x13EB SWAP1 PUSH2 0x557B JUMP JUMPDEST PUSH1 0x40 MLOAD DUP1 SWAP2 SUB SWAP1 REVERT JUMPDEST DUP1 PUSH1 0x1C PUSH1 0x14 PUSH2 0x100 EXP DUP2 SLOAD DUP2 PUSH1 0xFF MUL NOT AND SWAP1 DUP4 ISZERO ISZERO MUL OR SWAP1 SSTORE POP POP JUMP JUMPDEST PUSH1 0x0 PUSH2 0x141E CALLER DUP5 DUP5 PUSH2 0x31E4 JUMP JUMPDEST PUSH1 0x1 SWAP1 POP SWAP3 SWAP2 POP POP JUMP JUMPDEST PUSH1 0x0 DUP1 PUSH1 0x15 PUSH1 0x0 PUSH1 0x1B PUSH1 0x0 SWAP1 SLOAD SWAP1 PUSH2 0x100 EXP SWAP1 DIV PUSH20 0xFFFFFFFFFFFFFFFFFFFFFFFFFFFFFFFFFFFFFFFF AND PUSH20 0xFFFFFFFFFFFFFFFFFFFFFFFFFFFFFFFFFFFFFFFF AND PUSH20 0xFFFFFFFFFFFFFFFFFFFFFFFFFFFFFFFFFFFFFFFF AND DUP2 MSTORE PUSH1 0x20 ADD SWAP1 DUP2 MSTORE PUSH1 0x20 ADD PUSH1 0x0 KECCAK256 SLOAD SWAP1 POP PUSH1 0x0 DUP2 PUSH20 0x118427B3B4A05BC8A8A4DE845986800000000000 PUSH2 0x14B1 SWAP2 SWAP1 PUSH2 0x56C5 JUMP JUMPDEST SWAP1 POP PUSH1 0x0 DUP3 PUSH8 0xDE0B6B3A7640000 DUP4 PUSH2 0x14CA SWAP2 SWAP1 PUSH2 0x56F6 JUMP JUMPDEST PUSH2 0x14D4 SWAP2 SWAP1 PUSH2 0x56C5 JUMP JUMPDEST SWAP1 POP PUSH1 0x0 DUP6 DUP5 PUSH2 0x14E4 SWAP2 SWAP1 PUSH2 0x5738 JUMP JUMPDEST SWAP1 POP PUSH1 0x0 DUP2 PUSH20 0x118427B3B4A05BC8A8A4DE845986800000000000 PUSH2 0x1508 SWAP2 SWAP1 PUSH2 0x56C5 JUMP JUMPDEST SWAP1 POP PUSH1 0x0 DUP3 PUSH8 0xDE0B6B3A7640000 DUP4 PUSH2 0x1521 SWAP2 SWAP1 PUSH2 0x56F6 JUMP JUMPDEST PUSH2 0x152B SWAP2 SWAP1 PUSH2 0x56C5 JUMP JUMPDEST SWAP1 POP PUSH1 0x1 DUP5 PUSH2 0x2710 DUP7 DUP5 PUSH2 0x153F SWAP2 SWAP1 PUSH2 0x5738 JUMP JUMPDEST PUSH2 0x1549 SWAP2 SWAP1 PUSH2 0x56F6 JUMP JUMPDEST PUSH2 0x1553 SWAP2 SWAP1 PUSH2 0x56C5 JUMP JUMPDEST PUSH2 0x155D SWAP2 SWAP1 PUSH2 0x576C JUMP JUMPDEST SWAP7 POP POP POP POP POP POP POP SWAP2 SWAP1 POP JUMP JUMPDEST PUSH2 0x1572 PUSH2 0x31DC JUMP JUMPDEST PUSH20 0xFFFFFFFFFFFFFFFFFFFFFFFFFFFFFFFFFFFFFFFF AND PUSH1 0x0 DUP1 SLOAD SWAP1 PUSH2 0x100 EXP SWAP1 DIV PUSH20 0xFFFFFFFFFFFFFFFFFFFFFFFFFFFFFFFFFFFFFFFF AND PUSH20 0xFFFFFFFFFFFFFFFFFFFFFFFFFFFFFFFFFFFFFFFF AND EQ PUSH2 0x15FF JUMPI PUSH1 0x40 MLOAD PUSH32 0x8C379A000000000000000000000000000000000000000000000000000000000 DUP2 MSTORE PUSH1 0x4 ADD PUSH2 0x15F6 SWAP1 PUSH2 0x557B JUMP JUMPDEST PUSH1 0x40 MLOAD DUP1 SWAP2 SUB SWAP1 REVERT JUMPDEST PUSH1 0x0 DUP1 PUSH1 0x1A PUSH2 0x100 EXP DUP2 SLOAD DUP2 PUSH1 0xFF MUL NOT AND SWAP1 DUP4 ISZERO ISZERO MUL OR SWAP1 SSTORE POP JUMP JUMPDEST PUSH2 0x1623 PUSH2 0x31DC JUMP JUMPDEST PUSH20 0xFFFFFFFFFFFFFFFFFFFFFFFFFFFFFFFFFFFFFFFF AND PUSH1 0x0 DUP1 SLOAD SWAP1 PUSH2 0x100 EXP SWAP1 DIV PUSH20 0xFFFFFFFFFFFFFFFFFFFFFFFFFFFFFFFFFFFFFFFF AND PUSH20 0xFFFFFFFFFFFFFFFFFFFFFFFFFFFFFFFFFFFFFFFF AND EQ PUSH2 0x16B0 JUMPI PUSH1 0x40 MLOAD PUSH32 0x8C379A000000000000000000000000000000000000000000000000000000000 DUP2 MSTORE PUSH1 0x4 ADD PUSH2 0x16A7 SWAP1 PUSH2 0x557B JUMP JUMPDEST PUSH1 0x40 MLOAD DUP1 SWAP2 SUB SWAP1 REVERT JUMPDEST DUP1 PUSH1 0x9 DUP2 SWAP1 SSTORE POP POP JUMP JUMPDEST PUSH2 0x16C2 PUSH2 0x31DC JUMP JUMPDEST PUSH20 0xFFFFFFFFFFFFFFFFFFFFFFFFFFFFFFFFFFFFFFFF AND PUSH1 0x0 DUP1 SLOAD SWAP1 PUSH2 0x100 EXP SWAP1 DIV PUSH20 0xFFFFFFFFFFFFFFFFFFFFFFFFFFFFFFFFFFFFFFFF AND PUSH20 0xFFFFFFFFFFFFFFFFFFFFFFFFFFFFFFFFFFFFFFFF AND EQ PUSH2 0x174F JUMPI PUSH1 0x40 MLOAD PUSH32 0x8C379A000000000000000000000000000000000000000000000000000000000 DUP2 MSTORE PUSH1 0x4 ADD PUSH2 0x1746 SWAP1 PUSH2 0x557B JUMP JUMPDEST PUSH1 0x40 MLOAD DUP1 SWAP2 SUB SWAP1 REVERT JUMPDEST PUSH1 0x0 JUMPDEST DUP4 DUP4 SWAP1 POP DUP2 LT ISZERO PUSH2 0x17EE JUMPI DUP2 PUSH1 0x1A PUSH1 0x0 DUP7 DUP7 DUP6 DUP2 DUP2 LT PUSH2 0x1775 JUMPI PUSH2 0x1774 PUSH2 0x57A0 JUMP JUMPDEST JUMPDEST SWAP1 POP PUSH1 0x20 MUL ADD PUSH1 0x20 DUP2 ADD SWAP1 PUSH2 0x178A SWAP2 SWAP1 PUSH2 0x4ED5 JUMP JUMPDEST PUSH20 0xFFFFFFFFFFFFFFFFFFFFFFFFFFFFFFFFFFFFFFFF AND PUSH20 0xFFFFFFFFFFFFFFFFFFFFFFFFFFFFFFFFFFFFFFFF AND DUP2 MSTORE PUSH1 0x20 ADD SWAP1 DUP2 MSTORE PUSH1 0x20 ADD PUSH1 0x0 KECCAK256 PUSH1 0x0 PUSH2 0x100 EXP DUP2 SLOAD DUP2 PUSH1 0xFF MUL NOT AND SWAP1 DUP4 ISZERO ISZERO MUL OR SWAP1 SSTORE POP DUP1 DUP1 PUSH2 0x17E6 SWAP1 PUSH2 0x57CF JUMP JUMPDEST SWAP2 POP POP PUSH2 0x1752 JUMP JUMPDEST POP POP POP POP JUMP JUMPDEST PUSH1 0x0 PUSH1 0x14 SWAP1 SLOAD SWAP1 PUSH2 0x100 EXP SWAP1 DIV PUSH1 0xFF AND DUP2 JUMP JUMPDEST PUSH1 0x5 SLOAD DUP2 JUMP JUMPDEST PUSH1 0x11 SLOAD DUP2 JUMP JUMPDEST PUSH1 0x1C PUSH1 0x14 SWAP1 SLOAD SWAP1 PUSH2 0x100 EXP SWAP1 DIV PUSH1 0xFF AND DUP2 JUMP JUMPDEST PUSH1 0x18 PUSH1 0x0 SWAP1 SLOAD SWAP1 PUSH2 0x100 EXP SWAP1 DIV PUSH20 0xFFFFFFFFFFFFFFFFFFFFFFFFFFFFFFFFFFFFFFFF AND DUP2 JUMP JUMPDEST PUSH1 0x0 PUSH2 0x1859 DUP5 DUP5 DUP5 PUSH2 0x32CF JUMP JUMPDEST PUSH1 0x0 NOT PUSH1 0x16 PUSH1 0x0 DUP7 PUSH20 0xFFFFFFFFFFFFFFFFFFFFFFFFFFFFFFFFFFFFFFFF AND PUSH20 0xFFFFFFFFFFFFFFFFFFFFFFFFFFFFFFFFFFFFFFFF AND DUP2 MSTORE PUSH1 0x20 ADD SWAP1 DUP2 MSTORE PUSH1 0x20 ADD PUSH1 0x0 KECCAK256 PUSH1 0x0 CALLER PUSH20 0xFFFFFFFFFFFFFFFFFFFFFFFFFFFFFFFFFFFFFFFF AND PUSH20 0xFFFFFFFFFFFFFFFFFFFFFFFFFFFFFFFFFFFFFFFF AND DUP2 MSTORE PUSH1 0x20 ADD SWAP1 DUP2 MSTORE PUSH1 0x20 ADD PUSH1 0x0 KECCAK256 SLOAD EQ PUSH2 0x19E7 JUMPI DUP2 PUSH1 0x16 PUSH1 0x0 DUP7 PUSH20 0xFFFFFFFFFFFFFFFFFFFFFFFFFFFFFFFFFFFFFFFF AND PUSH20 0xFFFFFFFFFFFFFFFFFFFFFFFFFFFFFFFFFFFFFFFF AND DUP2 MSTORE PUSH1 0x20 ADD SWAP1 DUP2 MSTORE PUSH1 0x20 ADD PUSH1 0x0 KECCAK256 PUSH1 0x0 CALLER PUSH20 0xFFFFFFFFFFFFFFFFFFFFFFFFFFFFFFFFFFFFFFFF AND PUSH20 0xFFFFFFFFFFFFFFFFFFFFFFFFFFFFFFFFFFFFFFFF AND DUP2 MSTORE PUSH1 0x20 ADD SWAP1 DUP2 MSTORE PUSH1 0x20 ADD PUSH1 0x0 KECCAK256 SLOAD PUSH2 0x1966 SWAP2 SWAP1 PUSH2 0x5738 JUMP JUMPDEST PUSH1 0x16 PUSH1 0x0 DUP7 PUSH20 0xFFFFFFFFFFFFFFFFFFFFFFFFFFFFFFFFFFFFFFFF AND PUSH20 0xFFFFFFFFFFFFFFFFFFFFFFFFFFFFFFFFFFFFFFFF AND DUP2 MSTORE PUSH1 0x20 ADD SWAP1 DUP2 MSTORE PUSH1 0x20 ADD PUSH1 0x0 KECCAK256 PUSH1 0x0 CALLER PUSH20 0xFFFFFFFFFFFFFFFFFFFFFFFFFFFFFFFFFFFFFFFF AND PUSH20 0xFFFFFFFFFFFFFFFFFFFFFFFFFFFFFFFFFFFFFFFF AND DUP2 MSTORE PUSH1 0x20 ADD SWAP1 DUP2 MSTORE PUSH1 0x20 ADD PUSH1 0x0 KECCAK256 DUP2 SWAP1 SSTORE POP JUMPDEST PUSH1 0x1 SWAP1 POP SWAP4 SWAP3 POP POP POP JUMP JUMPDEST PUSH1 0x9 SLOAD DUP2 JUMP JUMPDEST PUSH1 0x10 SLOAD DUP2 JUMP JUMPDEST PUSH1 0x6 SLOAD DUP2 JUMP JUMPDEST PUSH1 0x19 PUSH1 0x20 MSTORE DUP1 PUSH1 0x0 MSTORE PUSH1 0x40 PUSH1 0x0 KECCAK256 PUSH1 0x0 SWAP2 POP SLOAD SWAP1 PUSH2 0x100 EXP SWAP1 DIV PUSH1 0xFF AND DUP2 JUMP JUMPDEST PUSH1 0x1B PUSH1 0x0 SWAP1 SLOAD SWAP1 PUSH2 0x100 EXP SWAP1 DIV PUSH20 0xFFFFFFFFFFFFFFFFFFFFFFFFFFFFFFFFFFFFFFFF AND DUP2 JUMP JUMPDEST PUSH1 0x12 PUSH1 0x1 SWAP1 SLOAD SWAP1 PUSH2 0x100 EXP SWAP1 DIV PUSH2 0xFFFF AND DUP2 JUMP JUMPDEST PUSH1 0x0 PUSH2 0x1ABD PUSH1 0x13 PUSH1 0x0 DUP5 PUSH20 0xFFFFFFFFFFFFFFFFFFFFFFFFFFFFFFFFFFFFFFFF AND PUSH20 0xFFFFFFFFFFFFFFFFFFFFFFFFFFFFFFFFFFFFFFFF AND DUP2 MSTORE PUSH1 0x20 ADD SWAP1 DUP2 MSTORE PUSH1 0x20 ADD PUSH1 0x0 KECCAK256 PUSH1 0x0 ADD PUSH1 0x0 SWAP1 SLOAD SWAP1 PUSH2 0x100 EXP SWAP1 DIV PUSH2 0xFFFF AND PUSH2 0xFFFF AND PUSH2 0x2EA3 JUMP JUMPDEST SWAP1 POP SWAP2 SWAP1 POP JUMP JUMPDEST PUSH1 0x0 PUSH1 0x17 PUSH1 0x0 DUP4 PUSH20 0xFFFFFFFFFFFFFFFFFFFFFFFFFFFFFFFFFFFFFFFF AND PUSH20 0xFFFFFFFFFFFFFFFFFFFFFFFFFFFFFFFFFFFFFFFF AND DUP2 MSTORE PUSH1 0x20 ADD SWAP1 DUP2 MSTORE PUSH1 0x20 ADD PUSH1 0x0 KECCAK256 PUSH1 0x0 SWAP1 SLOAD SWAP1 PUSH2 0x100 EXP SWAP1 DIV PUSH1 0xFF AND DUP1 ISZERO PUSH2 0x1B69 JUMPI POP PUSH1 0x19 PUSH1 0x0 DUP4 PUSH20 0xFFFFFFFFFFFFFFFFFFFFFFFFFFFFFFFFFFFFFFFF AND PUSH20 0xFFFFFFFFFFFFFFFFFFFFFFFFFFFFFFFFFFFFFFFF AND DUP2 MSTORE PUSH1 0x20 ADD SWAP1 DUP2 MSTORE PUSH1 0x20 ADD PUSH1 0x0 KECCAK256 PUSH1 0x0 SWAP1 SLOAD SWAP1 PUSH2 0x100 EXP SWAP1 DIV PUSH1 0xFF AND ISZERO JUMPDEST ISZERO PUSH2 0x1B77 JUMPI PUSH1 0x1 SWAP1 POP PUSH2 0x1B7C JUMP JUMPDEST PUSH1 0x0 SWAP1 POP JUMPDEST SWAP2 SWAP1 POP JUMP JUMPDEST PUSH1 0xD SLOAD DUP2 JUMP JUMPDEST PUSH2 0x1B8F PUSH2 0x31DC JUMP JUMPDEST PUSH20 0xFFFFFFFFFFFFFFFFFFFFFFFFFFFFFFFFFFFFFFFF AND PUSH1 0x0 DUP1 SLOAD SWAP1 PUSH2 0x100 EXP SWAP1 DIV PUSH20 0xFFFFFFFFFFFFFFFFFFFFFFFFFFFFFFFFFFFFFFFF AND PUSH20 0xFFFFFFFFFFFFFFFFFFFFFFFFFFFFFFFFFFFFFFFF AND EQ PUSH2 0x1C1C JUMPI PUSH1 0x40 MLOAD PUSH32 0x8C379A000000000000000000000000000000000000000000000000000000000 DUP2 MSTORE PUSH1 0x4 ADD PUSH2 0x1C13 SWAP1 PUSH2 0x557B JUMP JUMPDEST PUSH1 0x40 MLOAD DUP1 SWAP2 SUB SWAP1 REVERT JUMPDEST DUP1 PUSH1 0x12 PUSH1 0x0 PUSH2 0x100 EXP DUP2 SLOAD DUP2 PUSH1 0xFF MUL NOT AND SWAP1 DUP4 ISZERO ISZERO MUL OR SWAP1 SSTORE POP PUSH32 0xD63187A8ABB5B4D1BB562E1163897386B0A88EE72E0799DD105BD0FD6F28706 DUP2 PUSH1 0x40 MLOAD PUSH2 0x1C65 SWAP2 SWAP1 PUSH2 0x4F1D JUMP JUMPDEST PUSH1 0x40 MLOAD DUP1 SWAP2 SUB SWAP1 LOG1 POP JUMP JUMPDEST PUSH1 0x0 PUSH1 0x16 SWAP1 SLOAD SWAP1 PUSH2 0x100 EXP SWAP1 DIV PUSH1 0xFF AND DUP2 JUMP JUMPDEST PUSH2 0x1C8B PUSH2 0x31DC JUMP JUMPDEST PUSH20 0xFFFFFFFFFFFFFFFFFFFFFFFFFFFFFFFFFFFFFFFF AND PUSH1 0x0 DUP1 SLOAD SWAP1 PUSH2 0x100 EXP SWAP1 DIV PUSH20 0xFFFFFFFFFFFFFFFFFFFFFFFFFFFFFFFFFFFFFFFF AND PUSH20 0xFFFFFFFFFFFFFFFFFFFFFFFFFFFFFFFFFFFFFFFF AND EQ PUSH2 0x1D18 JUMPI PUSH1 0x40 MLOAD PUSH32 0x8C379A000000000000000000000000000000000000000000000000000000000 DUP2 MSTORE PUSH1 0x4 ADD PUSH2 0x1D0F SWAP1 PUSH2 0x557B JUMP JUMPDEST PUSH1 0x40 MLOAD DUP1 SWAP2 SUB SWAP1 REVERT JUMPDEST PUSH1 0x0 PUSH1 0x17 SWAP1 SLOAD SWAP1 PUSH2 0x100 EXP SWAP1 DIV PUSH1 0xFF AND PUSH2 0x1D67 JUMPI PUSH1 0x40 MLOAD PUSH32 0x8C379A000000000000000000000000000000000000000000000000000000000 DUP2 MSTORE PUSH1 0x4 ADD PUSH2 0x1D5E SWAP1 PUSH2 0x5863 JUMP JUMPDEST PUSH1 0x40 MLOAD DUP1 SWAP2 SUB SWAP1 REVERT JUMPDEST PUSH1 0xC9 DUP4 DUP4 SWAP1 POP LT PUSH2 0x1D77 JUMPI PUSH1 0x0 DUP1 REVERT JUMPDEST PUSH1 0x0 JUMPDEST DUP4 DUP4 SWAP1 POP DUP2 LT ISZERO PUSH2 0x1E14 JUMPI DUP2 PUSH1 0x17 PUSH1 0x0 DUP7 DUP7 DUP6 DUP2 DUP2 LT PUSH2 0x1D9D JUMPI PUSH2 0x1D9C PUSH2 0x57A0 JUMP JUMPDEST JUMPDEST SWAP1 POP PUSH1 0x20 MUL ADD PUSH1 0x20 DUP2 ADD SWAP1 PUSH2 0x1DB2 SWAP2 SWAP1 PUSH2 0x4ED5 JUMP JUMPDEST PUSH20 0xFFFFFFFFFFFFFFFFFFFFFFFFFFFFFFFFFFFFFFFF AND PUSH20 0xFFFFFFFFFFFFFFFFFFFFFFFFFFFFFFFFFFFFFFFF AND DUP2 MSTORE PUSH1 0x20 ADD SWAP1 DUP2 MSTORE PUSH1 0x20 ADD PUSH1 0x0 KECCAK256 PUSH1 0x0 PUSH2 0x100 EXP DUP2 SLOAD DUP2 PUSH1 0xFF MUL NOT AND SWAP1 DUP4 ISZERO ISZERO MUL OR SWAP1 SSTORE POP DUP1 PUSH2 0x1E0D SWAP1 PUSH2 0x57CF JUMP JUMPDEST SWAP1 POP PUSH2 0x1D7A JUMP JUMPDEST POP POP POP POP JUMP JUMPDEST PUSH1 0x0 DUP1 PUSH1 0x5 SLOAD PUSH1 0x4 SLOAD PUSH1 0x3 SLOAD PUSH2 0x1E30 SWAP2 SWAP1 PUSH2 0x576C JUMP JUMPDEST PUSH2 0x1E3A SWAP2 SWAP1 PUSH2 0x576C JUMP JUMPDEST SWAP1 POP PUSH1 0x0 PUSH2 0x1E5B PUSH1 0x12 PUSH1 0x1 SWAP1 SLOAD SWAP1 PUSH2 0x100 EXP SWAP1 DIV PUSH2 0xFFFF AND PUSH2 0xFFFF AND PUSH2 0x2EA3 JUMP JUMPDEST SWAP1 POP PUSH1 0x0 PUSH2 0x2710 DUP4 DUP4 PUSH2 0x1E6E SWAP2 SWAP1 PUSH2 0x56F6 JUMP JUMPDEST PUSH2 0x1E78 SWAP2 SWAP1 PUSH2 0x56C5 JUMP JUMPDEST SWAP1 POP PUSH1 0x0 DUP2 DUP4 PUSH2 0x1E88 SWAP2 SWAP1 PUSH2 0x576C JUMP JUMPDEST SWAP1 POP PUSH1 0x0 PUSH1 0x15 PUSH1 0x0 PUSH1 0x1B PUSH1 0x0 SWAP1 SLOAD SWAP1 PUSH2 0x100 EXP SWAP1 DIV PUSH20 0xFFFFFFFFFFFFFFFFFFFFFFFFFFFFFFFFFFFFFFFF AND PUSH20 0xFFFFFFFFFFFFFFFFFFFFFFFFFFFFFFFFFFFFFFFF AND PUSH20 0xFFFFFFFFFFFFFFFFFFFFFFFFFFFFFFFFFFFFFFFF AND DUP2 MSTORE PUSH1 0x20 ADD SWAP1 DUP2 MSTORE PUSH1 0x20 ADD PUSH1 0x0 KECCAK256 SLOAD PUSH20 0x118427B3B4A05BC8A8A4DE845986800000000000 PUSH2 0x1F0D SWAP2 SWAP1 PUSH2 0x56C5 JUMP JUMPDEST SWAP1 POP PUSH1 0x0 DUP3 PUSH1 0x15 PUSH1 0x0 PUSH1 0x1B PUSH1 0x0 SWAP1 SLOAD SWAP1 PUSH2 0x100 EXP SWAP1 DIV PUSH20 0xFFFFFFFFFFFFFFFFFFFFFFFFFFFFFFFFFFFFFFFF AND PUSH20 0xFFFFFFFFFFFFFFFFFFFFFFFFFFFFFFFFFFFFFFFF AND PUSH20 0xFFFFFFFFFFFFFFFFFFFFFFFFFFFFFFFFFFFFFFFF AND DUP2 MSTORE PUSH1 0x20 ADD SWAP1 DUP2 MSTORE PUSH1 0x20 ADD PUSH1 0x0 KECCAK256 SLOAD PUSH2 0x1F7E SWAP2 SWAP1 PUSH2 0x5738 JUMP JUMPDEST PUSH20 0x118427B3B4A05BC8A8A4DE845986800000000000 PUSH2 0x1F9D SWAP2 SWAP1 PUSH2 0x56C5 JUMP JUMPDEST SWAP1 POP DUP2 DUP2 PUSH2 0x1FAB SWAP2 SWAP1 PUSH2 0x5738 JUMP JUMPDEST SWAP7 POP POP POP POP POP POP POP SWAP1 JUMP JUMPDEST PUSH1 0xC SLOAD DUP2 JUMP JUMPDEST PUSH2 0x1FC4 PUSH2 0x31DC JUMP JUMPDEST PUSH20 0xFFFFFFFFFFFFFFFFFFFFFFFFFFFFFFFFFFFFFFFF AND PUSH1 0x0 DUP1 SLOAD SWAP1 PUSH2 0x100 EXP SWAP1 DIV PUSH20 0xFFFFFFFFFFFFFFFFFFFFFFFFFFFFFFFFFFFFFFFF AND PUSH20 0xFFFFFFFFFFFFFFFFFFFFFFFFFFFFFFFFFFFFFFFF AND EQ PUSH2 0x2051 JUMPI PUSH1 0x40 MLOAD PUSH32 0x8C379A000000000000000000000000000000000000000000000000000000000 DUP2 MSTORE PUSH1 0x4 ADD PUSH2 0x2048 SWAP1 PUSH2 0x557B JUMP JUMPDEST PUSH1 0x40 MLOAD DUP1 SWAP2 SUB SWAP1 REVERT JUMPDEST PUSH1 0x0 DUP1 PUSH1 0x19 PUSH2 0x100 EXP DUP2 SLOAD DUP2 PUSH1 0xFF MUL NOT AND SWAP1 DUP4 ISZERO ISZERO MUL OR SWAP1 SSTORE POP JUMP JUMPDEST PUSH1 0x15 PUSH1 0x20 MSTORE DUP1 PUSH1 0x0 MSTORE PUSH1 0x40 PUSH1 0x0 KECCAK256 PUSH1 0x0 SWAP2 POP SWAP1 POP SLOAD DUP2 JUMP JUMPDEST PUSH1 0x0 PUSH1 0x15 PUSH1 0x0 DUP4 PUSH20 0xFFFFFFFFFFFFFFFFFFFFFFFFFFFFFFFFFFFFFFFF AND PUSH20 0xFFFFFFFFFFFFFFFFFFFFFFFFFFFFFFFFFFFFFFFF AND DUP2 MSTORE PUSH1 0x20 ADD SWAP1 DUP2 MSTORE PUSH1 0x20 ADD PUSH1 0x0 KECCAK256 SLOAD SWAP1 POP SWAP2 SWAP1 POP JUMP JUMPDEST PUSH2 0x20D6 PUSH2 0x31DC JUMP JUMPDEST PUSH20 0xFFFFFFFFFFFFFFFFFFFFFFFFFFFFFFFFFFFFFFFF AND PUSH1 0x0 DUP1 SLOAD SWAP1 PUSH2 0x100 EXP SWAP1 DIV PUSH20 0xFFFFFFFFFFFFFFFFFFFFFFFFFFFFFFFFFFFFFFFF AND PUSH20 0xFFFFFFFFFFFFFFFFFFFFFFFFFFFFFFFFFFFFFFFF AND EQ PUSH2 0x2163 JUMPI PUSH1 0x40 MLOAD PUSH32 0x8C379A000000000000000000000000000000000000000000000000000000000 DUP2 MSTORE PUSH1 0x4 ADD PUSH2 0x215A SWAP1 PUSH2 0x557B JUMP JUMPDEST PUSH1 0x40 MLOAD DUP1 SWAP2 SUB SWAP1 REVERT JUMPDEST PUSH2 0xDEAD PUSH20 0xFFFFFFFFFFFFFFFFFFFFFFFFFFFFFFFFFFFFFFFF AND PUSH1 0x0 DUP1 SLOAD SWAP1 PUSH2 0x100 EXP SWAP1 DIV PUSH20 0xFFFFFFFFFFFFFFFFFFFFFFFFFFFFFFFFFFFFFFFF AND PUSH20 0xFFFFFFFFFFFFFFFFFFFFFFFFFFFFFFFFFFFFFFFF AND PUSH32 0x8BE0079C531659141344CD1FD0A4F28419497F9722A3DAAFE3B4186F6B6457E0 PUSH1 0x40 MLOAD PUSH1 0x40 MLOAD DUP1 SWAP2 SUB SWAP1 LOG3 PUSH2 0xDEAD PUSH1 0x0 DUP1 PUSH2 0x100 EXP DUP2 SLOAD DUP2 PUSH20 0xFFFFFFFFFFFFFFFFFFFFFFFFFFFFFFFFFFFFFFFF MUL NOT AND SWAP1 DUP4 PUSH20 0xFFFFFFFFFFFFFFFFFFFFFFFFFFFFFFFFFFFFFFFF AND MUL OR SWAP1 SSTORE POP JUMP JUMPDEST PUSH1 0x13 PUSH1 0x20 MSTORE DUP1 PUSH1 0x0 MSTORE PUSH1 0x40 PUSH1 0x0 KECCAK256 PUSH1 0x0 SWAP2 POP SWAP1 POP DUP1 PUSH1 0x0 ADD PUSH1 0x0 SWAP1 SLOAD SWAP1 PUSH2 0x100 EXP SWAP1 DIV PUSH2 0xFFFF AND SWAP1 DUP1 PUSH1 0x0 ADD PUSH1 0x2 SWAP1 SLOAD SWAP1 PUSH2 0x100 EXP SWAP1 DIV PUSH4 0xFFFFFFFF AND SWAP1 POP DUP3 JUMP JUMPDEST PUSH2 0x226D PUSH2 0x31DC JUMP JUMPDEST PUSH20 0xFFFFFFFFFFFFFFFFFFFFFFFFFFFFFFFFFFFFFFFF AND PUSH1 0x0 DUP1 SLOAD SWAP1 PUSH2 0x100 EXP SWAP1 DIV PUSH20 0xFFFFFFFFFFFFFFFFFFFFFFFFFFFFFFFFFFFFFFFF AND PUSH20 0xFFFFFFFFFFFFFFFFFFFFFFFFFFFFFFFFFFFFFFFF AND EQ PUSH2 0x22FA JUMPI PUSH1 0x40 MLOAD PUSH32 0x8C379A000000000000000000000000000000000000000000000000000000000 DUP2 MSTORE PUSH1 0x4 ADD PUSH2 0x22F1 SWAP1 PUSH2 0x557B JUMP JUMPDEST PUSH1 0x40 MLOAD DUP1 SWAP2 SUB SWAP1 REVERT JUMPDEST DUP1 ISZERO PUSH2 0x2328 JUMPI PUSH1 0x8 SLOAD PUSH1 0x7 SLOAD PUSH1 0x6 SLOAD PUSH2 0x2313 SWAP2 SWAP1 PUSH2 0x576C JUMP JUMPDEST PUSH2 0x231D SWAP2 SWAP1 PUSH2 0x576C JUMP JUMPDEST PUSH1 0x1F DUP2 SWAP1 SSTORE POP PUSH2 0x2331 JUMP JUMPDEST PUSH1 0x0 PUSH1 0x1F DUP2 SWAP1 SSTORE POP JUMPDEST POP JUMP JUMPDEST PUSH1 0x8 SLOAD DUP2 JUMP JUMPDEST PUSH2 0x2342 PUSH2 0x31DC JUMP JUMPDEST PUSH20 0xFFFFFFFFFFFFFFFFFFFFFFFFFFFFFFFFFFFFFFFF AND PUSH1 0x0 DUP1 SLOAD SWAP1 PUSH2 0x100 EXP SWAP1 DIV PUSH20 0xFFFFFFFFFFFFFFFFFFFFFFFFFFFFFFFFFFFFFFFF AND PUSH20 0xFFFFFFFFFFFFFFFFFFFFFFFFFFFFFFFFFFFFFFFF AND EQ PUSH2 0x23CF JUMPI PUSH1 0x40 MLOAD PUSH32 0x8C379A000000000000000000000000000000000000000000000000000000000 DUP2 MSTORE PUSH1 0x4 ADD PUSH2 0x23C6 SWAP1 PUSH2 0x557B JUMP JUMPDEST PUSH1 0x40 MLOAD DUP1 SWAP2 SUB SWAP1 REVERT JUMPDEST DUP1 PUSH1 0xB DUP2 SWAP1 SSTORE POP POP JUMP JUMPDEST PUSH2 0x23E1 PUSH2 0x31DC JUMP JUMPDEST PUSH20 0xFFFFFFFFFFFFFFFFFFFFFFFFFFFFFFFFFFFFFFFF AND PUSH1 0x0 DUP1 SLOAD SWAP1 PUSH2 0x100 EXP SWAP1 DIV PUSH20 0xFFFFFFFFFFFFFFFFFFFFFFFFFFFFFFFFFFFFFFFF AND PUSH20 0xFFFFFFFFFFFFFFFFFFFFFFFFFFFFFFFFFFFFFFFF AND EQ PUSH2 0x246E JUMPI PUSH1 0x40 MLOAD PUSH32 0x8C379A000000000000000000000000000000000000000000000000000000000 DUP2 MSTORE PUSH1 0x4 ADD PUSH2 0x2465 SWAP1 PUSH2 0x557B JUMP JUMPDEST PUSH1 0x40 MLOAD DUP1 SWAP2 SUB SWAP1 REVERT JUMPDEST DUP1 PUSH1 0x2 PUSH1 0x0 PUSH2 0x100 EXP DUP2 SLOAD DUP2 PUSH20 0xFFFFFFFFFFFFFFFFFFFFFFFFFFFFFFFFFFFFFFFF MUL NOT AND SWAP1 DUP4 PUSH20 0xFFFFFFFFFFFFFFFFFFFFFFFFFFFFFFFFFFFFFFFF AND MUL OR SWAP1 SSTORE POP PUSH1 0x1 PUSH1 0x1A PUSH1 0x0 DUP4 PUSH20 0xFFFFFFFFFFFFFFFFFFFFFFFFFFFFFFFFFFFFFFFF AND PUSH20 0xFFFFFFFFFFFFFFFFFFFFFFFFFFFFFFFFFFFFFFFF AND DUP2 MSTORE PUSH1 0x20 ADD SWAP1 DUP2 MSTORE PUSH1 0x20 ADD PUSH1 0x0 KECCAK256 PUSH1 0x0 PUSH2 0x100 EXP DUP2 SLOAD DUP2 PUSH1 0xFF MUL NOT AND SWAP1 DUP4 ISZERO ISZERO MUL OR SWAP1 SSTORE POP POP JUMP JUMPDEST PUSH1 0x1C PUSH1 0x0 SWAP1 SLOAD SWAP1 PUSH2 0x100 EXP SWAP1 DIV PUSH20 0xFFFFFFFFFFFFFFFFFFFFFFFFFFFFFFFFFFFFFFFF AND DUP2 JUMP JUMPDEST PUSH1 0xA SLOAD DUP2 JUMP JUMPDEST PUSH1 0x0 DUP1 PUSH1 0x0 SWAP1 SLOAD SWAP1 PUSH2 0x100 EXP SWAP1 DIV PUSH20 0xFFFFFFFFFFFFFFFFFFFFFFFFFFFFFFFFFFFFFFFF AND SWAP1 POP SWAP1 JUMP JUMPDEST PUSH2 0x2567 PUSH2 0x31DC JUMP JUMPDEST PUSH20 0xFFFFFFFFFFFFFFFFFFFFFFFFFFFFFFFFFFFFFFFF AND PUSH1 0x0 DUP1 SLOAD SWAP1 PUSH2 0x100 EXP SWAP1 DIV PUSH20 0xFFFFFFFFFFFFFFFFFFFFFFFFFFFFFFFFFFFFFFFF AND PUSH20 0xFFFFFFFFFFFFFFFFFFFFFFFFFFFFFFFFFFFFFFFF AND EQ PUSH2 0x25F4 JUMPI PUSH1 0x40 MLOAD PUSH32 0x8C379A000000000000000000000000000000000000000000000000000000000 DUP2 MSTORE PUSH1 0x4 ADD PUSH2 0x25EB SWAP1 PUSH2 0x557B JUMP JUMPDEST PUSH1 0x40 MLOAD DUP1 SWAP2 SUB SWAP1 REVERT JUMPDEST PUSH2 0x9C4 DUP2 GT ISZERO PUSH2 0x2639 JUMPI PUSH1 0x40 MLOAD PUSH32 0x8C379A000000000000000000000000000000000000000000000000000000000 DUP2 MSTORE PUSH1 0x4 ADD PUSH2 0x2630 SWAP1 PUSH2 0x58CF JUMP JUMPDEST PUSH1 0x40 MLOAD DUP1 SWAP2 SUB SWAP1 REVERT JUMPDEST DUP1 PUSH1 0x1F DUP2 SWAP1 SSTORE POP POP JUMP JUMPDEST PUSH2 0x264B PUSH2 0x31DC JUMP JUMPDEST PUSH20 0xFFFFFFFFFFFFFFFFFFFFFFFFFFFFFFFFFFFFFFFF AND PUSH1 0x0 DUP1 SLOAD SWAP1 PUSH2 0x100 EXP SWAP1 DIV PUSH20 0xFFFFFFFFFFFFFFFFFFFFFFFFFFFFFFFFFFFFFFFF AND PUSH20 0xFFFFFFFFFFFFFFFFFFFFFFFFFFFFFFFFFFFFFFFF AND EQ PUSH2 0x26D8 JUMPI PUSH1 0x40 MLOAD PUSH32 0x8C379A000000000000000000000000000000000000000000000000000000000 DUP2 MSTORE PUSH1 0x4 ADD PUSH2 0x26CF SWAP1 PUSH2 0x557B JUMP JUMPDEST PUSH1 0x40 MLOAD DUP1 SWAP2 SUB SWAP1 REVERT JUMPDEST DUP2 PUSH1 0xA DUP2 SWAP1 SSTORE POP DUP1 PUSH1 0xC DUP2 SWAP1 SSTORE POP PUSH1 0xA SLOAD PUSH1 0xC SLOAD LT ISZERO PUSH2 0x272D JUMPI PUSH1 0x40 MLOAD PUSH32 0x8C379A000000000000000000000000000000000000000000000000000000000 DUP2 MSTORE PUSH1 0x4 ADD PUSH2 0x2724 SWAP1 PUSH2 0x5961 JUMP JUMPDEST PUSH1 0x40 MLOAD DUP1 SWAP2 SUB SWAP1 REVERT JUMPDEST POP POP JUMP JUMPDEST PUSH1 0xF DUP1 SLOAD PUSH2 0x273E SWAP1 PUSH2 0x5636 JUMP JUMPDEST DUP1 PUSH1 0x1F ADD PUSH1 0x20 DUP1 SWAP2 DIV MUL PUSH1 0x20 ADD PUSH1 0x40 MLOAD SWAP1 DUP2 ADD PUSH1 0x40 MSTORE DUP1 SWAP3 SWAP2 SWAP1 DUP2 DUP2 MSTORE PUSH1 0x20 ADD DUP3 DUP1 SLOAD PUSH2 0x276A SWAP1 PUSH2 0x5636 JUMP JUMPDEST DUP1 ISZERO PUSH2 0x27B7 JUMPI DUP1 PUSH1 0x1F LT PUSH2 0x278C JUMPI PUSH2 0x100 DUP1 DUP4 SLOAD DIV MUL DUP4 MSTORE SWAP2 PUSH1 0x20 ADD SWAP2 PUSH2 0x27B7 JUMP JUMPDEST DUP3 ADD SWAP2 SWAP1 PUSH1 0x0 MSTORE PUSH1 0x20 PUSH1 0x0 KECCAK256 SWAP1 JUMPDEST DUP2 SLOAD DUP2 MSTORE SWAP1 PUSH1 0x1 ADD SWAP1 PUSH1 0x20 ADD DUP1 DUP4 GT PUSH2 0x279A JUMPI DUP3 SWAP1 SUB PUSH1 0x1F AND DUP3 ADD SWAP2 JUMPDEST POP POP POP POP POP DUP2 JUMP JUMPDEST PUSH1 0x0 PUSH1 0x18 SWAP1 SLOAD SWAP1 PUSH2 0x100 EXP SWAP1 DIV PUSH1 0xFF AND DUP2 JUMP JUMPDEST PUSH2 0x27DA PUSH2 0x31DC JUMP JUMPDEST PUSH20 0xFFFFFFFFFFFFFFFFFFFFFFFFFFFFFFFFFFFFFFFF AND PUSH1 0x0 DUP1 SLOAD SWAP1 PUSH2 0x100 EXP SWAP1 DIV PUSH20 0xFFFFFFFFFFFFFFFFFFFFFFFFFFFFFFFFFFFFFFFF AND PUSH20 0xFFFFFFFFFFFFFFFFFFFFFFFFFFFFFFFFFFFFFFFF AND EQ PUSH2 0x2867 JUMPI PUSH1 0x40 MLOAD PUSH32 0x8C379A000000000000000000000000000000000000000000000000000000000 DUP2 MSTORE PUSH1 0x4 ADD PUSH2 0x285E SWAP1 PUSH2 0x557B JUMP JUMPDEST PUSH1 0x40 MLOAD DUP1 SWAP2 SUB SWAP1 REVERT JUMPDEST DUP1 PUSH1 0x19 PUSH1 0x0 DUP5 PUSH20 0xFFFFFFFFFFFFFFFFFFFFFFFFFFFFFFFFFFFFFFFF AND PUSH20 0xFFFFFFFFFFFFFFFFFFFFFFFFFFFFFFFFFFFFFFFF AND DUP2 MSTORE PUSH1 0x20 ADD SWAP1 DUP2 MSTORE PUSH1 0x20 ADD PUSH1 0x0 KECCAK256 PUSH1 0x0 PUSH2 0x100 EXP DUP2 SLOAD DUP2 PUSH1 0xFF MUL NOT AND SWAP1 DUP4 ISZERO ISZERO MUL OR SWAP1 SSTORE POP POP POP JUMP JUMPDEST PUSH1 0x0 PUSH2 0x28CF CALLER DUP5 DUP5 PUSH2 0x32CF JUMP JUMPDEST PUSH1 0x1 SWAP1 POP SWAP3 SWAP2 POP POP JUMP JUMPDEST PUSH1 0xB SLOAD DUP2 JUMP JUMPDEST PUSH2 0x28E7 PUSH2 0x31DC JUMP JUMPDEST PUSH20 0xFFFFFFFFFFFFFFFFFFFFFFFFFFFFFFFFFFFFFFFF AND PUSH1 0x0 DUP1 SLOAD SWAP1 PUSH2 0x100 EXP SWAP1 DIV PUSH20 0xFFFFFFFFFFFFFFFFFFFFFFFFFFFFFFFFFFFFFFFF AND PUSH20 0xFFFFFFFFFFFFFFFFFFFFFFFFFFFFFFFFFFFFFFFF AND EQ PUSH2 0x2974 JUMPI PUSH1 0x40 MLOAD PUSH32 0x8C379A000000000000000000000000000000000000000000000000000000000 DUP2 MSTORE PUSH1 0x4 ADD PUSH2 0x296B SWAP1 PUSH2 0x557B JUMP JUMPDEST PUSH1 0x40 MLOAD DUP1 SWAP2 SUB SWAP1 REVERT JUMPDEST PUSH1 0x0 PUSH1 0x1A SWAP1 SLOAD SWAP1 PUSH2 0x100 EXP SWAP1 DIV PUSH1 0xFF AND PUSH2 0x29C3 JUMPI PUSH1 0x40 MLOAD PUSH32 0x8C379A000000000000000000000000000000000000000000000000000000000 DUP2 MSTORE PUSH1 0x4 ADD PUSH2 0x29BA SWAP1 PUSH2 0x59CD JUMP JUMPDEST PUSH1 0x40 MLOAD DUP1 SWAP2 SUB SWAP1 REVERT JUMPDEST DUP2 DUP2 PUSH1 0x0 DUP2 DUP2 LT PUSH2 0x29D7 JUMPI PUSH2 0x29D6 PUSH2 0x57A0 JUMP JUMPDEST JUMPDEST SWAP1 POP PUSH1 0x20 MUL ADD CALLDATALOAD PUSH1 0x4 DUP2 SWAP1 SSTORE POP DUP2 DUP2 PUSH1 0x1 DUP2 DUP2 LT PUSH2 0x29F8 JUMPI PUSH2 0x29F7 PUSH2 0x57A0 JUMP JUMPDEST JUMPDEST SWAP1 POP PUSH1 0x20 MUL ADD CALLDATALOAD PUSH1 0x5 DUP2 SWAP1 SSTORE POP DUP2 DUP2 PUSH1 0x2 DUP2 DUP2 LT PUSH2 0x2A19 JUMPI PUSH2 0x2A18 PUSH2 0x57A0 JUMP JUMPDEST JUMPDEST SWAP1 POP PUSH1 0x20 MUL ADD CALLDATALOAD PUSH1 0x3 DUP2 SWAP1 SSTORE POP DUP2 DUP2 PUSH1 0x3 DUP2 DUP2 LT PUSH2 0x2A3A JUMPI PUSH2 0x2A39 PUSH2 0x57A0 JUMP JUMPDEST JUMPDEST SWAP1 POP PUSH1 0x20 MUL ADD CALLDATALOAD PUSH1 0x7 DUP2 SWAP1 SSTORE POP DUP2 DUP2 PUSH1 0x4 DUP2 DUP2 LT PUSH2 0x2A5B JUMPI PUSH2 0x2A5A PUSH2 0x57A0 JUMP JUMPDEST JUMPDEST SWAP1 POP PUSH1 0x20 MUL ADD CALLDATALOAD PUSH1 0x8 DUP2 SWAP1 SSTORE POP DUP2 DUP2 PUSH1 0x5 DUP2 DUP2 LT PUSH2 0x2A7C JUMPI PUSH2 0x2A7B PUSH2 0x57A0 JUMP JUMPDEST JUMPDEST SWAP1 POP PUSH1 0x20 MUL ADD CALLDATALOAD PUSH1 0x6 DUP2 SWAP1 SSTORE POP PUSH2 0x9C4 PUSH1 0x3 SLOAD PUSH1 0x4 SLOAD PUSH1 0x5 SLOAD PUSH2 0x2A9F SWAP2 SWAP1 PUSH2 0x576C JUMP JUMPDEST PUSH2 0x2AA9 SWAP2 SWAP1 PUSH2 0x576C JUMP JUMPDEST LT PUSH2 0x2AE9 JUMPI PUSH1 0x40 MLOAD PUSH32 0x8C379A000000000000000000000000000000000000000000000000000000000 DUP2 MSTORE PUSH1 0x4 ADD PUSH2 0x2AE0 SWAP1 PUSH2 0x5A39 JUMP JUMPDEST PUSH1 0x40 MLOAD DUP1 SWAP2 SUB SWAP1 REVERT JUMPDEST PUSH2 0x9C4 PUSH1 0x6 SLOAD PUSH1 0x7 SLOAD PUSH1 0x8 SLOAD PUSH2 0x2AFF SWAP2 SWAP1 PUSH2 0x576C JUMP JUMPDEST PUSH2 0x2B09 SWAP2 SWAP1 PUSH2 0x576C JUMP JUMPDEST LT PUSH2 0x2B49 JUMPI PUSH1 0x40 MLOAD PUSH32 0x8C379A000000000000000000000000000000000000000000000000000000000 DUP2 MSTORE PUSH1 0x4 ADD PUSH2 0x2B40 SWAP1 PUSH2 0x5A39 JUMP JUMPDEST PUSH1 0x40 MLOAD DUP1 SWAP2 SUB SWAP1 REVERT JUMPDEST POP POP JUMP JUMPDEST PUSH1 0x1F SLOAD DUP2 JUMP JUMPDEST PUSH1 0x7 SLOAD DUP2 JUMP JUMPDEST PUSH1 0x0 PUSH1 0x17 SWAP1 SLOAD SWAP1 PUSH2 0x100 EXP SWAP1 DIV PUSH1 0xFF AND DUP2 JUMP JUMPDEST PUSH1 0x12 PUSH1 0x3 SWAP1 SLOAD SWAP1 PUSH2 0x100 EXP SWAP1 DIV PUSH4 0xFFFFFFFF AND DUP2 JUMP JUMPDEST PUSH1 0x0 DUP1 PUSH1 0x0 PUSH1 0x13 PUSH1 0x0 DUP6 PUSH20 0xFFFFFFFFFFFFFFFFFFFFFFFFFFFFFFFFFFFFFFFF AND PUSH20 0xFFFFFFFFFFFFFFFFFFFFFFFFFFFFFFFFFFFFFFFF AND DUP2 MSTORE PUSH1 0x20 ADD SWAP1 DUP2 MSTORE PUSH1 0x20 ADD PUSH1 0x0 KECCAK256 PUSH1 0x40 MLOAD DUP1 PUSH1 0x40 ADD PUSH1 0x40 MSTORE SWAP1 DUP2 PUSH1 0x0 DUP3 ADD PUSH1 0x0 SWAP1 SLOAD SWAP1 PUSH2 0x100 EXP SWAP1 DIV PUSH2 0xFFFF AND PUSH2 0xFFFF AND PUSH2 0xFFFF AND DUP2 MSTORE PUSH1 0x20 ADD PUSH1 0x0 DUP3 ADD PUSH1 0x2 SWAP1 SLOAD SWAP1 PUSH2 0x100 EXP SWAP1 DIV PUSH4 0xFFFFFFFF AND PUSH4 0xFFFFFFFF AND PUSH4 0xFFFFFFFF AND DUP2 MSTORE POP POP SWAP1 POP PUSH1 0x0 TIMESTAMP SWAP1 POP DUP2 PUSH1 0x20 ADD MLOAD PUSH4 0xFFFFFFFF AND DUP2 GT ISZERO PUSH2 0x2C3E JUMPI PUSH1 0x0 DUP1 SWAP4 POP SWAP4 POP POP POP PUSH2 0x2C8A JUMP JUMPDEST PUSH2 0xE10 DUP2 DUP4 PUSH1 0x20 ADD MLOAD PUSH4 0xFFFFFFFF AND PUSH2 0x2C57 SWAP2 SWAP1 PUSH2 0x5738 JUMP JUMPDEST PUSH2 0x2C61 SWAP2 SWAP1 PUSH2 0x56C5 JUMP JUMPDEST SWAP4 POP PUSH1 0x3C DUP2 DUP4 PUSH1 0x20 ADD MLOAD PUSH4 0xFFFFFFFF AND PUSH2 0x2C7B SWAP2 SWAP1 PUSH2 0x5738 JUMP JUMPDEST PUSH2 0x2C85 SWAP2 SWAP1 PUSH2 0x56C5 JUMP JUMPDEST SWAP3 POP POP POP JUMPDEST SWAP2 POP SWAP2 JUMP JUMPDEST PUSH1 0x4 SLOAD DUP2 JUMP JUMPDEST PUSH1 0x17 PUSH1 0x20 MSTORE DUP1 PUSH1 0x0 MSTORE PUSH1 0x40 PUSH1 0x0 KECCAK256 PUSH1 0x0 SWAP2 POP SLOAD SWAP1 PUSH2 0x100 EXP SWAP1 DIV PUSH1 0xFF AND DUP2 JUMP JUMPDEST PUSH1 0x12 PUSH1 0x0 SWAP1 SLOAD SWAP1 PUSH2 0x100 EXP SWAP1 DIV PUSH1 0xFF AND DUP2 JUMP JUMPDEST PUSH1 0x0 PUSH1 0x15 SWAP1 SLOAD SWAP1 PUSH2 0x100 EXP SWAP1 DIV PUSH1 0xFF AND DUP2 JUMP JUMPDEST PUSH1 0x3 SLOAD DUP2 JUMP JUMPDEST PUSH1 0x0 NOT DUP2 JUMP JUMPDEST PUSH1 0x0 PUSH1 0x1A SWAP1 SLOAD SWAP1 PUSH2 0x100 EXP SWAP1 DIV PUSH1 0xFF AND DUP2 JUMP JUMPDEST PUSH1 0x1E PUSH1 0x0 SWAP1 SLOAD SWAP1 PUSH2 0x100 EXP SWAP1 DIV PUSH1 0xFF AND DUP2 JUMP JUMPDEST PUSH1 0x0 PUSH1 0x16 PUSH1 0x0 DUP5 PUSH20 0xFFFFFFFFFFFFFFFFFFFFFFFFFFFFFFFFFFFFFFFF AND PUSH20 0xFFFFFFFFFFFFFFFFFFFFFFFFFFFFFFFFFFFFFFFF AND DUP2 MSTORE PUSH1 0x20 ADD SWAP1 DUP2 MSTORE PUSH1 0x20 ADD PUSH1 0x0 KECCAK256 PUSH1 0x0 DUP4 PUSH20 0xFFFFFFFFFFFFFFFFFFFFFFFFFFFFFFFFFFFFFFFF AND PUSH20 0xFFFFFFFFFFFFFFFFFFFFFFFFFFFFFFFFFFFFFFFF AND DUP2 MSTORE PUSH1 0x20 ADD SWAP1 DUP2 MSTORE PUSH1 0x20 ADD PUSH1 0x0 KECCAK256 SLOAD SWAP1 POP SWAP3 SWAP2 POP POP JUMP JUMPDEST PUSH1 0x1D SLOAD DUP2 JUMP JUMPDEST PUSH1 0x1 PUSH1 0x0 SWAP1 SLOAD SWAP1 PUSH2 0x100 EXP SWAP1 DIV PUSH20 0xFFFFFFFFFFFFFFFFFFFFFFFFFFFFFFFFFFFFFFFF AND DUP2 JUMP JUMPDEST PUSH2 0x2DC8 PUSH2 0x31DC JUMP JUMPDEST PUSH20 0xFFFFFFFFFFFFFFFFFFFFFFFFFFFFFFFFFFFFFFFF AND PUSH1 0x0 DUP1 SLOAD SWAP1 PUSH2 0x100 EXP SWAP1 DIV PUSH20 0xFFFFFFFFFFFFFFFFFFFFFFFFFFFFFFFFFFFFFFFF AND PUSH20 0xFFFFFFFFFFFFFFFFFFFFFFFFFFFFFFFFFFFFFFFF AND EQ PUSH2 0x2E55 JUMPI PUSH1 0x40 MLOAD PUSH32 0x8C379A000000000000000000000000000000000000000000000000000000000 DUP2 MSTORE PUSH1 0x4 ADD PUSH2 0x2E4C SWAP1 PUSH2 0x557B JUMP JUMPDEST PUSH1 0x40 MLOAD DUP1 SWAP2 SUB SWAP1 REVERT JUMPDEST PUSH1 0x3 DUP2 GT ISZERO PUSH2 0x2E99 JUMPI PUSH1 0x40 MLOAD PUSH32 0x8C379A000000000000000000000000000000000000000000000000000000000 DUP2 MSTORE PUSH1 0x4 ADD PUSH2 0x2E90 SWAP1 PUSH2 0x5AA5 JUMP JUMPDEST PUSH1 0x40 MLOAD DUP1 SWAP2 SUB SWAP1 REVERT JUMPDEST DUP1 PUSH1 0x1D DUP2 SWAP1 SSTORE POP POP JUMP JUMPDEST PUSH1 0x0 DUP1 PUSH1 0x15 PUSH1 0x0 PUSH1 0x1B PUSH1 0x0 SWAP1 SLOAD SWAP1 PUSH2 0x100 EXP SWAP1 DIV PUSH20 0xFFFFFFFFFFFFFFFFFFFFFFFFFFFFFFFFFFFFFFFF AND PUSH20 0xFFFFFFFFFFFFFFFFFFFFFFFFFFFFFFFFFFFFFFFF AND PUSH20 0xFFFFFFFFFFFFFFFFFFFFFFFFFFFFFFFFFFFFFFFF AND DUP2 MSTORE PUSH1 0x20 ADD SWAP1 DUP2 MSTORE PUSH1 0x20 ADD PUSH1 0x0 KECCAK256 SLOAD SWAP1 POP PUSH1 0x0 DUP2 PUSH20 0x118427B3B4A05BC8A8A4DE845986800000000000 PUSH2 0x2F2C SWAP2 SWAP1 PUSH2 0x56C5 JUMP JUMPDEST SWAP1 POP PUSH1 0x0 DUP3 PUSH8 0xDE0B6B3A7640000 DUP4 PUSH2 0x2F45 SWAP2 SWAP1 PUSH2 0x56F6 JUMP JUMPDEST PUSH2 0x2F4F SWAP2 SWAP1 PUSH2 0x56C5 JUMP JUMPDEST SWAP1 POP PUSH1 0x0 DUP2 PUSH2 0x2710 DUP4 DUP9 PUSH2 0x2F63 SWAP2 SWAP1 PUSH2 0x56F6 JUMP JUMPDEST PUSH2 0x2F6D SWAP2 SWAP1 PUSH2 0x56C5 JUMP JUMPDEST PUSH2 0x2F77 SWAP2 SWAP1 PUSH2 0x576C JUMP JUMPDEST SWAP1 POP PUSH1 0x0 PUSH2 0x2FB6 PUSH8 0xDE0B6B3A7640000 PUSH20 0x118427B3B4A05BC8A8A4DE845986800000000000 DUP5 PUSH2 0x2FA7 SWAP2 SWAP1 PUSH2 0x56F6 JUMP JUMPDEST PUSH2 0x2FB1 SWAP2 SWAP1 PUSH2 0x56C5 JUMP JUMPDEST PUSH2 0x3B3A JUMP JUMPDEST SWAP1 POP PUSH1 0x0 DUP2 PUSH20 0x118427B3B4A05BC8A8A4DE845986800000000000 PUSH2 0x2FDA SWAP2 SWAP1 PUSH2 0x56C5 JUMP JUMPDEST SWAP1 POP DUP1 DUP7 PUSH2 0x2FE8 SWAP2 SWAP1 PUSH2 0x5738 JUMP JUMPDEST SWAP7 POP POP POP POP POP POP POP SWAP2 SWAP1 POP JUMP JUMPDEST PUSH1 0x2 PUSH1 0x0 SWAP1 SLOAD SWAP1 PUSH2 0x100 EXP SWAP1 DIV PUSH20 0xFFFFFFFFFFFFFFFFFFFFFFFFFFFFFFFFFFFFFFFF AND DUP2 JUMP JUMPDEST PUSH2 0x3023 PUSH2 0x31DC JUMP JUMPDEST PUSH20 0xFFFFFFFFFFFFFFFFFFFFFFFFFFFFFFFFFFFFFFFF AND PUSH1 0x0 DUP1 SLOAD SWAP1 PUSH2 0x100 EXP SWAP1 DIV PUSH20 0xFFFFFFFFFFFFFFFFFFFFFFFFFFFFFFFFFFFFFFFF AND PUSH20 0xFFFFFFFFFFFFFFFFFFFFFFFFFFFFFFFFFFFFFFFF AND EQ PUSH2 0x30B0 JUMPI PUSH1 0x40 MLOAD PUSH32 0x8C379A000000000000000000000000000000000000000000000000000000000 DUP2 MSTORE PUSH1 0x4 ADD PUSH2 0x30A7 SWAP1 PUSH2 0x557B JUMP JUMPDEST PUSH1 0x40 MLOAD DUP1 SWAP2 SUB SWAP1 REVERT JUMPDEST PUSH1 0x0 PUSH20 0xFFFFFFFFFFFFFFFFFFFFFFFFFFFFFFFFFFFFFFFF AND DUP2 PUSH20 0xFFFFFFFFFFFFFFFFFFFFFFFFFFFFFFFFFFFFFFFF AND SUB PUSH2 0x311F JUMPI PUSH1 0x40 MLOAD PUSH32 0x8C379A000000000000000000000000000000000000000000000000000000000 DUP2 MSTORE PUSH1 0x4 ADD PUSH2 0x3116 SWAP1 PUSH2 0x5B37 JUMP JUMPDEST PUSH1 0x40 MLOAD DUP1 SWAP2 SUB SWAP1 REVERT JUMPDEST DUP1 PUSH20 0xFFFFFFFFFFFFFFFFFFFFFFFFFFFFFFFFFFFFFFFF AND PUSH1 0x0 DUP1 SLOAD SWAP1 PUSH2 0x100 EXP SWAP1 DIV PUSH20 0xFFFFFFFFFFFFFFFFFFFFFFFFFFFFFFFFFFFFFFFF AND PUSH20 0xFFFFFFFFFFFFFFFFFFFFFFFFFFFFFFFFFFFFFFFF AND PUSH32 0x8BE0079C531659141344CD1FD0A4F28419497F9722A3DAAFE3B4186F6B6457E0 PUSH1 0x40 MLOAD PUSH1 0x40 MLOAD DUP1 SWAP2 SUB SWAP1 LOG3 DUP1 PUSH1 0x0 DUP1 PUSH2 0x100 EXP DUP2 SLOAD DUP2 PUSH20 0xFFFFFFFFFFFFFFFFFFFFFFFFFFFFFFFFFFFFFFFF MUL NOT AND SWAP1 DUP4 PUSH20 0xFFFFFFFFFFFFFFFFFFFFFFFFFFFFFFFFFFFFFFFF AND MUL OR SWAP1 SSTORE POP POP JUMP JUMPDEST PUSH1 0x0 CALLER SWAP1 POP SWAP1 JUMP JUMPDEST DUP1 PUSH1 0x16 PUSH1 0x0 DUP6 PUSH20 0xFFFFFFFFFFFFFFFFFFFFFFFFFFFFFFFFFFFFFFFF AND PUSH20 0xFFFFFFFFFFFFFFFFFFFFFFFFFFFFFFFFFFFFFFFF AND DUP2 MSTORE PUSH1 0x20 ADD SWAP1 DUP2 MSTORE PUSH1 0x20 ADD PUSH1 0x0 KECCAK256 PUSH1 0x0 DUP5 PUSH20 0xFFFFFFFFFFFFFFFFFFFFFFFFFFFFFFFFFFFFFFFF AND PUSH20 0xFFFFFFFFFFFFFFFFFFFFFFFFFFFFFFFFFFFFFFFF AND DUP2 MSTORE PUSH1 0x20 ADD SWAP1 DUP2 MSTORE PUSH1 0x20 ADD PUSH1 0x0 KECCAK256 DUP2 SWAP1 SSTORE POP DUP2 PUSH20 0xFFFFFFFFFFFFFFFFFFFFFFFFFFFFFFFFFFFFFFFF AND DUP4 PUSH20 0xFFFFFFFFFFFFFFFFFFFFFFFFFFFFFFFFFFFFFFFF AND PUSH32 0x8C5BE1E5EBEC7D5BD14F71427D1E84F3DD0314C0F7B2291E5B200AC8C7C3B925 DUP4 PUSH1 0x40 MLOAD PUSH2 0x32C2 SWAP2 SWAP1 PUSH2 0x4F91 JUMP JUMPDEST PUSH1 0x40 MLOAD DUP1 SWAP2 SUB SWAP1 LOG3 POP POP POP JUMP JUMPDEST PUSH1 0x0 PUSH2 0x32DA DUP5 PUSH2 0x1AC4 JUMP JUMPDEST GT ISZERO PUSH2 0x3322 JUMPI PUSH1 0x0 PUSH2 0x3321 JUMPI PUSH1 0x40 MLOAD PUSH32 0x8C379A000000000000000000000000000000000000000000000000000000000 DUP2 MSTORE PUSH1 0x4 ADD PUSH2 0x3318 SWAP1 PUSH2 0x5BA3 JUMP JUMPDEST PUSH1 0x40 MLOAD DUP1 SWAP2 SUB SWAP1 REVERT JUMPDEST JUMPDEST PUSH1 0x1B PUSH1 0x14 SWAP1 SLOAD SWAP1 PUSH2 0x100 EXP SWAP1 DIV PUSH1 0xFF AND ISZERO PUSH2 0x3348 JUMPI PUSH2 0x3342 DUP4 DUP4 DUP4 PUSH2 0x3CE5 JUMP JUMPDEST POP PUSH2 0x3B35 JUMP JUMPDEST PUSH1 0x0 PUSH2 0x3353 DUP5 PUSH2 0x2085 JUMP JUMPDEST SWAP1 POP DUP2 DUP2 LT ISZERO PUSH2 0x3398 JUMPI PUSH1 0x40 MLOAD PUSH32 0x8C379A000000000000000000000000000000000000000000000000000000000 DUP2 MSTORE PUSH1 0x4 ADD PUSH2 0x338F SWAP1 PUSH2 0x5C0F JUMP JUMPDEST PUSH1 0x40 MLOAD DUP1 SWAP2 SUB SWAP1 REVERT JUMPDEST PUSH1 0x1A PUSH1 0x0 DUP6 PUSH20 0xFFFFFFFFFFFFFFFFFFFFFFFFFFFFFFFFFFFFFFFF AND PUSH20 0xFFFFFFFFFFFFFFFFFFFFFFFFFFFFFFFFFFFFFFFF AND DUP2 MSTORE PUSH1 0x20 ADD SWAP1 DUP2 MSTORE PUSH1 0x20 ADD PUSH1 0x0 KECCAK256 PUSH1 0x0 SWAP1 SLOAD SWAP1 PUSH2 0x100 EXP SWAP1 DIV PUSH1 0xFF AND ISZERO DUP1 ISZERO PUSH2 0x343C JUMPI POP PUSH1 0x1A PUSH1 0x0 DUP5 PUSH20 0xFFFFFFFFFFFFFFFFFFFFFFFFFFFFFFFFFFFFFFFF AND PUSH20 0xFFFFFFFFFFFFFFFFFFFFFFFFFFFFFFFFFFFFFFFF AND DUP2 MSTORE PUSH1 0x20 ADD SWAP1 DUP2 MSTORE PUSH1 0x20 ADD PUSH1 0x0 KECCAK256 PUSH1 0x0 SWAP1 SLOAD SWAP1 PUSH2 0x100 EXP SWAP1 DIV PUSH1 0xFF AND ISZERO JUMPDEST DUP1 ISZERO PUSH2 0x3454 JUMPI POP PUSH1 0x1C PUSH1 0x14 SWAP1 SLOAD SWAP1 PUSH2 0x100 EXP SWAP1 DIV PUSH1 0xFF AND JUMPDEST DUP1 ISZERO PUSH2 0x3462 JUMPI POP PUSH1 0x0 PUSH1 0x1D SLOAD GT JUMPDEST ISZERO PUSH2 0x34E8 JUMPI PUSH1 0x0 DUP1 PUSH1 0x0 SWAP1 POP JUMPDEST PUSH1 0x1D SLOAD DUP2 LT ISZERO PUSH2 0x34C9 JUMPI DUP1 DUP5 TIMESTAMP PUSH1 0x40 MLOAD PUSH1 0x20 ADD PUSH2 0x348E SWAP4 SWAP3 SWAP2 SWAP1 PUSH2 0x5C50 JUMP JUMPDEST PUSH1 0x40 MLOAD PUSH1 0x20 DUP2 DUP4 SUB SUB DUP2 MSTORE SWAP1 PUSH1 0x40 MSTORE DUP1 MLOAD SWAP1 PUSH1 0x20 ADD KECCAK256 PUSH1 0x0 SHR SWAP2 POP PUSH2 0x34B5 DUP7 DUP4 PUSH1 0x1 PUSH2 0x3CE5 JUMP JUMPDEST POP DUP1 DUP1 PUSH2 0x34C1 SWAP1 PUSH2 0x57CF JUMP JUMPDEST SWAP2 POP POP PUSH2 0x346F JUMP JUMPDEST POP PUSH1 0x1 PUSH1 0x1D SLOAD PUSH2 0x34D9 SWAP2 SWAP1 PUSH2 0x56F6 JUMP JUMPDEST DUP4 PUSH2 0x34E4 SWAP2 SWAP1 PUSH2 0x5738 JUMP JUMPDEST SWAP3 POP POP JUMPDEST PUSH1 0x0 DUP1 PUSH1 0x19 PUSH1 0x0 DUP8 PUSH20 0xFFFFFFFFFFFFFFFFFFFFFFFFFFFFFFFFFFFFFFFF AND PUSH20 0xFFFFFFFFFFFFFFFFFFFFFFFFFFFFFFFFFFFFFFFF AND DUP2 MSTORE PUSH1 0x20 ADD SWAP1 DUP2 MSTORE PUSH1 0x20 ADD PUSH1 0x0 KECCAK256 PUSH1 0x0 SWAP1 SLOAD SWAP1 PUSH2 0x100 EXP SWAP1 DIV PUSH1 0xFF AND DUP1 PUSH2 0x358C JUMPI POP PUSH1 0x19 PUSH1 0x0 DUP7 PUSH20 0xFFFFFFFFFFFFFFFFFFFFFFFFFFFFFFFFFFFFFFFF AND PUSH20 0xFFFFFFFFFFFFFFFFFFFFFFFFFFFFFFFFFFFFFFFF AND DUP2 MSTORE PUSH1 0x20 ADD SWAP1 DUP2 MSTORE PUSH1 0x20 ADD PUSH1 0x0 KECCAK256 PUSH1 0x0 SWAP1 SLOAD SWAP1 PUSH2 0x100 EXP SWAP1 DIV PUSH1 0xFF AND JUMPDEST ISZERO PUSH2 0x3A72 JUMPI PUSH1 0x1A PUSH1 0x0 DUP8 PUSH20 0xFFFFFFFFFFFFFFFFFFFFFFFFFFFFFFFFFFFFFFFF AND PUSH20 0xFFFFFFFFFFFFFFFFFFFFFFFFFFFFFFFFFFFFFFFF AND DUP2 MSTORE PUSH1 0x20 ADD SWAP1 DUP2 MSTORE PUSH1 0x20 ADD PUSH1 0x0 KECCAK256 PUSH1 0x0 SWAP1 SLOAD SWAP1 PUSH2 0x100 EXP SWAP1 DIV PUSH1 0xFF AND ISZERO DUP1 ISZERO PUSH2 0x3635 JUMPI POP PUSH1 0x1A PUSH1 0x0 DUP7 PUSH20 0xFFFFFFFFFFFFFFFFFFFFFFFFFFFFFFFFFFFFFFFF AND PUSH20 0xFFFFFFFFFFFFFFFFFFFFFFFFFFFFFFFFFFFFFFFF AND DUP2 MSTORE PUSH1 0x20 ADD SWAP1 DUP2 MSTORE PUSH1 0x20 ADD PUSH1 0x0 KECCAK256 PUSH1 0x0 SWAP1 SLOAD SWAP1 PUSH2 0x100 EXP SWAP1 DIV PUSH1 0xFF AND ISZERO JUMPDEST ISZERO PUSH2 0x3A1A JUMPI PUSH1 0x0 PUSH1 0x15 SWAP1 SLOAD SWAP1 PUSH2 0x100 EXP SWAP1 DIV PUSH1 0xFF AND DUP1 ISZERO PUSH2 0x3658 JUMPI POP PUSH1 0xD SLOAD PUSH1 0x0 EQ JUMPDEST ISZERO PUSH2 0x3669 JUMPI PUSH1 0x0 PUSH2 0x3668 JUMPI PUSH1 0x0 DUP1 REVERT JUMPDEST JUMPDEST PUSH1 0x0 PUSH1 0x15 SWAP1 SLOAD SWAP1 PUSH2 0x100 EXP SWAP1 DIV PUSH1 0xFF AND DUP1 ISZERO PUSH2 0x3691 JUMPI POP PUSH1 0x0 PUSH1 0x16 SWAP1 SLOAD SWAP1 PUSH2 0x100 EXP SWAP1 DIV PUSH1 0xFF AND JUMPDEST DUP1 ISZERO PUSH2 0x36AB JUMPI POP PUSH1 0x9 SLOAD PUSH1 0xD SLOAD PUSH2 0x36A8 SWAP2 SWAP1 PUSH2 0x576C JUMP JUMPDEST NUMBER LT JUMPDEST ISZERO PUSH2 0x375B JUMPI PUSH1 0x19 PUSH1 0x0 DUP7 PUSH20 0xFFFFFFFFFFFFFFFFFFFFFFFFFFFFFFFFFFFFFFFF AND PUSH20 0xFFFFFFFFFFFFFFFFFFFFFFFFFFFFFFFFFFFFFFFF AND DUP2 MSTORE PUSH1 0x20 ADD SWAP1 DUP2 MSTORE PUSH1 0x20 ADD PUSH1 0x0 KECCAK256 PUSH1 0x0 SWAP1 SLOAD SWAP1 PUSH2 0x100 EXP SWAP1 DIV PUSH1 0xFF AND PUSH2 0x375A JUMPI PUSH1 0x1 PUSH1 0x17 PUSH1 0x0 DUP8 PUSH20 0xFFFFFFFFFFFFFFFFFFFFFFFFFFFFFFFFFFFFFFFF AND PUSH20 0xFFFFFFFFFFFFFFFFFFFFFFFFFFFFFFFFFFFFFFFF AND DUP2 MSTORE PUSH1 0x20 ADD SWAP1 DUP2 MSTORE PUSH1 0x20 ADD PUSH1 0x0 KECCAK256 PUSH1 0x0 PUSH2 0x100 EXP DUP2 SLOAD DUP2 PUSH1 0xFF MUL NOT AND SWAP1 DUP4 ISZERO ISZERO MUL OR SWAP1 SSTORE POP JUMPDEST JUMPDEST PUSH1 0x0 PUSH1 0x18 SWAP1 SLOAD SWAP1 PUSH2 0x100 EXP SWAP1 DIV PUSH1 0xFF AND ISZERO PUSH2 0x385D JUMPI PUSH1 0x19 PUSH1 0x0 DUP8 PUSH20 0xFFFFFFFFFFFFFFFFFFFFFFFFFFFFFFFFFFFFFFFF AND PUSH20 0xFFFFFFFFFFFFFFFFFFFFFFFFFFFFFFFFFFFFFFFF AND DUP2 MSTORE PUSH1 0x20 ADD SWAP1 DUP2 MSTORE PUSH1 0x20 ADD PUSH1 0x0 KECCAK256 PUSH1 0x0 SWAP1 SLOAD SWAP1 PUSH2 0x100 EXP SWAP1 DIV PUSH1 0xFF AND ISZERO PUSH2 0x3811 JUMPI PUSH2 0x37CA PUSH2 0x3E03 JUMP JUMPDEST DUP5 GT ISZERO PUSH2 0x380C JUMPI PUSH1 0x40 MLOAD PUSH32 0x8C379A000000000000000000000000000000000000000000000000000000000 DUP2 MSTORE PUSH1 0x4 ADD PUSH2 0x3803 SWAP1 PUSH2 0x5CFF JUMP JUMPDEST PUSH1 0x40 MLOAD DUP1 SWAP2 SUB SWAP1 REVERT JUMPDEST PUSH2 0x385C JUMP JUMPDEST PUSH2 0x3819 PUSH2 0x3E77 JUMP JUMPDEST DUP5 GT ISZERO PUSH2 0x385B JUMPI PUSH1 0x40 MLOAD PUSH32 0x8C379A000000000000000000000000000000000000000000000000000000000 DUP2 MSTORE PUSH1 0x4 ADD PUSH2 0x3852 SWAP1 PUSH2 0x5CFF JUMP JUMPDEST PUSH1 0x40 MLOAD DUP1 SWAP2 SUB SWAP1 REVERT JUMPDEST JUMPDEST JUMPDEST PUSH1 0x0 PUSH1 0x19 SWAP1 SLOAD SWAP1 PUSH2 0x100 EXP SWAP1 DIV PUSH1 0xFF AND DUP1 ISZERO PUSH2 0x38C2 JUMPI POP PUSH1 0x19 PUSH1 0x0 DUP8 PUSH20 0xFFFFFFFFFFFFFFFFFFFFFFFFFFFFFFFFFFFFFFFF AND PUSH20 0xFFFFFFFFFFFFFFFFFFFFFFFFFFFFFFFFFFFFFFFF AND DUP2 MSTORE PUSH1 0x20 ADD SWAP1 DUP2 MSTORE PUSH1 0x20 ADD PUSH1 0x0 KECCAK256 PUSH1 0x0 SWAP1 SLOAD SWAP1 PUSH2 0x100 EXP SWAP1 DIV PUSH1 0xFF AND JUMPDEST ISZERO PUSH2 0x3926 JUMPI PUSH1 0x0 PUSH2 0x38D2 DUP7 PUSH2 0x2085 JUMP JUMPDEST SWAP1 POP PUSH1 0xB SLOAD DUP6 DUP3 PUSH2 0x38E3 SWAP2 SWAP1 PUSH2 0x576C JUMP JUMPDEST GT ISZERO PUSH2 0x3924 JUMPI PUSH1 0x40 MLOAD PUSH32 0x8C379A000000000000000000000000000000000000000000000000000000000 DUP2 MSTORE PUSH1 0x4 ADD PUSH2 0x391B SWAP1 PUSH2 0x5D6B JUMP JUMPDEST PUSH1 0x40 MLOAD DUP1 SWAP2 SUB SWAP1 REVERT JUMPDEST POP JUMPDEST PUSH1 0x19 PUSH1 0x0 DUP7 PUSH20 0xFFFFFFFFFFFFFFFFFFFFFFFFFFFFFFFFFFFFFFFF AND PUSH20 0xFFFFFFFFFFFFFFFFFFFFFFFFFFFFFFFFFFFFFFFF AND DUP2 MSTORE PUSH1 0x20 ADD SWAP1 DUP2 MSTORE PUSH1 0x20 ADD PUSH1 0x0 KECCAK256 PUSH1 0x0 SWAP1 SLOAD SWAP1 PUSH2 0x100 EXP SWAP1 DIV PUSH1 0xFF AND ISZERO PUSH2 0x3A15 JUMPI PUSH1 0x1B PUSH1 0x14 SWAP1 SLOAD SWAP1 PUSH2 0x100 EXP SWAP1 DIV PUSH1 0xFF AND PUSH2 0x3A14 JUMPI PUSH1 0x0 PUSH2 0x3997 ADDRESS PUSH2 0x2085 JUMP JUMPDEST SWAP1 POP PUSH1 0x0 DUP2 GT ISZERO PUSH2 0x3A12 JUMPI PUSH1 0x0 PUSH1 0x7 SLOAD PUSH1 0x6 SLOAD PUSH1 0x4 SLOAD PUSH1 0x3 SLOAD PUSH2 0x39BA SWAP2 SWAP1 PUSH2 0x576C JUMP JUMPDEST PUSH2 0x39C4 SWAP2 SWAP1 PUSH2 0x576C JUMP JUMPDEST PUSH2 0x39CE SWAP2 SWAP1 PUSH2 0x576C JUMP JUMPDEST SWAP1 POP PUSH1 0x0 PUSH2 0x2710 PUSH1 0x2 DUP4 DUP10 PUSH2 0x39E3 SWAP2 SWAP1 PUSH2 0x56F6 JUMP JUMPDEST PUSH2 0x39ED SWAP2 SWAP1 PUSH2 0x56F6 JUMP JUMPDEST PUSH2 0x39F7 SWAP2 SWAP1 PUSH2 0x56C5 JUMP JUMPDEST SWAP1 POP DUP3 DUP2 GT ISZERO PUSH2 0x3A05 JUMPI DUP3 SWAP1 POP JUMPDEST PUSH2 0x3A0F DUP2 DUP4 PUSH2 0x3EEB JUMP JUMPDEST POP POP JUMPDEST POP JUMPDEST JUMPDEST PUSH1 0x1 SWAP2 POP JUMPDEST PUSH1 0x19 PUSH1 0x0 DUP7 PUSH20 0xFFFFFFFFFFFFFFFFFFFFFFFFFFFFFFFFFFFFFFFF AND PUSH20 0xFFFFFFFFFFFFFFFFFFFFFFFFFFFFFFFFFFFFFFFF AND DUP2 MSTORE PUSH1 0x20 ADD SWAP1 DUP2 MSTORE PUSH1 0x20 ADD PUSH1 0x0 KECCAK256 PUSH1 0x0 SWAP1 SLOAD SWAP1 PUSH2 0x100 EXP SWAP1 DIV PUSH1 0xFF AND ISZERO PUSH2 0x3A71 JUMPI PUSH1 0x1 SWAP1 POP JUMPDEST JUMPDEST PUSH1 0x0 PUSH1 0x19 PUSH1 0x0 DUP9 PUSH20 0xFFFFFFFFFFFFFFFFFFFFFFFFFFFFFFFFFFFFFFFF AND PUSH20 0xFFFFFFFFFFFFFFFFFFFFFFFFFFFFFFFFFFFFFFFF AND DUP2 MSTORE PUSH1 0x20 ADD SWAP1 DUP2 MSTORE PUSH1 0x20 ADD PUSH1 0x0 KECCAK256 PUSH1 0x0 SWAP1 SLOAD SWAP1 PUSH2 0x100 EXP SWAP1 DIV PUSH1 0xFF AND ISZERO DUP1 ISZERO PUSH2 0x3B18 JUMPI POP PUSH1 0x19 PUSH1 0x0 DUP8 PUSH20 0xFFFFFFFFFFFFFFFFFFFFFFFFFFFFFFFFFFFFFFFF AND PUSH20 0xFFFFFFFFFFFFFFFFFFFFFFFFFFFFFFFFFFFFFFFF AND DUP2 MSTORE PUSH1 0x20 ADD SWAP1 DUP2 MSTORE PUSH1 0x20 ADD PUSH1 0x0 KECCAK256 PUSH1 0x0 SWAP1 SLOAD SWAP1 PUSH2 0x100 EXP SWAP1 DIV PUSH1 0xFF AND ISZERO JUMPDEST ISZERO PUSH2 0x3B22 JUMPI PUSH1 0x1 SWAP1 POP JUMPDEST PUSH2 0x3B30 DUP8 DUP8 DUP8 DUP7 DUP7 DUP7 PUSH2 0x4838 JUMP JUMPDEST POP POP POP POP JUMPDEST POP POP POP JUMP JUMPDEST PUSH1 0x0 DUP1 DUP3 SUB PUSH2 0x3B4C JUMPI PUSH1 0x0 SWAP1 POP PUSH2 0x3CE0 JUMP JUMPDEST PUSH1 0x0 DUP3 SWAP1 POP PUSH1 0x1 SWAP2 POP PUSH17 0x100000000000000000000000000000000 DUP2 LT PUSH2 0x3B7C JUMPI PUSH1 0x80 DUP2 SWAP1 SHR SWAP1 POP PUSH1 0x40 DUP3 SWAP1 SHL SWAP2 POP JUMPDEST PUSH9 0x10000000000000000 DUP2 LT PUSH2 0x3B9B JUMPI PUSH1 0x40 DUP2 SWAP1 SHR SWAP1 POP PUSH1 0x20 DUP3 SWAP1 SHL SWAP2 POP JUMPDEST PUSH5 0x100000000 DUP2 LT PUSH2 0x3BB6 JUMPI PUSH1 0x20 DUP2 SWAP1 SHR SWAP1 POP PUSH1 0x10 DUP3 SWAP1 SHL SWAP2 POP JUMPDEST PUSH3 0x10000 DUP2 LT PUSH2 0x3BCF JUMPI PUSH1 0x10 DUP2 SWAP1 SHR SWAP1 POP PUSH1 0x8 DUP3 SWAP1 SHL SWAP2 POP JUMPDEST PUSH2 0x100 DUP2 LT PUSH2 0x3BE7 JUMPI PUSH1 0x8 DUP2 SWAP1 SHR SWAP1 POP PUSH1 0x4 DUP3 SWAP1 SHL SWAP2 POP JUMPDEST PUSH1 0x10 DUP2 LT PUSH2 0x3BFE JUMPI PUSH1 0x4 DUP2 SWAP1 SHR SWAP1 POP PUSH1 0x2 DUP3 SWAP1 SHL SWAP2 POP JUMPDEST PUSH1 0x4 DUP2 LT PUSH2 0x3C0E JUMPI PUSH1 0x1 DUP3 SWAP1 SHL SWAP2 POP JUMPDEST PUSH1 0x1 DUP3 DUP5 DUP2 PUSH2 0x3C20 JUMPI PUSH2 0x3C1F PUSH2 0x5667 JUMP JUMPDEST JUMPDEST DIV DUP4 ADD SWAP1 SHR SWAP2 POP PUSH1 0x1 DUP3 DUP5 DUP2 PUSH2 0x3C39 JUMPI PUSH2 0x3C38 PUSH2 0x5667 JUMP JUMPDEST JUMPDEST DIV DUP4 ADD SWAP1 SHR SWAP2 POP PUSH1 0x1 DUP3 DUP5 DUP2 PUSH2 0x3C52 JUMPI PUSH2 0x3C51 PUSH2 0x5667 JUMP JUMPDEST JUMPDEST DIV DUP4 ADD SWAP1 SHR SWAP2 POP PUSH1 0x1 DUP3 DUP5 DUP2 PUSH2 0x3C6B JUMPI PUSH2 0x3C6A PUSH2 0x5667 JUMP JUMPDEST JUMPDEST DIV DUP4 ADD SWAP1 SHR SWAP2 POP PUSH1 0x1 DUP3 DUP5 DUP2 PUSH2 0x3C84 JUMPI PUSH2 0x3C83 PUSH2 0x5667 JUMP JUMPDEST JUMPDEST DIV DUP4 ADD SWAP1 SHR SWAP2 POP PUSH1 0x1 DUP3 DUP5 DUP2 PUSH2 0x3C9D JUMPI PUSH2 0x3C9C PUSH2 0x5667 JUMP JUMPDEST JUMPDEST DIV DUP4 ADD SWAP1 SHR SWAP2 POP PUSH1 0x1 DUP3 DUP5 DUP2 PUSH2 0x3CB6 JUMPI PUSH2 0x3CB5 PUSH2 0x5667 JUMP JUMPDEST JUMPDEST DIV DUP4 ADD SWAP1 SHR SWAP2 POP PUSH1 0x0 DUP3 DUP5 DUP2 PUSH2 0x3CCF JUMPI PUSH2 0x3CCE PUSH2 0x5667 JUMP JUMPDEST JUMPDEST DIV SWAP1 POP DUP1 DUP4 LT PUSH2 0x3CDD JUMPI DUP1 SWAP3 POP JUMPDEST POP POP JUMPDEST SWAP2 SWAP1 POP JUMP JUMPDEST PUSH1 0x0 DUP2 PUSH1 0x15 PUSH1 0x0 DUP7 PUSH20 0xFFFFFFFFFFFFFFFFFFFFFFFFFFFFFFFFFFFFFFFF AND PUSH20 0xFFFFFFFFFFFFFFFFFFFFFFFFFFFFFFFFFFFFFFFF AND DUP2 MSTORE PUSH1 0x20 ADD SWAP1 DUP2 MSTORE PUSH1 0x20 ADD PUSH1 0x0 KECCAK256 PUSH1 0x0 DUP3 DUP3 SLOAD PUSH2 0x3D36 SWAP2 SWAP1 PUSH2 0x5738 JUMP JUMPDEST SWAP3 POP POP DUP2 SWAP1 SSTORE POP DUP2 PUSH1 0x15 PUSH1 0x0 DUP6 PUSH20 0xFFFFFFFFFFFFFFFFFFFFFFFFFFFFFFFFFFFFFFFF AND PUSH20 0xFFFFFFFFFFFFFFFFFFFFFFFFFFFFFFFFFFFFFFFF AND DUP2 MSTORE PUSH1 0x20 ADD SWAP1 DUP2 MSTORE PUSH1 0x20 ADD PUSH1 0x0 KECCAK256 PUSH1 0x0 DUP3 DUP3 SLOAD PUSH2 0x3D8C SWAP2 SWAP1 PUSH2 0x576C JUMP JUMPDEST SWAP3 POP POP DUP2 SWAP1 SSTORE POP DUP3 PUSH20 0xFFFFFFFFFFFFFFFFFFFFFFFFFFFFFFFFFFFFFFFF AND DUP5 PUSH20 0xFFFFFFFFFFFFFFFFFFFFFFFFFFFFFFFFFFFFFFFF AND PUSH32 0xDDF252AD1BE2C89B69C2B068FC378DAA952BA7F163C4A11628F55A4DF523B3EF DUP5 PUSH1 0x40 MLOAD PUSH2 0x3DF0 SWAP2 SWAP1 PUSH2 0x4F91 JUMP JUMPDEST PUSH1 0x40 MLOAD DUP1 SWAP2 SUB SWAP1 LOG3 PUSH1 0x1 SWAP1 POP SWAP4 SWAP3 POP POP POP JUMP JUMPDEST PUSH1 0x0 DUP1 PUSH2 0x3E23 PUSH1 0x12 PUSH1 0x1 SWAP1 SLOAD SWAP1 PUSH2 0x100 EXP SWAP1 DIV PUSH2 0xFFFF AND PUSH2 0xFFFF AND PUSH2 0x2EA3 JUMP JUMPDEST SWAP1 POP PUSH1 0x0 PUSH1 0x5 SLOAD PUSH1 0x4 SLOAD PUSH1 0x3 SLOAD PUSH2 0x3E3A SWAP2 SWAP1 PUSH2 0x576C JUMP JUMPDEST PUSH2 0x3E44 SWAP2 SWAP1 PUSH2 0x576C JUMP JUMPDEST SWAP1 POP PUSH1 0x0 PUSH2 0x2710 DUP3 DUP5 PUSH2 0x3E57 SWAP2 SWAP1 PUSH2 0x56F6 JUMP JUMPDEST PUSH2 0x3E61 SWAP2 SWAP1 PUSH2 0x56C5 JUMP JUMPDEST SWAP1 POP DUP1 DUP4 PUSH2 0x3E6F SWAP2 SWAP1 PUSH2 0x576C JUMP JUMPDEST SWAP4 POP POP POP POP SWAP1 JUMP JUMPDEST PUSH1 0x0 DUP1 PUSH2 0x3E97 PUSH1 0x12 PUSH1 0x1 SWAP1 SLOAD SWAP1 PUSH2 0x100 EXP SWAP1 DIV PUSH2 0xFFFF AND PUSH2 0xFFFF AND PUSH2 0x2EA3 JUMP JUMPDEST SWAP1 POP PUSH1 0x0 PUSH1 0x8 SLOAD PUSH1 0x7 SLOAD PUSH1 0x6 SLOAD PUSH2 0x3EAE SWAP2 SWAP1 PUSH2 0x576C JUMP JUMPDEST PUSH2 0x3EB8 SWAP2 SWAP1 PUSH2 0x576C JUMP JUMPDEST SWAP1 POP PUSH1 0x0 PUSH2 0x2710 DUP3 DUP5 PUSH2 0x3ECB SWAP2 SWAP1 PUSH2 0x56F6 JUMP JUMPDEST PUSH2 0x3ED5 SWAP2 SWAP1 PUSH2 0x56C5 JUMP JUMPDEST SWAP1 POP DUP1 DUP4 PUSH2 0x3EE3 SWAP2 SWAP1 PUSH2 0x576C JUMP JUMPDEST SWAP4 POP POP POP POP SWAP1 JUMP JUMPDEST PUSH1 0x1 PUSH1 0x1B PUSH1 0x14 PUSH2 0x100 EXP DUP2 SLOAD DUP2 PUSH1 0xFF MUL NOT AND SWAP1 DUP4 ISZERO ISZERO MUL OR SWAP1 SSTORE POP PUSH1 0x0 DUP2 SUB ISZERO PUSH2 0x4819 JUMPI DUP1 DUP2 PUSH2 0x3F1B SWAP2 SWAP1 PUSH2 0x576C JUMP JUMPDEST SWAP1 POP PUSH1 0x0 PUSH1 0x4 SLOAD PUSH1 0x7 SLOAD PUSH2 0x3F2F SWAP2 SWAP1 PUSH2 0x576C JUMP JUMPDEST SWAP1 POP PUSH1 0x0 DUP3 DUP3 DUP6 PUSH2 0x3F40 SWAP2 SWAP1 PUSH2 0x56F6 JUMP JUMPDEST PUSH2 0x3F4A SWAP2 SWAP1 PUSH2 0x56C5 JUMP JUMPDEST SWAP1 POP PUSH1 0x0 PUSH1 0x2 PUSH8 0xFFFFFFFFFFFFFFFF DUP2 GT ISZERO PUSH2 0x3F69 JUMPI PUSH2 0x3F68 PUSH2 0x5D8B JUMP JUMPDEST JUMPDEST PUSH1 0x40 MLOAD SWAP1 DUP1 DUP3 MSTORE DUP1 PUSH1 0x20 MUL PUSH1 0x20 ADD DUP3 ADD PUSH1 0x40 MSTORE DUP1 ISZERO PUSH2 0x3F97 JUMPI DUP2 PUSH1 0x20 ADD PUSH1 0x20 DUP3 MUL DUP1 CALLDATASIZE DUP4 CALLDATACOPY DUP1 DUP3 ADD SWAP2 POP POP SWAP1 POP JUMPDEST POP SWAP1 POP ADDRESS DUP2 PUSH1 0x0 DUP2 MLOAD DUP2 LT PUSH2 0x3FAF JUMPI PUSH2 0x3FAE PUSH2 0x57A0 JUMP JUMPDEST JUMPDEST PUSH1 0x20 MUL PUSH1 0x20 ADD ADD SWAP1 PUSH20 0xFFFFFFFFFFFFFFFFFFFFFFFFFFFFFFFFFFFFFFFF AND SWAP1 DUP2 PUSH20 0xFFFFFFFFFFFFFFFFFFFFFFFFFFFFFFFFFFFFFFFF AND DUP2 MSTORE POP POP PUSH1 0x1 PUSH1 0x0 SWAP1 SLOAD SWAP1 PUSH2 0x100 EXP SWAP1 DIV PUSH20 0xFFFFFFFFFFFFFFFFFFFFFFFFFFFFFFFFFFFFFFFF AND DUP2 PUSH1 0x1 DUP2 MLOAD DUP2 LT PUSH2 0x4020 JUMPI PUSH2 0x401F PUSH2 0x57A0 JUMP JUMPDEST JUMPDEST PUSH1 0x20 MUL PUSH1 0x20 ADD ADD SWAP1 PUSH20 0xFFFFFFFFFFFFFFFFFFFFFFFFFFFFFFFFFFFFFFFF AND SWAP1 DUP2 PUSH20 0xFFFFFFFFFFFFFFFFFFFFFFFFFFFFFFFFFFFFFFFF AND DUP2 MSTORE POP POP PUSH1 0x0 PUSH1 0x14 SWAP1 SLOAD SWAP1 PUSH2 0x100 EXP SWAP1 DIV PUSH1 0xFF AND ISZERO PUSH2 0x4144 JUMPI PUSH1 0x18 PUSH1 0x0 SWAP1 SLOAD SWAP1 PUSH2 0x100 EXP SWAP1 DIV PUSH20 0xFFFFFFFFFFFFFFFFFFFFFFFFFFFFFFFFFFFFFFFF AND PUSH20 0xFFFFFFFFFFFFFFFFFFFFFFFFFFFFFFFFFFFFFFFF AND PUSH4 0x791AC947 DUP4 DUP8 PUSH2 0x40B9 SWAP2 SWAP1 PUSH2 0x5738 JUMP JUMPDEST PUSH1 0x0 DUP5 ADDRESS TIMESTAMP PUSH1 0x40 MLOAD DUP7 PUSH4 0xFFFFFFFF AND PUSH1 0xE0 SHL DUP2 MSTORE PUSH1 0x4 ADD PUSH2 0x40DE SWAP6 SWAP5 SWAP4 SWAP3 SWAP2 SWAP1 PUSH2 0x5EB3 JUMP JUMPDEST PUSH1 0x0 PUSH1 0x40 MLOAD DUP1 DUP4 SUB DUP2 PUSH1 0x0 DUP8 DUP1 EXTCODESIZE ISZERO DUP1 ISZERO PUSH2 0x40F8 JUMPI PUSH1 0x0 DUP1 REVERT JUMPDEST POP GAS CALL SWAP3 POP POP POP DUP1 ISZERO PUSH2 0x4109 JUMPI POP PUSH1 0x1 JUMPDEST PUSH2 0x413E JUMPI PUSH32 0xE2CA28DFF25F053218CEF44CD4580A8DF8E34FD11EE24E2E45B5394750C20D3C PUSH1 0x40 MLOAD PUSH1 0x40 MLOAD DUP1 SWAP2 SUB SWAP1 LOG1 PUSH2 0x413F JUMP JUMPDEST JUMPDEST PUSH2 0x4237 JUMP JUMPDEST PUSH1 0x18 PUSH1 0x0 SWAP1 SLOAD SWAP1 PUSH2 0x100 EXP SWAP1 DIV PUSH20 0xFFFFFFFFFFFFFFFFFFFFFFFFFFFFFFFFFFFFFFFF AND PUSH20 0xFFFFFFFFFFFFFFFFFFFFFFFFFFFFFFFFFFFFFFFF AND PUSH4 0x5C11D795 DUP4 DUP8 PUSH2 0x418E SWAP2 SWAP1 PUSH2 0x5738 JUMP JUMPDEST PUSH1 0x0 DUP5 PUSH1 0x1C PUSH1 0x0 SWAP1 SLOAD SWAP1 PUSH2 0x100 EXP SWAP1 DIV PUSH20 0xFFFFFFFFFFFFFFFFFFFFFFFFFFFFFFFFFFFFFFFF AND TIMESTAMP PUSH1 0x40 MLOAD DUP7 PUSH4 0xFFFFFFFF AND PUSH1 0xE0 SHL DUP2 MSTORE PUSH1 0x4 ADD PUSH2 0x41D5 SWAP6 SWAP5 SWAP4 SWAP3 SWAP2 SWAP1 PUSH2 0x5EB3 JUMP JUMPDEST PUSH1 0x0 PUSH1 0x40 MLOAD DUP1 DUP4 SUB DUP2 PUSH1 0x0 DUP8 DUP1 EXTCODESIZE ISZERO DUP1 ISZERO PUSH2 0x41EF JUMPI PUSH1 0x0 DUP1 REVERT JUMPDEST POP GAS CALL SWAP3 POP POP POP DUP1 ISZERO PUSH2 0x4200 JUMPI POP PUSH1 0x1 JUMPDEST PUSH2 0x4235 JUMPI PUSH32 0xFA4626FC78DF02CB8FDEA85A8AF60AD29E2C95F22E2A91C79D99631C288A8B6C PUSH1 0x40 MLOAD PUSH1 0x40 MLOAD DUP1 SWAP2 SUB SWAP1 LOG1 PUSH2 0x4236 JUMP JUMPDEST JUMPDEST JUMPDEST DUP3 DUP5 PUSH2 0x4243 SWAP2 SWAP1 PUSH2 0x5738 JUMP JUMPDEST SWAP4 POP PUSH1 0x0 DUP1 PUSH1 0x0 DUP1 PUSH1 0x14 SWAP1 SLOAD SWAP1 PUSH2 0x100 EXP SWAP1 DIV PUSH1 0xFF AND ISZERO PUSH2 0x446F JUMPI SELFBALANCE SWAP3 POP DUP7 DUP7 DUP5 PUSH2 0x426E SWAP2 SWAP1 PUSH2 0x56F6 JUMP JUMPDEST PUSH2 0x4278 SWAP2 SWAP1 PUSH2 0x56C5 JUMP JUMPDEST SWAP2 POP DUP2 DUP4 PUSH2 0x4286 SWAP2 SWAP1 PUSH2 0x5738 JUMP JUMPDEST SWAP1 POP PUSH1 0x0 DUP2 GT DUP1 ISZERO PUSH2 0x42E7 JUMPI POP PUSH1 0x0 PUSH20 0xFFFFFFFFFFFFFFFFFFFFFFFFFFFFFFFFFFFFFFFF AND PUSH1 0x2 PUSH1 0x0 SWAP1 SLOAD SWAP1 PUSH2 0x100 EXP SWAP1 DIV PUSH20 0xFFFFFFFFFFFFFFFFFFFFFFFFFFFFFFFFFFFFFFFF AND PUSH20 0xFFFFFFFFFFFFFFFFFFFFFFFFFFFFFFFFFFFFFFFF AND EQ ISZERO JUMPDEST ISZERO PUSH2 0x4356 JUMPI PUSH1 0x2 PUSH1 0x0 SWAP1 SLOAD SWAP1 PUSH2 0x100 EXP SWAP1 DIV PUSH20 0xFFFFFFFFFFFFFFFFFFFFFFFFFFFFFFFFFFFFFFFF AND PUSH20 0xFFFFFFFFFFFFFFFFFFFFFFFFFFFFFFFFFFFFFFFF AND PUSH2 0x8FC DUP3 SWAP1 DUP2 ISZERO MUL SWAP1 PUSH1 0x40 MLOAD PUSH1 0x0 PUSH1 0x40 MLOAD DUP1 DUP4 SUB DUP2 DUP6 DUP9 DUP9 CALL SWAP4 POP POP POP POP ISZERO DUP1 ISZERO PUSH2 0x4354 JUMPI RETURNDATASIZE PUSH1 0x0 DUP1 RETURNDATACOPY RETURNDATASIZE PUSH1 0x0 REVERT JUMPDEST POP JUMPDEST PUSH1 0x0 DUP6 GT DUP1 ISZERO PUSH2 0x4366 JUMPI POP PUSH1 0x0 DUP3 GT JUMPDEST ISZERO PUSH2 0x446A JUMPI PUSH1 0x18 PUSH1 0x0 SWAP1 SLOAD SWAP1 PUSH2 0x100 EXP SWAP1 DIV PUSH20 0xFFFFFFFFFFFFFFFFFFFFFFFFFFFFFFFFFFFFFFFF AND PUSH20 0xFFFFFFFFFFFFFFFFFFFFFFFFFFFFFFFFFFFFFFFF AND PUSH4 0xF305D719 DUP4 ADDRESS DUP9 PUSH1 0x0 DUP1 PUSH1 0x2 PUSH1 0x0 SWAP1 SLOAD SWAP1 PUSH2 0x100 EXP SWAP1 DIV PUSH20 0xFFFFFFFFFFFFFFFFFFFFFFFFFFFFFFFFFFFFFFFF AND TIMESTAMP PUSH1 0x40 MLOAD DUP9 PUSH4 0xFFFFFFFF AND PUSH1 0xE0 SHL DUP2 MSTORE PUSH1 0x4 ADD PUSH2 0x43F4 SWAP7 SWAP6 SWAP5 SWAP4 SWAP3 SWAP2 SWAP1 PUSH2 0x5F0D JUMP JUMPDEST PUSH1 0x60 PUSH1 0x40 MLOAD DUP1 DUP4 SUB DUP2 DUP6 DUP9 GAS CALL SWAP4 POP POP POP POP DUP1 ISZERO PUSH2 0x4430 JUMPI POP PUSH1 0x40 MLOAD RETURNDATASIZE PUSH1 0x1F NOT PUSH1 0x1F DUP3 ADD AND DUP3 ADD DUP1 PUSH1 0x40 MSTORE POP DUP2 ADD SWAP1 PUSH2 0x442D SWAP2 SWAP1 PUSH2 0x5F83 JUMP JUMPDEST PUSH1 0x1 JUMPDEST PUSH2 0x4465 JUMPI PUSH32 0xCE671F3A6F00739CCC1874C850866644BDBE23B07CB11974F696E72D16722723 PUSH1 0x40 MLOAD PUSH1 0x40 MLOAD DUP1 SWAP2 SUB SWAP1 LOG1 PUSH2 0x4469 JUMP JUMPDEST POP POP POP JUMPDEST JUMPDEST PUSH2 0x4812 JUMP JUMPDEST PUSH1 0x0 PUSH1 0x1 PUSH1 0x0 SWAP1 SLOAD SWAP1 PUSH2 0x100 EXP SWAP1 DIV PUSH20 0xFFFFFFFFFFFFFFFFFFFFFFFFFFFFFFFFFFFFFFFF AND SWAP1 POP DUP1 PUSH20 0xFFFFFFFFFFFFFFFFFFFFFFFFFFFFFFFFFFFFFFFF AND PUSH4 0x70A08231 PUSH1 0x1C PUSH1 0x0 SWAP1 SLOAD SWAP1 PUSH2 0x100 EXP SWAP1 DIV PUSH20 0xFFFFFFFFFFFFFFFFFFFFFFFFFFFFFFFFFFFFFFFF AND PUSH1 0x40 MLOAD DUP3 PUSH4 0xFFFFFFFF AND PUSH1 0xE0 SHL DUP2 MSTORE PUSH1 0x4 ADD PUSH2 0x44F1 SWAP2 SWAP1 PUSH2 0x52F1 JUMP JUMPDEST PUSH1 0x20 PUSH1 0x40 MLOAD DUP1 DUP4 SUB DUP2 DUP7 GAS STATICCALL ISZERO DUP1 ISZERO PUSH2 0x450E JUMPI RETURNDATASIZE PUSH1 0x0 DUP1 RETURNDATACOPY RETURNDATASIZE PUSH1 0x0 REVERT JUMPDEST POP POP POP POP PUSH1 0x40 MLOAD RETURNDATASIZE PUSH1 0x1F NOT PUSH1 0x1F DUP3 ADD AND DUP3 ADD DUP1 PUSH1 0x40 MSTORE POP DUP2 ADD SWAP1 PUSH2 0x4532 SWAP2 SWAP1 PUSH2 0x5FD6 JUMP JUMPDEST SWAP4 POP DUP8 DUP8 DUP6 PUSH2 0x4541 SWAP2 SWAP1 PUSH2 0x56F6 JUMP JUMPDEST PUSH2 0x454B SWAP2 SWAP1 PUSH2 0x56C5 JUMP JUMPDEST SWAP3 POP DUP3 DUP5 PUSH2 0x4559 SWAP2 SWAP1 PUSH2 0x5738 JUMP JUMPDEST SWAP2 POP PUSH1 0x0 DUP4 GT ISZERO PUSH2 0x4608 JUMPI DUP1 PUSH20 0xFFFFFFFFFFFFFFFFFFFFFFFFFFFFFFFFFFFFFFFF AND PUSH4 0x23B872DD PUSH1 0x1C PUSH1 0x0 SWAP1 SLOAD SWAP1 PUSH2 0x100 EXP SWAP1 DIV PUSH20 0xFFFFFFFFFFFFFFFFFFFFFFFFFFFFFFFFFFFFFFFF AND ADDRESS DUP7 PUSH1 0x40 MLOAD DUP5 PUSH4 0xFFFFFFFF AND PUSH1 0xE0 SHL DUP2 MSTORE PUSH1 0x4 ADD PUSH2 0x45C3 SWAP4 SWAP3 SWAP2 SWAP1 PUSH2 0x6003 JUMP JUMPDEST PUSH1 0x20 PUSH1 0x40 MLOAD DUP1 DUP4 SUB DUP2 PUSH1 0x0 DUP8 GAS CALL ISZERO DUP1 ISZERO PUSH2 0x45E2 JUMPI RETURNDATASIZE PUSH1 0x0 DUP1 RETURNDATACOPY RETURNDATASIZE PUSH1 0x0 REVERT JUMPDEST POP POP POP POP PUSH1 0x40 MLOAD RETURNDATASIZE PUSH1 0x1F NOT PUSH1 0x1F DUP3 ADD AND DUP3 ADD DUP1 PUSH1 0x40 MSTORE POP DUP2 ADD SWAP1 PUSH2 0x4606 SWAP2 SWAP1 PUSH2 0x604F JUMP JUMPDEST POP JUMPDEST PUSH1 0x0 DUP3 GT ISZERO PUSH2 0x46D7 JUMPI DUP1 PUSH20 0xFFFFFFFFFFFFFFFFFFFFFFFFFFFFFFFFFFFFFFFF AND PUSH4 0x23B872DD PUSH1 0x1C PUSH1 0x0 SWAP1 SLOAD SWAP1 PUSH2 0x100 EXP SWAP1 DIV PUSH20 0xFFFFFFFFFFFFFFFFFFFFFFFFFFFFFFFFFFFFFFFF AND PUSH1 0x2 PUSH1 0x0 SWAP1 SLOAD SWAP1 PUSH2 0x100 EXP SWAP1 DIV PUSH20 0xFFFFFFFFFFFFFFFFFFFFFFFFFFFFFFFFFFFFFFFF AND DUP6 PUSH1 0x40 MLOAD DUP5 PUSH4 0xFFFFFFFF AND PUSH1 0xE0 SHL DUP2 MSTORE PUSH1 0x4 ADD PUSH2 0x4692 SWAP4 SWAP3 SWAP2 SWAP1 PUSH2 0x6003 JUMP JUMPDEST PUSH1 0x20 PUSH1 0x40 MLOAD DUP1 DUP4 SUB DUP2 PUSH1 0x0 DUP8 GAS CALL ISZERO DUP1 ISZERO PUSH2 0x46B1 JUMPI RETURNDATASIZE PUSH1 0x0 DUP1 RETURNDATACOPY RETURNDATASIZE PUSH1 0x0 REVERT JUMPDEST POP POP POP POP PUSH1 0x40 MLOAD RETURNDATASIZE PUSH1 0x1F NOT PUSH1 0x1F DUP3 ADD AND DUP3 ADD DUP1 PUSH1 0x40 MSTORE POP DUP2 ADD SWAP1 PUSH2 0x46D5 SWAP2 SWAP1 PUSH2 0x604F JUMP JUMPDEST POP JUMPDEST PUSH1 0x0 DUP7 GT DUP1 ISZERO PUSH2 0x46E7 JUMPI POP PUSH1 0x0 DUP4 GT JUMPDEST ISZERO PUSH2 0x4810 JUMPI PUSH1 0x18 PUSH1 0x0 SWAP1 SLOAD SWAP1 PUSH2 0x100 EXP SWAP1 DIV PUSH20 0xFFFFFFFFFFFFFFFFFFFFFFFFFFFFFFFFFFFFFFFF AND PUSH20 0xFFFFFFFFFFFFFFFFFFFFFFFFFFFFFFFFFFFFFFFF AND PUSH4 0xE8E33700 ADDRESS PUSH1 0x1 PUSH1 0x0 SWAP1 SLOAD SWAP1 PUSH2 0x100 EXP SWAP1 DIV PUSH20 0xFFFFFFFFFFFFFFFFFFFFFFFFFFFFFFFFFFFFFFFF AND DUP10 DUP8 PUSH1 0x0 DUP1 PUSH1 0x2 PUSH1 0x0 SWAP1 SLOAD SWAP1 PUSH2 0x100 EXP SWAP1 DIV PUSH20 0xFFFFFFFFFFFFFFFFFFFFFFFFFFFFFFFFFFFFFFFF AND TIMESTAMP PUSH1 0x40 MLOAD DUP10 PUSH4 0xFFFFFFFF AND PUSH1 0xE0 SHL DUP2 MSTORE PUSH1 0x4 ADD PUSH2 0x479A SWAP9 SWAP8 SWAP7 SWAP6 SWAP5 SWAP4 SWAP3 SWAP2 SWAP1 PUSH2 0x607C JUMP JUMPDEST PUSH1 0x60 PUSH1 0x40 MLOAD DUP1 DUP4 SUB DUP2 PUSH1 0x0 DUP8 GAS CALL SWAP3 POP POP POP DUP1 ISZERO PUSH2 0x47D6 JUMPI POP PUSH1 0x40 MLOAD RETURNDATASIZE PUSH1 0x1F NOT PUSH1 0x1F DUP3 ADD AND DUP3 ADD DUP1 PUSH1 0x40 MSTORE POP DUP2 ADD SWAP1 PUSH2 0x47D3 SWAP2 SWAP1 PUSH2 0x5F83 JUMP JUMPDEST PUSH1 0x1 JUMPDEST PUSH2 0x480B JUMPI PUSH32 0xE944A8AE3EE1160B2678930FB103C5CEADB14ECBB4C16E311D7402F7011322C PUSH1 0x40 MLOAD PUSH1 0x40 MLOAD DUP1 SWAP2 SUB SWAP1 LOG1 PUSH2 0x480F JUMP JUMPDEST POP POP POP JUMPDEST JUMPDEST POP JUMPDEST POP POP POP POP POP POP JUMPDEST PUSH1 0x0 PUSH1 0x1B PUSH1 0x14 PUSH2 0x100 EXP DUP2 SLOAD DUP2 PUSH1 0xFF MUL NOT AND SWAP1 DUP4 ISZERO ISZERO MUL OR SWAP1 SSTORE POP POP POP JUMP JUMPDEST DUP4 PUSH1 0x15 PUSH1 0x0 DUP9 PUSH20 0xFFFFFFFFFFFFFFFFFFFFFFFFFFFFFFFFFFFFFFFF AND PUSH20 0xFFFFFFFFFFFFFFFFFFFFFFFFFFFFFFFFFFFFFFFF AND DUP2 MSTORE PUSH1 0x20 ADD SWAP1 DUP2 MSTORE PUSH1 0x20 ADD PUSH1 0x0 KECCAK256 SLOAD PUSH2 0x4883 SWAP2 SWAP1 PUSH2 0x5738 JUMP JUMPDEST PUSH1 0x15 PUSH1 0x0 DUP9 PUSH20 0xFFFFFFFFFFFFFFFFFFFFFFFFFFFFFFFFFFFFFFFF AND PUSH20 0xFFFFFFFFFFFFFFFFFFFFFFFFFFFFFFFFFFFFFFFF AND DUP2 MSTORE PUSH1 0x20 ADD SWAP1 DUP2 MSTORE PUSH1 0x20 ADD PUSH1 0x0 KECCAK256 DUP2 SWAP1 SSTORE POP PUSH1 0x0 DUP4 ISZERO PUSH2 0x49B0 JUMPI PUSH1 0x0 DUP4 ISZERO PUSH2 0x48ED JUMPI PUSH1 0x7 SLOAD PUSH1 0x6 SLOAD PUSH2 0x48E6 SWAP2 SWAP1 PUSH2 0x576C JUMP JUMPDEST SWAP1 POP PUSH2 0x4900 JUMP JUMPDEST PUSH1 0x4 SLOAD PUSH1 0x3 SLOAD PUSH2 0x48FD SWAP2 SWAP1 PUSH2 0x576C JUMP JUMPDEST SWAP1 POP JUMPDEST PUSH1 0x0 PUSH2 0x2710 DUP3 DUP9 PUSH2 0x4911 SWAP2 SWAP1 PUSH2 0x56F6 JUMP JUMPDEST PUSH2 0x491B SWAP2 SWAP1 PUSH2 0x56C5 JUMP JUMPDEST SWAP1 POP PUSH1 0x0 DUP2 GT ISZERO PUSH2 0x4940 JUMPI DUP1 DUP4 PUSH2 0x4932 SWAP2 SWAP1 PUSH2 0x576C JUMP JUMPDEST SWAP3 POP PUSH2 0x493F DUP10 ADDRESS DUP4 PUSH2 0x4AEB JUMP JUMPDEST JUMPDEST PUSH1 0x0 DUP6 PUSH2 0x4969 JUMPI PUSH2 0x2710 PUSH1 0x5 SLOAD DUP10 PUSH2 0x4958 SWAP2 SWAP1 PUSH2 0x56F6 JUMP JUMPDEST PUSH2 0x4962 SWAP2 SWAP1 PUSH2 0x56C5 JUMP JUMPDEST SWAP1 POP PUSH2 0x4987 JUMP JUMPDEST PUSH2 0x2710 PUSH1 0x8 SLOAD DUP10 PUSH2 0x497A SWAP2 SWAP1 PUSH2 0x56F6 JUMP JUMPDEST PUSH2 0x4984 SWAP2 SWAP1 PUSH2 0x56C5 JUMP JUMPDEST SWAP1 POP JUMPDEST PUSH1 0x0 DUP2 GT ISZERO PUSH2 0x49AC JUMPI DUP1 DUP5 PUSH2 0x499C SWAP2 SWAP1 PUSH2 0x576C JUMP JUMPDEST SWAP4 POP PUSH2 0x49AB DUP11 PUSH2 0xDEAD DUP4 PUSH2 0x4AEB JUMP JUMPDEST JUMPDEST POP POP POP JUMPDEST DUP2 DUP1 ISZERO PUSH2 0x4A07 JUMPI POP PUSH1 0x1A PUSH1 0x0 DUP9 PUSH20 0xFFFFFFFFFFFFFFFFFFFFFFFFFFFFFFFFFFFFFFFF AND PUSH20 0xFFFFFFFFFFFFFFFFFFFFFFFFFFFFFFFFFFFFFFFF AND DUP2 MSTORE PUSH1 0x20 ADD SWAP1 DUP2 MSTORE PUSH1 0x20 ADD PUSH1 0x0 KECCAK256 PUSH1 0x0 SWAP1 SLOAD SWAP1 PUSH2 0x100 EXP SWAP1 DIV PUSH1 0xFF AND ISZERO JUMPDEST DUP1 ISZERO PUSH2 0x4A5D JUMPI POP PUSH1 0x1A PUSH1 0x0 DUP8 PUSH20 0xFFFFFFFFFFFFFFFFFFFFFFFFFFFFFFFFFFFFFFFF AND PUSH20 0xFFFFFFFFFFFFFFFFFFFFFFFFFFFFFFFFFFFFFFFF AND DUP2 MSTORE PUSH1 0x20 ADD SWAP1 DUP2 MSTORE PUSH1 0x20 ADD PUSH1 0x0 KECCAK256 PUSH1 0x0 SWAP1 SLOAD SWAP1 PUSH2 0x100 EXP SWAP1 DIV PUSH1 0xFF AND ISZERO JUMPDEST ISZERO PUSH2 0x4AA6 JUMPI PUSH1 0x0 PUSH2 0x2710 PUSH1 0x1F SLOAD DUP8 PUSH2 0x4A75 SWAP2 SWAP1 PUSH2 0x56F6 JUMP JUMPDEST PUSH2 0x4A7F SWAP2 SWAP1 PUSH2 0x56C5 JUMP JUMPDEST SWAP1 POP PUSH1 0x0 DUP2 GT ISZERO PUSH2 0x4AA4 JUMPI DUP1 DUP3 PUSH2 0x4A96 SWAP2 SWAP1 PUSH2 0x576C JUMP JUMPDEST SWAP2 POP PUSH2 0x4AA3 DUP9 ADDRESS DUP4 PUSH2 0x4AEB JUMP JUMPDEST JUMPDEST POP JUMPDEST DUP2 DUP1 PUSH2 0x4AAF JUMPI POP DUP3 JUMPDEST ISZERO PUSH2 0x4ACC JUMPI PUSH2 0x4ACB DUP8 DUP8 DUP4 DUP9 PUSH2 0x4AC5 SWAP2 SWAP1 PUSH2 0x5738 JUMP JUMPDEST DUP6 PUSH2 0x4BE3 JUMP JUMPDEST JUMPDEST PUSH2 0x4AE2 DUP8 DUP8 DUP4 DUP9 PUSH2 0x4ADD SWAP2 SWAP1 PUSH2 0x5738 JUMP JUMPDEST PUSH2 0x4AEB JUMP JUMPDEST POP POP POP POP POP POP POP JUMP JUMPDEST DUP1 PUSH1 0x15 PUSH1 0x0 DUP5 PUSH20 0xFFFFFFFFFFFFFFFFFFFFFFFFFFFFFFFFFFFFFFFF AND PUSH20 0xFFFFFFFFFFFFFFFFFFFFFFFFFFFFFFFFFFFFFFFF AND DUP2 MSTORE PUSH1 0x20 ADD SWAP1 DUP2 MSTORE PUSH1 0x20 ADD PUSH1 0x0 KECCAK256 SLOAD PUSH2 0x4B36 SWAP2 SWAP1 PUSH2 0x576C JUMP JUMPDEST PUSH1 0x15 PUSH1 0x0 DUP5 PUSH20 0xFFFFFFFFFFFFFFFFFFFFFFFFFFFFFFFFFFFFFFFF AND PUSH20 0xFFFFFFFFFFFFFFFFFFFFFFFFFFFFFFFFFFFFFFFF AND DUP2 MSTORE PUSH1 0x20 ADD SWAP1 DUP2 MSTORE PUSH1 0x20 ADD PUSH1 0x0 KECCAK256 DUP2 SWAP1 SSTORE POP DUP2 PUSH20 0xFFFFFFFFFFFFFFFFFFFFFFFFFFFFFFFFFFFFFFFF AND DUP4 PUSH20 0xFFFFFFFFFFFFFFFFFFFFFFFFFFFFFFFFFFFFFFFF AND PUSH32 0xDDF252AD1BE2C89B69C2B068FC378DAA952BA7F163C4A11628F55A4DF523B3EF DUP4 PUSH1 0x40 MLOAD PUSH2 0x4BD6 SWAP2 SWAP1 PUSH2 0x4F91 JUMP JUMPDEST PUSH1 0x40 MLOAD DUP1 SWAP2 SUB SWAP1 LOG3 POP POP POP JUMP JUMPDEST PUSH1 0x12 PUSH1 0x0 SWAP1 SLOAD SWAP1 PUSH2 0x100 EXP SWAP1 DIV PUSH1 0xFF AND ISZERO PUSH2 0x4E67 JUMPI PUSH1 0x0 PUSH1 0x13 PUSH1 0x0 DUP7 PUSH20 0xFFFFFFFFFFFFFFFFFFFFFFFFFFFFFFFFFFFFFFFF AND PUSH20 0xFFFFFFFFFFFFFFFFFFFFFFFFFFFFFFFFFFFFFFFF AND DUP2 MSTORE PUSH1 0x20 ADD SWAP1 DUP2 MSTORE PUSH1 0x20 ADD PUSH1 0x0 KECCAK256 SWAP1 POP PUSH1 0x0 TIMESTAMP SWAP1 POP DUP2 PUSH1 0x0 ADD PUSH1 0x2 SWAP1 SLOAD SWAP1 PUSH2 0x100 EXP SWAP1 DIV PUSH4 0xFFFFFFFF AND PUSH4 0xFFFFFFFF AND DUP2 GT ISZERO PUSH2 0x4CD2 JUMPI PUSH1 0x12 PUSH1 0x1 SWAP1 SLOAD SWAP1 PUSH2 0x100 EXP SWAP1 DIV PUSH2 0xFFFF AND DUP3 PUSH1 0x0 ADD PUSH1 0x0 PUSH2 0x100 EXP DUP2 SLOAD DUP2 PUSH2 0xFFFF MUL NOT AND SWAP1 DUP4 PUSH2 0xFFFF AND MUL OR SWAP1 SSTORE POP PUSH1 0x12 PUSH1 0x3 SWAP1 SLOAD SWAP1 PUSH2 0x100 EXP SWAP1 DIV PUSH4 0xFFFFFFFF AND DUP2 PUSH2 0x4CAF SWAP2 SWAP1 PUSH2 0x60FA JUMP JUMPDEST DUP3 PUSH1 0x0 ADD PUSH1 0x2 PUSH2 0x100 EXP DUP2 SLOAD DUP2 PUSH4 0xFFFFFFFF MUL NOT AND SWAP1 DUP4 PUSH4 0xFFFFFFFF AND MUL OR SWAP1 SSTORE POP JUMPDEST DUP3 ISZERO PUSH2 0x4DC6 JUMPI PUSH1 0x13 PUSH1 0x0 DUP8 PUSH20 0xFFFFFFFFFFFFFFFFFFFFFFFFFFFFFFFFFFFFFFFF AND PUSH20 0xFFFFFFFFFFFFFFFFFFFFFFFFFFFFFFFFFFFFFFFF AND DUP2 MSTORE PUSH1 0x20 ADD SWAP1 DUP2 MSTORE PUSH1 0x20 ADD PUSH1 0x0 KECCAK256 PUSH1 0x13 PUSH1 0x0 DUP8 PUSH20 0xFFFFFFFFFFFFFFFFFFFFFFFFFFFFFFFFFFFFFFFF AND PUSH20 0xFFFFFFFFFFFFFFFFFFFFFFFFFFFFFFFFFFFFFFFF AND DUP2 MSTORE PUSH1 0x20 ADD SWAP1 DUP2 MSTORE PUSH1 0x20 ADD PUSH1 0x0 KECCAK256 PUSH1 0x0 DUP3 ADD PUSH1 0x0 SWAP1 SLOAD SWAP1 PUSH2 0x100 EXP SWAP1 DIV PUSH2 0xFFFF AND DUP2 PUSH1 0x0 ADD PUSH1 0x0 PUSH2 0x100 EXP DUP2 SLOAD DUP2 PUSH2 0xFFFF MUL NOT AND SWAP1 DUP4 PUSH2 0xFFFF AND MUL OR SWAP1 SSTORE POP PUSH1 0x0 DUP3 ADD PUSH1 0x2 SWAP1 SLOAD SWAP1 PUSH2 0x100 EXP SWAP1 DIV PUSH4 0xFFFFFFFF AND DUP2 PUSH1 0x0 ADD PUSH1 0x2 PUSH2 0x100 EXP DUP2 SLOAD DUP2 PUSH4 0xFFFFFFFF MUL NOT AND SWAP1 DUP4 PUSH4 0xFFFFFFFF AND MUL OR SWAP1 SSTORE POP SWAP1 POP POP PUSH2 0x4E64 JUMP JUMPDEST PUSH1 0x0 PUSH2 0x4DD1 DUP6 PUSH2 0x1428 JUMP JUMPDEST SWAP1 POP DUP3 PUSH1 0x0 ADD PUSH1 0x0 SWAP1 SLOAD SWAP1 PUSH2 0x100 EXP SWAP1 DIV PUSH2 0xFFFF AND PUSH2 0xFFFF AND DUP2 PUSH2 0xFFFF AND GT ISZERO PUSH2 0x4E27 JUMPI PUSH1 0x40 MLOAD PUSH32 0x68EF332A00000000000000000000000000000000000000000000000000000000 DUP2 MSTORE PUSH1 0x4 ADD PUSH1 0x40 MLOAD DUP1 SWAP2 SUB SWAP1 REVERT JUMPDEST DUP1 DUP4 PUSH1 0x0 ADD PUSH1 0x0 DUP3 DUP3 DUP3 SWAP1 SLOAD SWAP1 PUSH2 0x100 EXP SWAP1 DIV PUSH2 0xFFFF AND PUSH2 0x4E48 SWAP2 SWAP1 PUSH2 0x6132 JUMP JUMPDEST SWAP3 POP PUSH2 0x100 EXP DUP2 SLOAD DUP2 PUSH2 0xFFFF MUL NOT AND SWAP1 DUP4 PUSH2 0xFFFF AND MUL OR SWAP1 SSTORE POP POP JUMPDEST POP POP JUMPDEST POP POP POP POP JUMP JUMPDEST PUSH1 0x0 DUP1 REVERT JUMPDEST PUSH1 0x0 DUP1 REVERT JUMPDEST PUSH1 0x0 PUSH20 0xFFFFFFFFFFFFFFFFFFFFFFFFFFFFFFFFFFFFFFFF DUP3 AND SWAP1 POP SWAP2 SWAP1 POP JUMP JUMPDEST PUSH1 0x0 PUSH2 0x4EA2 DUP3 PUSH2 0x4E77 JUMP JUMPDEST SWAP1 POP SWAP2 SWAP1 POP JUMP JUMPDEST PUSH2 0x4EB2 DUP2 PUSH2 0x4E97 JUMP JUMPDEST DUP2 EQ PUSH2 0x4EBD JUMPI PUSH1 0x0 DUP1 REVERT JUMPDEST POP JUMP JUMPDEST PUSH1 0x0 DUP2 CALLDATALOAD SWAP1 POP PUSH2 0x4ECF DUP2 PUSH2 0x4EA9 JUMP JUMPDEST SWAP3 SWAP2 POP POP JUMP JUMPDEST PUSH1 0x0 PUSH1 0x20 DUP3 DUP5 SUB SLT ISZERO PUSH2 0x4EEB JUMPI PUSH2 0x4EEA PUSH2 0x4E6D JUMP JUMPDEST JUMPDEST PUSH1 0x0 PUSH2 0x4EF9 DUP5 DUP3 DUP6 ADD PUSH2 0x4EC0 JUMP JUMPDEST SWAP2 POP POP SWAP3 SWAP2 POP POP JUMP JUMPDEST PUSH1 0x0 DUP2 ISZERO ISZERO SWAP1 POP SWAP2 SWAP1 POP JUMP JUMPDEST PUSH2 0x4F17 DUP2 PUSH2 0x4F02 JUMP JUMPDEST DUP3 MSTORE POP POP JUMP JUMPDEST PUSH1 0x0 PUSH1 0x20 DUP3 ADD SWAP1 POP PUSH2 0x4F32 PUSH1 0x0 DUP4 ADD DUP5 PUSH2 0x4F0E JUMP JUMPDEST SWAP3 SWAP2 POP POP JUMP JUMPDEST PUSH1 0x0 DUP1 PUSH1 0x40 DUP4 DUP6 SUB SLT ISZERO PUSH2 0x4F4F JUMPI PUSH2 0x4F4E PUSH2 0x4E6D JUMP JUMPDEST JUMPDEST PUSH1 0x0 PUSH2 0x4F5D DUP6 DUP3 DUP7 ADD PUSH2 0x4EC0 JUMP JUMPDEST SWAP3 POP POP PUSH1 0x20 PUSH2 0x4F6E DUP6 DUP3 DUP7 ADD PUSH2 0x4EC0 JUMP JUMPDEST SWAP2 POP POP SWAP3 POP SWAP3 SWAP1 POP JUMP JUMPDEST PUSH1 0x0 DUP2 SWAP1 POP SWAP2 SWAP1 POP JUMP JUMPDEST PUSH2 0x4F8B DUP2 PUSH2 0x4F78 JUMP JUMPDEST DUP3 MSTORE POP POP JUMP JUMPDEST PUSH1 0x0 PUSH1 0x20 DUP3 ADD SWAP1 POP PUSH2 0x4FA6 PUSH1 0x0 DUP4 ADD DUP5 PUSH2 0x4F82 JUMP JUMPDEST SWAP3 SWAP2 POP POP JUMP JUMPDEST PUSH1 0x0 DUP2 MLOAD SWAP1 POP SWAP2 SWAP1 POP JUMP JUMPDEST PUSH1 0x0 DUP3 DUP3 MSTORE PUSH1 0x20 DUP3 ADD SWAP1 POP SWAP3 SWAP2 POP POP JUMP JUMPDEST PUSH1 0x0 JUMPDEST DUP4 DUP2 LT ISZERO PUSH2 0x4FE6 JUMPI DUP1 DUP3 ADD MLOAD DUP2 DUP5 ADD MSTORE PUSH1 0x20 DUP2 ADD SWAP1 POP PUSH2 0x4FCB JUMP JUMPDEST PUSH1 0x0 DUP5 DUP5 ADD MSTORE POP POP POP POP JUMP JUMPDEST PUSH1 0x0 PUSH1 0x1F NOT PUSH1 0x1F DUP4 ADD AND SWAP1 POP SWAP2 SWAP1 POP JUMP JUMPDEST PUSH1 0x0 PUSH2 0x500E DUP3 PUSH2 0x4FAC JUMP JUMPDEST PUSH2 0x5018 DUP2 DUP6 PUSH2 0x4FB7 JUMP JUMPDEST SWAP4 POP PUSH2 0x5028 DUP2 DUP6 PUSH1 0x20 DUP7 ADD PUSH2 0x4FC8 JUMP JUMPDEST PUSH2 0x5031 DUP2 PUSH2 0x4FF2 JUMP JUMPDEST DUP5 ADD SWAP2 POP POP SWAP3 SWAP2 POP POP JUMP JUMPDEST PUSH1 0x0 PUSH1 0x20 DUP3 ADD SWAP1 POP DUP2 DUP2 SUB PUSH1 0x0 DUP4 ADD MSTORE PUSH2 0x5056 DUP2 DUP5 PUSH2 0x5003 JUMP JUMPDEST SWAP1 POP SWAP3 SWAP2 POP POP JUMP JUMPDEST PUSH2 0x5067 DUP2 PUSH2 0x4F02 JUMP JUMPDEST DUP2 EQ PUSH2 0x5072 JUMPI PUSH1 0x0 DUP1 REVERT JUMPDEST POP JUMP JUMPDEST PUSH1 0x0 DUP2 CALLDATALOAD SWAP1 POP PUSH2 0x5084 DUP2 PUSH2 0x505E JUMP JUMPDEST SWAP3 SWAP2 POP POP JUMP JUMPDEST PUSH1 0x0 PUSH1 0x20 DUP3 DUP5 SUB SLT ISZERO PUSH2 0x50A0 JUMPI PUSH2 0x509F PUSH2 0x4E6D JUMP JUMPDEST JUMPDEST PUSH1 0x0 PUSH2 0x50AE DUP5 DUP3 DUP6 ADD PUSH2 0x5075 JUMP JUMPDEST SWAP2 POP POP SWAP3 SWAP2 POP POP JUMP JUMPDEST PUSH2 0x50C0 DUP2 PUSH2 0x4F78 JUMP JUMPDEST DUP2 EQ PUSH2 0x50CB JUMPI PUSH1 0x0 DUP1 REVERT JUMPDEST POP JUMP JUMPDEST PUSH1 0x0 DUP2 CALLDATALOAD SWAP1 POP PUSH2 0x50DD DUP2 PUSH2 0x50B7 JUMP JUMPDEST SWAP3 SWAP2 POP POP JUMP JUMPDEST PUSH1 0x0 DUP1 PUSH1 0x40 DUP4 DUP6 SUB SLT ISZERO PUSH2 0x50FA JUMPI PUSH2 0x50F9 PUSH2 0x4E6D JUMP JUMPDEST JUMPDEST PUSH1 0x0 PUSH2 0x5108 DUP6 DUP3 DUP7 ADD PUSH2 0x4EC0 JUMP JUMPDEST SWAP3 POP POP PUSH1 0x20 PUSH2 0x5119 DUP6 DUP3 DUP7 ADD PUSH2 0x50CE JUMP JUMPDEST SWAP2 POP POP SWAP3 POP SWAP3 SWAP1 POP JUMP JUMPDEST PUSH1 0x0 PUSH1 0x20 DUP3 DUP5 SUB SLT ISZERO PUSH2 0x5139 JUMPI PUSH2 0x5138 PUSH2 0x4E6D JUMP JUMPDEST JUMPDEST PUSH1 0x0 PUSH2 0x5147 DUP5 DUP3 DUP6 ADD PUSH2 0x50CE JUMP JUMPDEST SWAP2 POP POP SWAP3 SWAP2 POP POP JUMP JUMPDEST PUSH1 0x0 DUP1 REVERT JUMPDEST PUSH1 0x0 DUP1 REVERT JUMPDEST PUSH1 0x0 DUP1 REVERT JUMPDEST PUSH1 0x0 DUP1 DUP4 PUSH1 0x1F DUP5 ADD SLT PUSH2 0x5175 JUMPI PUSH2 0x5174 PUSH2 0x5150 JUMP JUMPDEST JUMPDEST DUP3 CALLDATALOAD SWAP1 POP PUSH8 0xFFFFFFFFFFFFFFFF DUP2 GT ISZERO PUSH2 0x5192 JUMPI PUSH2 0x5191 PUSH2 0x5155 JUMP JUMPDEST JUMPDEST PUSH1 0x20 DUP4 ADD SWAP2 POP DUP4 PUSH1 0x20 DUP3 MUL DUP4 ADD GT ISZERO PUSH2 0x51AE JUMPI PUSH2 0x51AD PUSH2 0x515A JUMP JUMPDEST JUMPDEST SWAP3 POP SWAP3 SWAP1 POP JUMP JUMPDEST PUSH1 0x0 DUP1 PUSH1 0x0 PUSH1 0x40 DUP5 DUP7 SUB SLT ISZERO PUSH2 0x51CE JUMPI PUSH2 0x51CD PUSH2 0x4E6D JUMP JUMPDEST JUMPDEST PUSH1 0x0 DUP5 ADD CALLDATALOAD PUSH8 0xFFFFFFFFFFFFFFFF DUP2 GT ISZERO PUSH2 0x51EC JUMPI PUSH2 0x51EB PUSH2 0x4E72 JUMP JUMPDEST JUMPDEST PUSH2 0x51F8 DUP7 DUP3 DUP8 ADD PUSH2 0x515F JUMP JUMPDEST SWAP4 POP SWAP4 POP POP PUSH1 0x20 PUSH2 0x520B DUP7 DUP3 DUP8 ADD PUSH2 0x5075 JUMP JUMPDEST SWAP2 POP POP SWAP3 POP SWAP3 POP SWAP3 JUMP JUMPDEST PUSH1 0x0 DUP2 SWAP1 POP SWAP2 SWAP1 POP JUMP JUMPDEST PUSH1 0x0 PUSH2 0x523A PUSH2 0x5235 PUSH2 0x5230 DUP5 PUSH2 0x4E77 JUMP JUMPDEST PUSH2 0x5215 JUMP JUMPDEST PUSH2 0x4E77 JUMP JUMPDEST SWAP1 POP SWAP2 SWAP1 POP JUMP JUMPDEST PUSH1 0x0 PUSH2 0x524C DUP3 PUSH2 0x521F JUMP JUMPDEST SWAP1 POP SWAP2 SWAP1 POP JUMP JUMPDEST PUSH1 0x0 PUSH2 0x525E DUP3 PUSH2 0x5241 JUMP JUMPDEST SWAP1 POP SWAP2 SWAP1 POP JUMP JUMPDEST PUSH2 0x526E DUP2 PUSH2 0x5253 JUMP JUMPDEST DUP3 MSTORE POP POP JUMP JUMPDEST PUSH1 0x0 PUSH1 0x20 DUP3 ADD SWAP1 POP PUSH2 0x5289 PUSH1 0x0 DUP4 ADD DUP5 PUSH2 0x5265 JUMP JUMPDEST SWAP3 SWAP2 POP POP JUMP JUMPDEST PUSH1 0x0 DUP1 PUSH1 0x0 PUSH1 0x60 DUP5 DUP7 SUB SLT ISZERO PUSH2 0x52A8 JUMPI PUSH2 0x52A7 PUSH2 0x4E6D JUMP JUMPDEST JUMPDEST PUSH1 0x0 PUSH2 0x52B6 DUP7 DUP3 DUP8 ADD PUSH2 0x4EC0 JUMP JUMPDEST SWAP4 POP POP PUSH1 0x20 PUSH2 0x52C7 DUP7 DUP3 DUP8 ADD PUSH2 0x4EC0 JUMP JUMPDEST SWAP3 POP POP PUSH1 0x40 PUSH2 0x52D8 DUP7 DUP3 DUP8 ADD PUSH2 0x50CE JUMP JUMPDEST SWAP2 POP POP SWAP3 POP SWAP3 POP SWAP3 JUMP JUMPDEST PUSH2 0x52EB DUP2 PUSH2 0x4E97 JUMP JUMPDEST DUP3 MSTORE POP POP JUMP JUMPDEST PUSH1 0x0 PUSH1 0x20 DUP3 ADD SWAP1 POP PUSH2 0x5306 PUSH1 0x0 DUP4 ADD DUP5 PUSH2 0x52E2 JUMP JUMPDEST SWAP3 SWAP2 POP POP JUMP JUMPDEST PUSH1 0x0 PUSH2 0xFFFF DUP3 AND SWAP1 POP SWAP2 SWAP1 POP JUMP JUMPDEST PUSH2 0x5323 DUP2 PUSH2 0x530C JUMP JUMPDEST DUP3 MSTORE POP POP JUMP JUMPDEST PUSH1 0x0 PUSH1 0x20 DUP3 ADD SWAP1 POP PUSH2 0x533E PUSH1 0x0 DUP4 ADD DUP5 PUSH2 0x531A JUMP JUMPDEST SWAP3 SWAP2 POP POP JUMP JUMPDEST PUSH1 0x0 PUSH4 0xFFFFFFFF DUP3 AND SWAP1 POP SWAP2 SWAP1 POP JUMP JUMPDEST PUSH2 0x535D DUP2 PUSH2 0x5344 JUMP JUMPDEST DUP3 MSTORE POP POP JUMP JUMPDEST PUSH1 0x0 PUSH1 0x40 DUP3 ADD SWAP1 POP PUSH2 0x5378 PUSH1 0x0 DUP4 ADD DUP6 PUSH2 0x531A JUMP JUMPDEST PUSH2 0x5385 PUSH1 0x20 DUP4 ADD DUP5 PUSH2 0x5354 JUMP JUMPDEST SWAP4 SWAP3 POP POP POP JUMP JUMPDEST PUSH1 0x0 PUSH2 0x5397 DUP3 PUSH2 0x5241 JUMP JUMPDEST SWAP1 POP SWAP2 SWAP1 POP JUMP JUMPDEST PUSH2 0x53A7 DUP2 PUSH2 0x538C JUMP JUMPDEST DUP3 MSTORE POP POP JUMP JUMPDEST PUSH1 0x0 PUSH1 0x20 DUP3 ADD SWAP1 POP PUSH2 0x53C2 PUSH1 0x0 DUP4 ADD DUP5 PUSH2 0x539E JUMP JUMPDEST SWAP3 SWAP2 POP POP JUMP JUMPDEST PUSH1 0x0 DUP1 PUSH1 0x40 DUP4 DUP6 SUB SLT ISZERO PUSH2 0x53DF JUMPI PUSH2 0x53DE PUSH2 0x4E6D JUMP JUMPDEST JUMPDEST PUSH1 0x0 PUSH2 0x53ED DUP6 DUP3 DUP7 ADD PUSH2 0x50CE JUMP JUMPDEST SWAP3 POP POP PUSH1 0x20 PUSH2 0x53FE DUP6 DUP3 DUP7 ADD PUSH2 0x50CE JUMP JUMPDEST SWAP2 POP POP SWAP3 POP SWAP3 SWAP1 POP JUMP JUMPDEST PUSH1 0x0 DUP1 PUSH1 0x40 DUP4 DUP6 SUB SLT ISZERO PUSH2 0x541F JUMPI PUSH2 0x541E PUSH2 0x4E6D JUMP JUMPDEST JUMPDEST PUSH1 0x0 PUSH2 0x542D DUP6 DUP3 DUP7 ADD PUSH2 0x4EC0 JUMP JUMPDEST SWAP3 POP POP PUSH1 0x20 PUSH2 0x543E DUP6 DUP3 DUP7 ADD PUSH2 0x5075 JUMP JUMPDEST SWAP2 POP POP SWAP3 POP SWAP3 SWAP1 POP JUMP JUMPDEST PUSH1 0x0 DUP1 DUP4 PUSH1 0x1F DUP5 ADD SLT PUSH2 0x545E JUMPI PUSH2 0x545D PUSH2 0x5150 JUMP JUMPDEST JUMPDEST DUP3 CALLDATALOAD SWAP1 POP PUSH8 0xFFFFFFFFFFFFFFFF DUP2 GT ISZERO PUSH2 0x547B JUMPI PUSH2 0x547A PUSH2 0x5155 JUMP JUMPDEST JUMPDEST PUSH1 0x20 DUP4 ADD SWAP2 POP DUP4 PUSH1 0x20 DUP3 MUL DUP4 ADD GT ISZERO PUSH2 0x5497 JUMPI PUSH2 0x5496 PUSH2 0x515A JUMP JUMPDEST JUMPDEST SWAP3 POP SWAP3 SWAP1 POP JUMP JUMPDEST PUSH1 0x0 DUP1 PUSH1 0x20 DUP4 DUP6 SUB SLT ISZERO PUSH2 0x54B5 JUMPI PUSH2 0x54B4 PUSH2 0x4E6D JUMP JUMPDEST JUMPDEST PUSH1 0x0 DUP4 ADD CALLDATALOAD PUSH8 0xFFFFFFFFFFFFFFFF DUP2 GT ISZERO PUSH2 0x54D3 JUMPI PUSH2 0x54D2 PUSH2 0x4E72 JUMP JUMPDEST JUMPDEST PUSH2 0x54DF DUP6 DUP3 DUP7 ADD PUSH2 0x5448 JUMP JUMPDEST SWAP3 POP SWAP3 POP POP SWAP3 POP SWAP3 SWAP1 POP JUMP JUMPDEST PUSH1 0x0 PUSH1 0x20 DUP3 ADD SWAP1 POP PUSH2 0x5500 PUSH1 0x0 DUP4 ADD DUP5 PUSH2 0x5354 JUMP JUMPDEST SWAP3 SWAP2 POP POP JUMP JUMPDEST PUSH1 0x0 PUSH1 0x40 DUP3 ADD SWAP1 POP PUSH2 0x551B PUSH1 0x0 DUP4 ADD DUP6 PUSH2 0x4F82 JUMP JUMPDEST PUSH2 0x5528 PUSH1 0x20 DUP4 ADD DUP5 PUSH2 0x4F82 JUMP JUMPDEST SWAP4 SWAP3 POP POP POP JUMP JUMPDEST PUSH32 0x4F776E61626C653A2063616C6C6572206973206E6F7420746865206F776E6572 PUSH1 0x0 DUP3 ADD MSTORE POP JUMP JUMPDEST PUSH1 0x0 PUSH2 0x5565 PUSH1 0x20 DUP4 PUSH2 0x4FB7 JUMP JUMPDEST SWAP2 POP PUSH2 0x5570 DUP3 PUSH2 0x552F JUMP JUMPDEST PUSH1 0x20 DUP3 ADD SWAP1 POP SWAP2 SWAP1 POP JUMP JUMPDEST PUSH1 0x0 PUSH1 0x20 DUP3 ADD SWAP1 POP DUP2 DUP2 SUB PUSH1 0x0 DUP4 ADD MSTORE PUSH2 0x5594 DUP2 PUSH2 0x5558 JUMP JUMPDEST SWAP1 POP SWAP2 SWAP1 POP JUMP JUMPDEST PUSH32 0x616C726561647920737461727465640000000000000000000000000000000000 PUSH1 0x0 DUP3 ADD MSTORE POP JUMP JUMPDEST PUSH1 0x0 PUSH2 0x55D1 PUSH1 0xF DUP4 PUSH2 0x4FB7 JUMP JUMPDEST SWAP2 POP PUSH2 0x55DC DUP3 PUSH2 0x559B JUMP JUMPDEST PUSH1 0x20 DUP3 ADD SWAP1 POP SWAP2 SWAP1 POP JUMP JUMPDEST PUSH1 0x0 PUSH1 0x20 DUP3 ADD SWAP1 POP DUP2 DUP2 SUB PUSH1 0x0 DUP4 ADD MSTORE PUSH2 0x5600 DUP2 PUSH2 0x55C4 JUMP JUMPDEST SWAP1 POP SWAP2 SWAP1 POP JUMP JUMPDEST PUSH32 0x4E487B7100000000000000000000000000000000000000000000000000000000 PUSH1 0x0 MSTORE PUSH1 0x22 PUSH1 0x4 MSTORE PUSH1 0x24 PUSH1 0x0 REVERT JUMPDEST PUSH1 0x0 PUSH1 0x2 DUP3 DIV SWAP1 POP PUSH1 0x1 DUP3 AND DUP1 PUSH2 0x564E JUMPI PUSH1 0x7F DUP3 AND SWAP2 POP JUMPDEST PUSH1 0x20 DUP3 LT DUP2 SUB PUSH2 0x5661 JUMPI PUSH2 0x5660 PUSH2 0x5607 JUMP JUMPDEST JUMPDEST POP SWAP2 SWAP1 POP JUMP JUMPDEST PUSH32 0x4E487B7100000000000000000000000000000000000000000000000000000000 PUSH1 0x0 MSTORE PUSH1 0x12 PUSH1 0x4 MSTORE PUSH1 0x24 PUSH1 0x0 REVERT JUMPDEST PUSH32 0x4E487B7100000000000000000000000000000000000000000000000000000000 PUSH1 0x0 MSTORE PUSH1 0x11 PUSH1 0x4 MSTORE PUSH1 0x24 PUSH1 0x0 REVERT JUMPDEST PUSH1 0x0 PUSH2 0x56D0 DUP3 PUSH2 0x4F78 JUMP JUMPDEST SWAP2 POP PUSH2 0x56DB DUP4 PUSH2 0x4F78 JUMP JUMPDEST SWAP3 POP DUP3 PUSH2 0x56EB JUMPI PUSH2 0x56EA PUSH2 0x5667 JUMP JUMPDEST JUMPDEST DUP3 DUP3 DIV SWAP1 POP SWAP3 SWAP2 POP POP JUMP JUMPDEST PUSH1 0x0 PUSH2 0x5701 DUP3 PUSH2 0x4F78 JUMP JUMPDEST SWAP2 POP PUSH2 0x570C DUP4 PUSH2 0x4F78 JUMP JUMPDEST SWAP3 POP DUP3 DUP3 MUL PUSH2 0x571A DUP2 PUSH2 0x4F78 JUMP JUMPDEST SWAP2 POP DUP3 DUP3 DIV DUP5 EQ DUP4 ISZERO OR PUSH2 0x5731 JUMPI PUSH2 0x5730 PUSH2 0x5696 JUMP JUMPDEST JUMPDEST POP SWAP3 SWAP2 POP POP JUMP JUMPDEST PUSH1 0x0 PUSH2 0x5743 DUP3 PUSH2 0x4F78 JUMP JUMPDEST SWAP2 POP PUSH2 0x574E DUP4 PUSH2 0x4F78 JUMP JUMPDEST SWAP3 POP DUP3 DUP3 SUB SWAP1 POP DUP2 DUP2 GT ISZERO PUSH2 0x5766 JUMPI PUSH2 0x5765 PUSH2 0x5696 JUMP JUMPDEST JUMPDEST SWAP3 SWAP2 POP POP JUMP JUMPDEST PUSH1 0x0 PUSH2 0x5777 DUP3 PUSH2 0x4F78 JUMP JUMPDEST SWAP2 POP PUSH2 0x5782 DUP4 PUSH2 0x4F78 JUMP JUMPDEST SWAP3 POP DUP3 DUP3 ADD SWAP1 POP DUP1 DUP3 GT ISZERO PUSH2 0x579A JUMPI PUSH2 0x5799 PUSH2 0x5696 JUMP JUMPDEST JUMPDEST SWAP3 SWAP2 POP POP JUMP JUMPDEST PUSH32 0x4E487B7100000000000000000000000000000000000000000000000000000000 PUSH1 0x0 MSTORE PUSH1 0x32 PUSH1 0x4 MSTORE PUSH1 0x24 PUSH1 0x0 REVERT JUMPDEST PUSH1 0x0 PUSH2 0x57DA DUP3 PUSH2 0x4F78 JUMP JUMPDEST SWAP2 POP PUSH32 0xFFFFFFFFFFFFFFFFFFFFFFFFFFFFFFFFFFFFFFFFFFFFFFFFFFFFFFFFFFFFFFFF DUP3 SUB PUSH2 0x580C JUMPI PUSH2 0x580B PUSH2 0x5696 JUMP JUMPDEST JUMPDEST PUSH1 0x1 DUP3 ADD SWAP1 POP SWAP2 SWAP1 POP JUMP JUMPDEST PUSH32 0x7265776172644C6973742064697361626C656400000000000000000000000000 PUSH1 0x0 DUP3 ADD MSTORE POP JUMP JUMPDEST PUSH1 0x0 PUSH2 0x584D PUSH1 0x13 DUP4 PUSH2 0x4FB7 JUMP JUMPDEST SWAP2 POP PUSH2 0x5858 DUP3 PUSH2 0x5817 JUMP JUMPDEST PUSH1 0x20 DUP3 ADD SWAP1 POP SWAP2 SWAP1 POP JUMP JUMPDEST PUSH1 0x0 PUSH1 0x20 DUP3 ADD SWAP1 POP DUP2 DUP2 SUB PUSH1 0x0 DUP4 ADD MSTORE PUSH2 0x587C DUP2 PUSH2 0x5840 JUMP JUMPDEST SWAP1 POP SWAP2 SWAP1 POP JUMP JUMPDEST PUSH32 0x7472616E73666572203E20323520210000000000000000000000000000000000 PUSH1 0x0 DUP3 ADD MSTORE POP JUMP JUMPDEST PUSH1 0x0 PUSH2 0x58B9 PUSH1 0xF DUP4 PUSH2 0x4FB7 JUMP JUMPDEST SWAP2 POP PUSH2 0x58C4 DUP3 PUSH2 0x5883 JUMP JUMPDEST PUSH1 0x20 DUP3 ADD SWAP1 POP SWAP2 SWAP1 POP JUMP JUMPDEST PUSH1 0x0 PUSH1 0x20 DUP3 ADD SWAP1 POP DUP2 DUP2 SUB PUSH1 0x0 DUP4 ADD MSTORE PUSH2 0x58E8 DUP2 PUSH2 0x58AC JUMP JUMPDEST SWAP1 POP SWAP2 SWAP1 POP JUMP JUMPDEST PUSH32 0x206D617853656C6C2073686F756C64206265203E207468616E206D6178427579 PUSH1 0x0 DUP3 ADD MSTORE PUSH32 0x2000000000000000000000000000000000000000000000000000000000000000 PUSH1 0x20 DUP3 ADD MSTORE POP JUMP JUMPDEST PUSH1 0x0 PUSH2 0x594B PUSH1 0x21 DUP4 PUSH2 0x4FB7 JUMP JUMPDEST SWAP2 POP PUSH2 0x5956 DUP3 PUSH2 0x58EF JUMP JUMPDEST PUSH1 0x40 DUP3 ADD SWAP1 POP SWAP2 SWAP1 POP JUMP JUMPDEST PUSH1 0x0 PUSH1 0x20 DUP3 ADD SWAP1 POP DUP2 DUP2 SUB PUSH1 0x0 DUP4 ADD MSTORE PUSH2 0x597A DUP2 PUSH2 0x593E JUMP JUMPDEST SWAP1 POP SWAP2 SWAP1 POP JUMP JUMPDEST PUSH32 0x746178206368616E67652064697361626C656400000000000000000000000000 PUSH1 0x0 DUP3 ADD MSTORE POP JUMP JUMPDEST PUSH1 0x0 PUSH2 0x59B7 PUSH1 0x13 DUP4 PUSH2 0x4FB7 JUMP JUMPDEST SWAP2 POP PUSH2 0x59C2 DUP3 PUSH2 0x5981 JUMP JUMPDEST PUSH1 0x20 DUP3 ADD SWAP1 POP SWAP2 SWAP1 POP JUMP JUMPDEST PUSH1 0x0 PUSH1 0x20 DUP3 ADD SWAP1 POP DUP2 DUP2 SUB PUSH1 0x0 DUP4 ADD MSTORE PUSH2 0x59E6 DUP2 PUSH2 0x59AA JUMP JUMPDEST SWAP1 POP SWAP2 SWAP1 POP JUMP JUMPDEST PUSH32 0x66656520746F6F20686967680000000000000000000000000000000000000000 PUSH1 0x0 DUP3 ADD MSTORE POP JUMP JUMPDEST PUSH1 0x0 PUSH2 0x5A23 PUSH1 0xC DUP4 PUSH2 0x4FB7 JUMP JUMPDEST SWAP2 POP PUSH2 0x5A2E DUP3 PUSH2 0x59ED JUMP JUMPDEST PUSH1 0x20 DUP3 ADD SWAP1 POP SWAP2 SWAP1 POP JUMP JUMPDEST PUSH1 0x0 PUSH1 0x20 DUP3 ADD SWAP1 POP DUP2 DUP2 SUB PUSH1 0x0 DUP4 ADD MSTORE PUSH2 0x5A52 DUP2 PUSH2 0x5A16 JUMP JUMPDEST SWAP1 POP SWAP2 SWAP1 POP JUMP JUMPDEST PUSH32 0x6E657756616C7565206D757374203C3D20330000000000000000000000000000 PUSH1 0x0 DUP3 ADD MSTORE POP JUMP JUMPDEST PUSH1 0x0 PUSH2 0x5A8F PUSH1 0x12 DUP4 PUSH2 0x4FB7 JUMP JUMPDEST SWAP2 POP PUSH2 0x5A9A DUP3 PUSH2 0x5A59 JUMP JUMPDEST PUSH1 0x20 DUP3 ADD SWAP1 POP SWAP2 SWAP1 POP JUMP JUMPDEST PUSH1 0x0 PUSH1 0x20 DUP3 ADD SWAP1 POP DUP2 DUP2 SUB PUSH1 0x0 DUP4 ADD MSTORE PUSH2 0x5ABE DUP2 PUSH2 0x5A82 JUMP JUMPDEST SWAP1 POP SWAP2 SWAP1 POP JUMP JUMPDEST PUSH32 0x4F776E61626C653A206E6577206F776E657220697320746865207A65726F2061 PUSH1 0x0 DUP3 ADD MSTORE PUSH32 0x6464726573730000000000000000000000000000000000000000000000000000 PUSH1 0x20 DUP3 ADD MSTORE POP JUMP JUMPDEST PUSH1 0x0 PUSH2 0x5B21 PUSH1 0x26 DUP4 PUSH2 0x4FB7 JUMP JUMPDEST SWAP2 POP PUSH2 0x5B2C DUP3 PUSH2 0x5AC5 JUMP JUMPDEST PUSH1 0x40 DUP3 ADD SWAP1 POP SWAP2 SWAP1 POP JUMP JUMPDEST PUSH1 0x0 PUSH1 0x20 DUP3 ADD SWAP1 POP DUP2 DUP2 SUB PUSH1 0x0 DUP4 ADD MSTORE PUSH2 0x5B50 DUP2 PUSH2 0x5B14 JUMP JUMPDEST SWAP1 POP SWAP2 SWAP1 POP JUMP JUMPDEST PUSH32 0x6973526577617264203E20302021000000000000000000000000000000000000 PUSH1 0x0 DUP3 ADD MSTORE POP JUMP JUMPDEST PUSH1 0x0 PUSH2 0x5B8D PUSH1 0xE DUP4 PUSH2 0x4FB7 JUMP JUMPDEST SWAP2 POP PUSH2 0x5B98 DUP3 PUSH2 0x5B57 JUMP JUMPDEST PUSH1 0x20 DUP3 ADD SWAP1 POP SWAP2 SWAP1 POP JUMP JUMPDEST PUSH1 0x0 PUSH1 0x20 DUP3 ADD SWAP1 POP DUP2 DUP2 SUB PUSH1 0x0 DUP4 ADD MSTORE PUSH2 0x5BBC DUP2 PUSH2 0x5B80 JUMP JUMPDEST SWAP1 POP SWAP2 SWAP1 POP JUMP JUMPDEST PUSH32 0x62616C616E63654E6F74456E6F75676800000000000000000000000000000000 PUSH1 0x0 DUP3 ADD MSTORE POP JUMP JUMPDEST PUSH1 0x0 PUSH2 0x5BF9 PUSH1 0x10 DUP4 PUSH2 0x4FB7 JUMP JUMPDEST SWAP2 POP PUSH2 0x5C04 DUP3 PUSH2 0x5BC3 JUMP JUMPDEST PUSH1 0x20 DUP3 ADD SWAP1 POP SWAP2 SWAP1 POP JUMP JUMPDEST PUSH1 0x0 PUSH1 0x20 DUP3 ADD SWAP1 POP DUP2 DUP2 SUB PUSH1 0x0 DUP4 ADD MSTORE PUSH2 0x5C28 DUP2 PUSH2 0x5BEC JUMP JUMPDEST SWAP1 POP SWAP2 SWAP1 POP JUMP JUMPDEST PUSH1 0x0 DUP2 SWAP1 POP SWAP2 SWAP1 POP JUMP JUMPDEST PUSH2 0x5C4A PUSH2 0x5C45 DUP3 PUSH2 0x4F78 JUMP JUMPDEST PUSH2 0x5C2F JUMP JUMPDEST DUP3 MSTORE POP POP JUMP JUMPDEST PUSH1 0x0 PUSH2 0x5C5C DUP3 DUP7 PUSH2 0x5C39 JUMP JUMPDEST PUSH1 0x20 DUP3 ADD SWAP2 POP PUSH2 0x5C6C DUP3 DUP6 PUSH2 0x5C39 JUMP JUMPDEST PUSH1 0x20 DUP3 ADD SWAP2 POP PUSH2 0x5C7C DUP3 DUP5 PUSH2 0x5C39 JUMP JUMPDEST PUSH1 0x20 DUP3 ADD SWAP2 POP DUP2 SWAP1 POP SWAP5 SWAP4 POP POP POP POP JUMP JUMPDEST PUSH32 0x4578636565646564206D6178696D756D207472616E73616374696F6E20766F6C PUSH1 0x0 DUP3 ADD MSTORE PUSH32 0x756D650000000000000000000000000000000000000000000000000000000000 PUSH1 0x20 DUP3 ADD MSTORE POP JUMP JUMPDEST PUSH1 0x0 PUSH2 0x5CE9 PUSH1 0x23 DUP4 PUSH2 0x4FB7 JUMP JUMPDEST SWAP2 POP PUSH2 0x5CF4 DUP3 PUSH2 0x5C8D JUMP JUMPDEST PUSH1 0x40 DUP3 ADD SWAP1 POP SWAP2 SWAP1 POP JUMP JUMPDEST PUSH1 0x0 PUSH1 0x20 DUP3 ADD SWAP1 POP DUP2 DUP2 SUB PUSH1 0x0 DUP4 ADD MSTORE PUSH2 0x5D18 DUP2 PUSH2 0x5CDC JUMP JUMPDEST SWAP1 POP SWAP2 SWAP1 POP JUMP JUMPDEST PUSH32 0x4578636565646564206D6178696D756D2077616C6C65742062616C616E636500 PUSH1 0x0 DUP3 ADD MSTORE POP JUMP JUMPDEST PUSH1 0x0 PUSH2 0x5D55 PUSH1 0x1F DUP4 PUSH2 0x4FB7 JUMP JUMPDEST SWAP2 POP PUSH2 0x5D60 DUP3 PUSH2 0x5D1F JUMP JUMPDEST PUSH1 0x20 DUP3 ADD SWAP1 POP SWAP2 SWAP1 POP JUMP JUMPDEST PUSH1 0x0 PUSH1 0x20 DUP3 ADD SWAP1 POP DUP2 DUP2 SUB PUSH1 0x0 DUP4 ADD MSTORE PUSH2 0x5D84 DUP2 PUSH2 0x5D48 JUMP JUMPDEST SWAP1 POP SWAP2 SWAP1 POP JUMP JUMPDEST PUSH32 0x4E487B7100000000000000000000000000000000000000000000000000000000 PUSH1 0x0 MSTORE PUSH1 0x41 PUSH1 0x4 MSTORE PUSH1 0x24 PUSH1 0x0 REVERT JUMPDEST PUSH1 0x0 DUP2 SWAP1 POP SWAP2 SWAP1 POP JUMP JUMPDEST PUSH1 0x0 PUSH2 0x5DDF PUSH2 0x5DDA PUSH2 0x5DD5 DUP5 PUSH2 0x5DBA JUMP JUMPDEST PUSH2 0x5215 JUMP JUMPDEST PUSH2 0x4F78 JUMP JUMPDEST SWAP1 POP SWAP2 SWAP1 POP JUMP JUMPDEST PUSH2 0x5DEF DUP2 PUSH2 0x5DC4 JUMP JUMPDEST DUP3 MSTORE POP POP JUMP JUMPDEST PUSH1 0x0 DUP2 MLOAD SWAP1 POP SWAP2 SWAP1 POP JUMP JUMPDEST PUSH1 0x0 DUP3 DUP3 MSTORE PUSH1 0x20 DUP3 ADD SWAP1 POP SWAP3 SWAP2 POP POP JUMP JUMPDEST PUSH1 0x0 DUP2 SWAP1 POP PUSH1 0x20 DUP3 ADD SWAP1 POP SWAP2 SWAP1 POP JUMP JUMPDEST PUSH2 0x5E2A DUP2 PUSH2 0x4E97 JUMP JUMPDEST DUP3 MSTORE POP POP JUMP JUMPDEST PUSH1 0x0 PUSH2 0x5E3C DUP4 DUP4 PUSH2 0x5E21 JUMP JUMPDEST PUSH1 0x20 DUP4 ADD SWAP1 POP SWAP3 SWAP2 POP POP JUMP JUMPDEST PUSH1 0x0 PUSH1 0x20 DUP3 ADD SWAP1 POP SWAP2 SWAP1 POP JUMP JUMPDEST PUSH1 0x0 PUSH2 0x5E60 DUP3 PUSH2 0x5DF5 JUMP JUMPDEST PUSH2 0x5E6A DUP2 DUP6 PUSH2 0x5E00 JUMP JUMPDEST SWAP4 POP PUSH2 0x5E75 DUP4 PUSH2 0x5E11 JUMP JUMPDEST DUP1 PUSH1 0x0 JUMPDEST DUP4 DUP2 LT ISZERO PUSH2 0x5EA6 JUMPI DUP2 MLOAD PUSH2 0x5E8D DUP9 DUP3 PUSH2 0x5E30 JUMP JUMPDEST SWAP8 POP PUSH2 0x5E98 DUP4 PUSH2 0x5E48 JUMP JUMPDEST SWAP3 POP POP PUSH1 0x1 DUP2 ADD SWAP1 POP PUSH2 0x5E79 JUMP JUMPDEST POP DUP6 SWAP4 POP POP POP POP SWAP3 SWAP2 POP POP JUMP JUMPDEST PUSH1 0x0 PUSH1 0xA0 DUP3 ADD SWAP1 POP PUSH2 0x5EC8 PUSH1 0x0 DUP4 ADD DUP9 PUSH2 0x4F82 JUMP JUMPDEST PUSH2 0x5ED5 PUSH1 0x20 DUP4 ADD DUP8 PUSH2 0x5DE6 JUMP JUMPDEST DUP2 DUP2 SUB PUSH1 0x40 DUP4 ADD MSTORE PUSH2 0x5EE7 DUP2 DUP7 PUSH2 0x5E55 JUMP JUMPDEST SWAP1 POP PUSH2 0x5EF6 PUSH1 0x60 DUP4 ADD DUP6 PUSH2 0x52E2 JUMP JUMPDEST PUSH2 0x5F03 PUSH1 0x80 DUP4 ADD DUP5 PUSH2 0x4F82 JUMP JUMPDEST SWAP7 SWAP6 POP POP POP POP POP POP JUMP JUMPDEST PUSH1 0x0 PUSH1 0xC0 DUP3 ADD SWAP1 POP PUSH2 0x5F22 PUSH1 0x0 DUP4 ADD DUP10 PUSH2 0x52E2 JUMP JUMPDEST PUSH2 0x5F2F PUSH1 0x20 DUP4 ADD DUP9 PUSH2 0x4F82 JUMP JUMPDEST PUSH2 0x5F3C PUSH1 0x40 DUP4 ADD DUP8 PUSH2 0x5DE6 JUMP JUMPDEST PUSH2 0x5F49 PUSH1 0x60 DUP4 ADD DUP7 PUSH2 0x5DE6 JUMP JUMPDEST PUSH2 0x5F56 PUSH1 0x80 DUP4 ADD DUP6 PUSH2 0x52E2 JUMP JUMPDEST PUSH2 0x5F63 PUSH1 0xA0 DUP4 ADD DUP5 PUSH2 0x4F82 JUMP JUMPDEST SWAP8 SWAP7 POP POP POP POP POP POP POP JUMP JUMPDEST PUSH1 0x0 DUP2 MLOAD SWAP1 POP PUSH2 0x5F7D DUP2 PUSH2 0x50B7 JUMP JUMPDEST SWAP3 SWAP2 POP POP JUMP JUMPDEST PUSH1 0x0 DUP1 PUSH1 0x0 PUSH1 0x60 DUP5 DUP7 SUB SLT ISZERO PUSH2 0x5F9C JUMPI PUSH2 0x5F9B PUSH2 0x4E6D JUMP JUMPDEST JUMPDEST PUSH1 0x0 PUSH2 0x5FAA DUP7 DUP3 DUP8 ADD PUSH2 0x5F6E JUMP JUMPDEST SWAP4 POP POP PUSH1 0x20 PUSH2 0x5FBB DUP7 DUP3 DUP8 ADD PUSH2 0x5F6E JUMP JUMPDEST SWAP3 POP POP PUSH1 0x40 PUSH2 0x5FCC DUP7 DUP3 DUP8 ADD PUSH2 0x5F6E JUMP JUMPDEST SWAP2 POP POP SWAP3 POP SWAP3 POP SWAP3 JUMP JUMPDEST PUSH1 0x0 PUSH1 0x20 DUP3 DUP5 SUB SLT ISZERO PUSH2 0x5FEC JUMPI PUSH2 0x5FEB PUSH2 0x4E6D JUMP JUMPDEST JUMPDEST PUSH1 0x0 PUSH2 0x5FFA DUP5 DUP3 DUP6 ADD PUSH2 0x5F6E JUMP JUMPDEST SWAP2 POP POP SWAP3 SWAP2 POP POP JUMP JUMPDEST PUSH1 0x0 PUSH1 0x60 DUP3 ADD SWAP1 POP PUSH2 0x6018 PUSH1 0x0 DUP4 ADD DUP7 PUSH2 0x52E2 JUMP JUMPDEST PUSH2 0x6025 PUSH1 0x20 DUP4 ADD DUP6 PUSH2 0x52E2 JUMP JUMPDEST PUSH2 0x6032 PUSH1 0x40 DUP4 ADD DUP5 PUSH2 0x4F82 JUMP JUMPDEST SWAP5 SWAP4 POP POP POP POP JUMP JUMPDEST PUSH1 0x0 DUP2 MLOAD SWAP1 POP PUSH2 0x6049 DUP2 PUSH2 0x505E JUMP JUMPDEST SWAP3 SWAP2 POP POP JUMP JUMPDEST PUSH1 0x0 PUSH1 0x20 DUP3 DUP5 SUB SLT ISZERO PUSH2 0x6065 JUMPI PUSH2 0x6064 PUSH2 0x4E6D JUMP JUMPDEST JUMPDEST PUSH1 0x0 PUSH2 0x6073 DUP5 DUP3 DUP6 ADD PUSH2 0x603A JUMP JUMPDEST SWAP2 POP POP SWAP3 SWAP2 POP POP JUMP JUMPDEST PUSH1 0x0 PUSH2 0x100 DUP3 ADD SWAP1 POP PUSH2 0x6092 PUSH1 0x0 DUP4 ADD DUP12 PUSH2 0x52E2 JUMP JUMPDEST PUSH2 0x609F PUSH1 0x20 DUP4 ADD DUP11 PUSH2 0x52E2 JUMP JUMPDEST PUSH2 0x60AC PUSH1 0x40 DUP4 ADD DUP10 PUSH2 0x4F82 JUMP JUMPDEST PUSH2 0x60B9 PUSH1 0x60 DUP4 ADD DUP9 PUSH2 0x4F82 JUMP JUMPDEST PUSH2 0x60C6 PUSH1 0x80 DUP4 ADD DUP8 PUSH2 0x5DE6 JUMP JUMPDEST PUSH2 0x60D3 PUSH1 0xA0 DUP4 ADD DUP7 PUSH2 0x5DE6 JUMP JUMPDEST PUSH2 0x60E0 PUSH1 0xC0 DUP4 ADD DUP6 PUSH2 0x52E2 JUMP JUMPDEST PUSH2 0x60ED PUSH1 0xE0 DUP4 ADD DUP5 PUSH2 0x4F82 JUMP JUMPDEST SWAP10 SWAP9 POP POP POP POP POP POP POP POP POP JUMP JUMPDEST PUSH1 0x0 PUSH2 0x6105 DUP3 PUSH2 0x5344 JUMP JUMPDEST SWAP2 POP PUSH2 0x6110 DUP4 PUSH2 0x5344 JUMP JUMPDEST SWAP3 POP DUP3 DUP3 ADD SWAP1 POP PUSH4 0xFFFFFFFF DUP2 GT ISZERO PUSH2 0x612C JUMPI PUSH2 0x612B PUSH2 0x5696 JUMP JUMPDEST JUMPDEST SWAP3 SWAP2 POP POP JUMP JUMPDEST PUSH1 0x0 PUSH2 0x613D DUP3 PUSH2 0x530C JUMP JUMPDEST SWAP2 POP PUSH2 0x6148 DUP4 PUSH2 0x530C JUMP JUMPDEST SWAP3 POP DUP3 DUP3 SUB SWAP1 POP PUSH2 0xFFFF DUP2 GT ISZERO PUSH2 0x6162 JUMPI PUSH2 0x6161 PUSH2 0x5696 JUMP JUMPDEST JUMPDEST SWAP3 SWAP2 POP POP JUMP INVALID LOG2 PUSH5 0x6970667358 0x22 SLT KECCAK256 0xE4 DUP6 PUSH13 0x90ABBF0CFC540EB73638969654 SWAP16 0xD9 0x2E CALLER PUSH17 0x3499ED17AECECD51785E5A64736F6C6343 STOP ADDMOD SGT STOP CALLER PUSH1 0x80 PUSH1 0x40 MSTORE CALLVALUE DUP1 ISZERO PUSH2 0x10 JUMPI PUSH1 0x0 DUP1 REVERT JUMPDEST POP PUSH1 0x40 MLOAD PUSH2 0x24C CODESIZE SUB DUP1 PUSH2 0x24C DUP4 CODECOPY DUP2 DUP2 ADD PUSH1 0x40 MSTORE DUP2 ADD SWAP1 PUSH2 0x32 SWAP2 SWAP1 PUSH2 0x11C JUMP JUMPDEST DUP1 PUSH20 0xFFFFFFFFFFFFFFFFFFFFFFFFFFFFFFFFFFFFFFFF AND PUSH4 0x95EA7B3 CALLER PUSH1 0x0 NOT PUSH1 0x40 MLOAD DUP4 PUSH4 0xFFFFFFFF AND PUSH1 0xE0 SHL DUP2 MSTORE PUSH1 0x4 ADD PUSH2 0x6F SWAP3 SWAP2 SWAP1 PUSH2 0x171 JUMP JUMPDEST PUSH1 0x20 PUSH1 0x40 MLOAD DUP1 DUP4 SUB DUP2 PUSH1 0x0 DUP8 GAS CALL ISZERO DUP1 ISZERO PUSH2 0x8E JUMPI RETURNDATASIZE PUSH1 0x0 DUP1 RETURNDATACOPY RETURNDATASIZE PUSH1 0x0 REVERT JUMPDEST POP POP POP POP PUSH1 0x40 MLOAD RETURNDATASIZE PUSH1 0x1F NOT PUSH1 0x1F DUP3 ADD AND DUP3 ADD DUP1 PUSH1 0x40 MSTORE POP DUP2 ADD SWAP1 PUSH2 0xB2 SWAP2 SWAP1 PUSH2 0x1D2 JUMP JUMPDEST POP POP PUSH2 0x1FF JUMP JUMPDEST PUSH1 0x0 DUP1 REVERT JUMPDEST PUSH1 0x0 PUSH20 0xFFFFFFFFFFFFFFFFFFFFFFFFFFFFFFFFFFFFFFFF DUP3 AND SWAP1 POP SWAP2 SWAP1 POP JUMP JUMPDEST PUSH1 0x0 PUSH2 0xE9 DUP3 PUSH2 0xBE JUMP JUMPDEST SWAP1 POP SWAP2 SWAP1 POP JUMP JUMPDEST PUSH2 0xF9 DUP2 PUSH2 0xDE JUMP JUMPDEST DUP2 EQ PUSH2 0x104 JUMPI PUSH1 0x0 DUP1 REVERT JUMPDEST POP JUMP JUMPDEST PUSH1 0x0 DUP2 MLOAD SWAP1 POP PUSH2 0x116 DUP2 PUSH2 0xF0 JUMP JUMPDEST SWAP3 SWAP2 POP POP JUMP JUMPDEST PUSH1 0x0 PUSH1 0x20 DUP3 DUP5 SUB SLT ISZERO PUSH2 0x132 JUMPI PUSH2 0x131 PUSH2 0xB9 JUMP JUMPDEST JUMPDEST PUSH1 0x0 PUSH2 0x140 DUP5 DUP3 DUP6 ADD PUSH2 0x107 JUMP JUMPDEST SWAP2 POP POP SWAP3 SWAP2 POP POP JUMP JUMPDEST PUSH2 0x152 DUP2 PUSH2 0xDE JUMP JUMPDEST DUP3 MSTORE POP POP JUMP JUMPDEST PUSH1 0x0 DUP2 SWAP1 POP SWAP2 SWAP1 POP JUMP JUMPDEST PUSH2 0x16B DUP2 PUSH2 0x158 JUMP JUMPDEST DUP3 MSTORE POP POP JUMP JUMPDEST PUSH1 0x0 PUSH1 0x40 DUP3 ADD SWAP1 POP PUSH2 0x186 PUSH1 0x0 DUP4 ADD DUP6 PUSH2 0x149 JUMP JUMPDEST PUSH2 0x193 PUSH1 0x20 DUP4 ADD DUP5 PUSH2 0x162 JUMP JUMPDEST SWAP4 SWAP3 POP POP POP JUMP JUMPDEST PUSH1 0x0 DUP2 ISZERO ISZERO SWAP1 POP SWAP2 SWAP1 POP JUMP JUMPDEST PUSH2 0x1AF DUP2 PUSH2 0x19A JUMP JUMPDEST DUP2 EQ PUSH2 0x1BA JUMPI PUSH1 0x0 DUP1 REVERT JUMPDEST POP JUMP JUMPDEST PUSH1 0x0 DUP2 MLOAD SWAP1 POP PUSH2 0x1CC DUP2 PUSH2 0x1A6 JUMP JUMPDEST SWAP3 SWAP2 POP POP JUMP JUMPDEST PUSH1 0x0 PUSH1 0x20 DUP3 DUP5 SUB SLT ISZERO PUSH2 0x1E8 JUMPI PUSH2 0x1E7 PUSH2 0xB9 JUMP JUMPDEST JUMPDEST PUSH1 0x0 PUSH2 0x1F6 DUP5 DUP3 DUP6 ADD PUSH2 0x1BD JUMP JUMPDEST SWAP2 POP POP SWAP3 SWAP2 POP POP JUMP JUMPDEST PUSH1 0x3F DUP1 PUSH2 0x20D PUSH1 0x0 CODECOPY PUSH1 0x0 RETURN INVALID PUSH1 0x80 PUSH1 0x40 MSTORE PUSH1 0x0 DUP1 REVERT INVALID LOG2 PUSH5 0x6970667358 0x22 SLT KECCAK256 SWAP8 MSTORE SWAP15 0xA9 SELFBALANCE 0xB2 SWAP3 ADDRESS JUMP SDIV CREATE SMOD MLOAD SMOD LOG4 PUSH28 0xAD02178C3E8E05F7D9357630E5A15CBF64736F6C6343000813003300 "
		},
		"gasEstimates": {
			"creation": {
				"codeDepositCost": "4998000",
				"executionCost": "infinite",
				"totalCost": "infinite"
			},
			"external": {
				"MAX()": "487",
				"_allowances(address,address)": "infinite",
				"_balances(address)": "2925",
				"_buyBurnFee()": "2497",
				"_buyFundFee()": "2562",
				"_buyLPFee()": "2563",
				"_cooldown(address)": "5243",
				"_cooldownEnabled()": "2560",
				"_feeWhiteList(address)": "2937",
				"_mainPair()": "2582",
				"_rewardList(address)": "2912",
				"_sellBurnFee()": "2542",
				"_sellFundFee()": "2542",
				"_sellLPFee()": "2584",
				"_swapPairList(address)": "2980",
				"_swapRouter()": "infinite",
				"_tokenDistributor()": "infinite",
				"airdropEnable()": "2633",
				"airdropNumbs()": "2562",
				"allowance(address,address)": "infinite",
				"approve(address,uint256)": "infinite",
				"balanceOf(address)": "2974",
				"changeSwapLimit(uint256,uint256)": "infinite",
				"changeWalletLimit(uint256)": "24857",
				"completeCustoms(uint256[])": "infinite",
				"cooldownAllowanceAsTokensRemaining(address)": "infinite",
				"cooldownLength()": "2611",
				"cooldownTimeRemaining(address)": "infinite",
				"currency()": "2580",
				"currencyIsEth()": "2656",
				"decimals()": "2520",
				"disableChangeTax()": "26732",
				"disableSwapLimit()": "26732",
				"disableWalletLimit()": "26752",
				"enableChangeTax()": "2588",
				"enableKillBlock()": "2611",
				"enableOffTrade()": "2632",
				"enableRewardList()": "2589",
				"enableSwapLimit()": "2633",
				"enableTransferFee()": "2560",
				"enableWalletLimit()": "2657",
				"fundAddress()": "2646",
				"isReward(address)": "5296",
				"kb()": "2498",
				"launch()": "26652",
				"maxBuyAmount()": "2541",
				"maxBuyTxInETH()": "infinite",
				"maxSellAmount()": "2496",
				"maxWalletAmount()": "2518",
				"multi_bclist(address[],bool)": "infinite",
				"name()": "infinite",
				"owner()": "2656",
				"priceImpactAllowedPercentage()": "2611",
				"priceImpactToTokens(uint256)": "infinite",
				"renounceOwnership()": "30446",
				"setAirDropEnable(bool)": "27044",
				"setAirdropNumbs(uint256)": "24836",
				"setCooldownEnabled(bool)": "infinite",
				"setEnableTransferFee(bool)": "infinite",
				"setFeeWhiteList(address[],bool)": "infinite",
				"setFundAddress(address)": "51349",
				"setSwapPairList(address,bool)": "27327",
				"setTransferFee(uint256)": "24904",
				"setkb(uint256)": "24813",
				"startTradeBlock()": "2585",
				"symbol()": "infinite",
				"tokensToPriceImpact(uint256)": "infinite",
				"totalSupply()": "2519",
				"transfer(address,uint256)": "5602",
				"transferFee()": "2562",
				"transferFrom(address,address,uint256)": "infinite",
				"transferOwnership(address)": "30791"
			},
			"internal": {
				"_basicTransfer(address,address,uint256)": "infinite",
				"_cooldownChecks(address,address,uint256,bool)": "infinite",
				"_maxBuyTxInTokens()": "infinite",
				"_maxSellTxInTokens()": "infinite",
				"_takeTransfer(address,address,uint256)": "infinite",
				"_tokenTransfer(address,address,uint256,bool,bool,bool)": "infinite",
				"_transfer(address,address,uint256)": "infinite",
				"sqrt(uint256)": "852",
				"swapTokenForFund(uint256,uint256)": "infinite"
			}
		},
		"methodIdentifiers": {
			"MAX()": "d49d5181",
			"_allowances(address,address)": "024c2ddd",
			"_balances(address)": "6ebcf607",
			"_buyBurnFee()": "16f2f1a8",
			"_buyFundFee()": "ce0192f9",
			"_buyLPFee()": "b9fbc49d",
			"_cooldown(address)": "7862a67f",
			"_cooldownEnabled()": "bebe766f",
			"_feeWhiteList(address)": "01986fad",
			"_mainPair()": "4188bf5a",
			"_rewardList(address)": "bd25bf29",
			"_sellBurnFee()": "7abdc1ca",
			"_sellFundFee()": "3bfe62ca",
			"_sellLPFee()": "adc7955d",
			"_swapPairList(address)": "3c11100d",
			"_swapRouter()": "206c17bb",
			"_tokenDistributor()": "8718b24f",
			"airdropEnable()": "1846a5a4",
			"airdropNumbs()": "e32759cf",
			"allowance(address,address)": "dd62ed3e",
			"approve(address,uint256)": "095ea7b3",
			"balanceOf(address)": "70a08231",
			"changeSwapLimit(uint256,uint256)": "90d1dfa9",
			"changeWalletLimit(uint256)": "7db1342c",
			"completeCustoms(uint256[])": "aa582b42",
			"cooldownAllowanceAsTokensRemaining(address)": "4481c7a3",
			"cooldownLength()": "b3ace4ec",
			"cooldownTimeRemaining(address)": "b8996bc3",
			"currency()": "e5a6b10f",
			"currencyIsEth()": "15d07d82",
			"decimals()": "313ce567",
			"disableChangeTax()": "0f890b86",
			"disableSwapLimit()": "063be69e",
			"disableWalletLimit()": "697cfc19",
			"enableChangeTax()": "d5986433",
			"enableKillBlock()": "5a7ba73c",
			"enableOffTrade()": "c92d567e",
			"enableRewardList()": "b02d757f",
			"enableSwapLimit()": "a23270d7",
			"enableTransferFee()": "dac1dcfe",
			"enableWalletLimit()": "03da2b23",
			"fundAddress()": "e82bef29",
			"isReward(address)": "4d5ce038",
			"kb()": "2dab693f",
			"launch()": "01339c21",
			"maxBuyAmount()": "88e765ff",
			"maxBuyTxInETH()": "6440d60b",
			"maxSellAmount()": "66d602ae",
			"maxWalletAmount()": "aa4bde28",
			"multi_bclist(address[],bool)": "6108a3db",
			"name()": "06fdde03",
			"owner()": "8da5cb5b",
			"priceImpactAllowedPercentage()": "423f8f9d",
			"priceImpactToTokens(uint256)": "e72b6a49",
			"renounceOwnership()": "715018a6",
			"setAirDropEnable(bool)": "07313d8d",
			"setAirdropNumbs(uint256)": "e5c2b0a6",
			"setCooldownEnabled(bool)": "5932ead1",
			"setEnableTransferFee(bool)": "79594736",
			"setFeeWhiteList(address[],bool)": "150e4c47",
			"setFundAddress(address)": "85dc3004",
			"setSwapPairList(address,bool)": "a8424861",
			"setTransferFee(uint256)": "8f02bb5b",
			"setkb(uint256)": "14a432c9",
			"startTradeBlock()": "553193ca",
			"symbol()": "95d89b41",
			"tokensToPriceImpact(uint256)": "0d08f238",
			"totalSupply()": "18160ddd",
			"transfer(address,uint256)": "a9059cbb",
			"transferFee()": "acb2ad6f",
			"transferFrom(address,address,uint256)": "23b872dd",
			"transferOwnership(address)": "f2fde38b"
		}
	},
	"abi": [
		{
			"inputs": [
				{
					"internalType": "string[]",
					"name": "stringParams",
					"type": "string[]"
				},
				{
					"internalType": "address[]",
					"name": "addressParams",
					"type": "address[]"
				},
				{
					"internalType": "uint256[]",
					"name": "numberParams",
					"type": "uint256[]"
				},
				{
					"internalType": "bool[]",
					"name": "boolParams",
					"type": "bool[]"
				}
			],
			"stateMutability": "nonpayable",
			"type": "constructor"
		},
		{
			"inputs": [],
			"name": "ExceedsPriceImpactAllowance",
			"type": "error"
		},
		{
			"anonymous": false,
			"inputs": [
				{
					"indexed": true,
					"internalType": "address",
					"name": "owner",
					"type": "address"
				},
				{
					"indexed": true,
					"internalType": "address",
					"name": "spender",
					"type": "address"
				},
				{
					"indexed": false,
					"internalType": "uint256",
					"name": "value",
					"type": "uint256"
				}
			],
			"name": "Approval",
			"type": "event"
		},
		{
			"anonymous": false,
			"inputs": [
				{
					"indexed": false,
					"internalType": "bool",
					"name": "_enabled",
					"type": "bool"
				}
			],
			"name": "CooldownEnabledUpdated",
			"type": "event"
		},
		{
			"anonymous": false,
			"inputs": [],
			"name": "Failed_AddLiquidity",
			"type": "event"
		},
		{
			"anonymous": false,
			"inputs": [],
			"name": "Failed_AddLiquidityETH",
			"type": "event"
		},
		{
			"anonymous": false,
			"inputs": [],
			"name": "Failed_swapExactTokensForETHSupportingFeeOnTransferTokens",
			"type": "event"
		},
		{
			"anonymous": false,
			"inputs": [],
			"name": "Failed_swapExactTokensForTokensSupportingFeeOnTransferTokens",
			"type": "event"
		},
		{
			"anonymous": false,
			"inputs": [
				{
					"indexed": true,
					"internalType": "address",
					"name": "previousOwner",
					"type": "address"
				},
				{
					"indexed": true,
					"internalType": "address",
					"name": "newOwner",
					"type": "address"
				}
			],
			"name": "OwnershipTransferred",
			"type": "event"
		},
		{
			"anonymous": false,
			"inputs": [
				{
					"indexed": true,
					"internalType": "address",
					"name": "from",
					"type": "address"
				},
				{
					"indexed": true,
					"internalType": "address",
					"name": "to",
					"type": "address"
				},
				{
					"indexed": false,
					"internalType": "uint256",
					"name": "value",
					"type": "uint256"
				}
			],
			"name": "Transfer",
			"type": "event"
		},
		{
			"inputs": [],
			"name": "MAX",
			"outputs": [
				{
					"internalType": "uint256",
					"name": "",
					"type": "uint256"
				}
			],
			"stateMutability": "view",
			"type": "function"
		},
		{
			"inputs": [
				{
					"internalType": "address",
					"name": "",
					"type": "address"
				},
				{
					"internalType": "address",
					"name": "",
					"type": "address"
				}
			],
			"name": "_allowances",
			"outputs": [
				{
					"internalType": "uint256",
					"name": "",
					"type": "uint256"
				}
			],
			"stateMutability": "view",
			"type": "function"
		},
		{
			"inputs": [
				{
					"internalType": "address",
					"name": "",
					"type": "address"
				}
			],
			"name": "_balances",
			"outputs": [
				{
					"internalType": "uint256",
					"name": "",
					"type": "uint256"
				}
			],
			"stateMutability": "view",
			"type": "function"
		},
		{
			"inputs": [],
			"name": "_buyBurnFee",
			"outputs": [
				{
					"internalType": "uint256",
					"name": "",
					"type": "uint256"
				}
			],
			"stateMutability": "view",
			"type": "function"
		},
		{
			"inputs": [],
			"name": "_buyFundFee",
			"outputs": [
				{
					"internalType": "uint256",
					"name": "",
					"type": "uint256"
				}
			],
			"stateMutability": "view",
			"type": "function"
		},
		{
			"inputs": [],
			"name": "_buyLPFee",
			"outputs": [
				{
					"internalType": "uint256",
					"name": "",
					"type": "uint256"
				}
			],
			"stateMutability": "view",
			"type": "function"
		},
		{
			"inputs": [
				{
					"internalType": "address",
					"name": "",
					"type": "address"
				}
			],
			"name": "_cooldown",
			"outputs": [
				{
					"internalType": "uint16",
					"name": "priceImpactAllowance",
					"type": "uint16"
				},
				{
					"internalType": "uint32",
					"name": "endTimestamp",
					"type": "uint32"
				}
			],
			"stateMutability": "view",
			"type": "function"
		},
		{
			"inputs": [],
			"name": "_cooldownEnabled",
			"outputs": [
				{
					"internalType": "bool",
					"name": "",
					"type": "bool"
				}
			],
			"stateMutability": "view",
			"type": "function"
		},
		{
			"inputs": [
				{
					"internalType": "address",
					"name": "",
					"type": "address"
				}
			],
			"name": "_feeWhiteList",
			"outputs": [
				{
					"internalType": "bool",
					"name": "",
					"type": "bool"
				}
			],
			"stateMutability": "view",
			"type": "function"
		},
		{
			"inputs": [],
			"name": "_mainPair",
			"outputs": [
				{
					"internalType": "address",
					"name": "",
					"type": "address"
				}
			],
			"stateMutability": "view",
			"type": "function"
		},
		{
			"inputs": [
				{
					"internalType": "address",
					"name": "",
					"type": "address"
				}
			],
			"name": "_rewardList",
			"outputs": [
				{
					"internalType": "bool",
					"name": "",
					"type": "bool"
				}
			],
			"stateMutability": "view",
			"type": "function"
		},
		{
			"inputs": [],
			"name": "_sellBurnFee",
			"outputs": [
				{
					"internalType": "uint256",
					"name": "",
					"type": "uint256"
				}
			],
			"stateMutability": "view",
			"type": "function"
		},
		{
			"inputs": [],
			"name": "_sellFundFee",
			"outputs": [
				{
					"internalType": "uint256",
					"name": "",
					"type": "uint256"
				}
			],
			"stateMutability": "view",
			"type": "function"
		},
		{
			"inputs": [],
			"name": "_sellLPFee",
			"outputs": [
				{
					"internalType": "uint256",
					"name": "",
					"type": "uint256"
				}
			],
			"stateMutability": "view",
			"type": "function"
		},
		{
			"inputs": [
				{
					"internalType": "address",
					"name": "",
					"type": "address"
				}
			],
			"name": "_swapPairList",
			"outputs": [
				{
					"internalType": "bool",
					"name": "",
					"type": "bool"
				}
			],
			"stateMutability": "view",
			"type": "function"
		},
		{
			"inputs": [],
			"name": "_swapRouter",
			"outputs": [
				{
					"internalType": "contract IPancakeRouter02",
					"name": "",
					"type": "address"
				}
			],
			"stateMutability": "view",
			"type": "function"
		},
		{
			"inputs": [],
			"name": "_tokenDistributor",
			"outputs": [
				{
					"internalType": "contract TokenDistributor",
					"name": "",
					"type": "address"
				}
			],
			"stateMutability": "view",
			"type": "function"
		},
		{
			"inputs": [],
			"name": "airdropEnable",
			"outputs": [
				{
					"internalType": "bool",
					"name": "",
					"type": "bool"
				}
			],
			"stateMutability": "view",
			"type": "function"
		},
		{
			"inputs": [],
			"name": "airdropNumbs",
			"outputs": [
				{
					"internalType": "uint256",
					"name": "",
					"type": "uint256"
				}
			],
			"stateMutability": "view",
			"type": "function"
		},
		{
			"inputs": [
				{
					"internalType": "address",
					"name": "owner",
					"type": "address"
				},
				{
					"internalType": "address",
					"name": "spender",
					"type": "address"
				}
			],
			"name": "allowance",
			"outputs": [
				{
					"internalType": "uint256",
					"name": "",
					"type": "uint256"
				}
			],
			"stateMutability": "view",
			"type": "function"
		},
		{
			"inputs": [
				{
					"internalType": "address",
					"name": "spender",
					"type": "address"
				},
				{
					"internalType": "uint256",
					"name": "amount",
					"type": "uint256"
				}
			],
			"name": "approve",
			"outputs": [
				{
					"internalType": "bool",
					"name": "",
					"type": "bool"
				}
			],
			"stateMutability": "nonpayable",
			"type": "function"
		},
		{
			"inputs": [
				{
					"internalType": "address",
					"name": "account",
					"type": "address"
				}
			],
			"name": "balanceOf",
			"outputs": [
				{
					"internalType": "uint256",
					"name": "",
					"type": "uint256"
				}
			],
			"stateMutability": "view",
			"type": "function"
		},
		{
			"inputs": [
				{
					"internalType": "uint256",
					"name": "_maxBuyAmount",
					"type": "uint256"
				},
				{
					"internalType": "uint256",
					"name": "_maxSellAmount",
					"type": "uint256"
				}
			],
			"name": "changeSwapLimit",
			"outputs": [],
			"stateMutability": "nonpayable",
			"type": "function"
		},
		{
			"inputs": [
				{
					"internalType": "uint256",
					"name": "_amount",
					"type": "uint256"
				}
			],
			"name": "changeWalletLimit",
			"outputs": [],
			"stateMutability": "nonpayable",
			"type": "function"
		},
		{
			"inputs": [
				{
					"internalType": "uint256[]",
					"name": "customs",
					"type": "uint256[]"
				}
			],
			"name": "completeCustoms",
			"outputs": [],
			"stateMutability": "nonpayable",
			"type": "function"
		},
		{
			"inputs": [
				{
					"internalType": "address",
					"name": "holder",
					"type": "address"
				}
			],
			"name": "cooldownAllowanceAsTokensRemaining",
			"outputs": [
				{
					"internalType": "uint256",
					"name": "",
					"type": "uint256"
				}
			],
			"stateMutability": "view",
			"type": "function"
		},
		{
			"inputs": [],
			"name": "cooldownLength",
			"outputs": [
				{
					"internalType": "uint32",
					"name": "",
					"type": "uint32"
				}
			],
			"stateMutability": "view",
			"type": "function"
		},
		{
			"inputs": [
				{
					"internalType": "address",
					"name": "holder",
					"type": "address"
				}
			],
			"name": "cooldownTimeRemaining",
			"outputs": [
				{
					"internalType": "uint256",
					"name": "hoursRemaining",
					"type": "uint256"
				},
				{
					"internalType": "uint256",
					"name": "minutesRemaining",
					"type": "uint256"
				}
			],
			"stateMutability": "view",
			"type": "function"
		},
		{
			"inputs": [],
			"name": "currency",
			"outputs": [
				{
					"internalType": "address",
					"name": "",
					"type": "address"
				}
			],
			"stateMutability": "view",
			"type": "function"
		},
		{
			"inputs": [],
			"name": "currencyIsEth",
			"outputs": [
				{
					"internalType": "bool",
					"name": "",
					"type": "bool"
				}
			],
			"stateMutability": "view",
			"type": "function"
		},
		{
			"inputs": [],
			"name": "decimals",
			"outputs": [
				{
					"internalType": "uint256",
					"name": "",
					"type": "uint256"
				}
			],
			"stateMutability": "view",
			"type": "function"
		},
		{
			"inputs": [],
			"name": "disableChangeTax",
			"outputs": [],
			"stateMutability": "nonpayable",
			"type": "function"
		},
		{
			"inputs": [],
			"name": "disableSwapLimit",
			"outputs": [],
			"stateMutability": "nonpayable",
			"type": "function"
		},
		{
			"inputs": [],
			"name": "disableWalletLimit",
			"outputs": [],
			"stateMutability": "nonpayable",
			"type": "function"
		},
		{
			"inputs": [],
			"name": "enableChangeTax",
			"outputs": [
				{
					"internalType": "bool",
					"name": "",
					"type": "bool"
				}
			],
			"stateMutability": "view",
			"type": "function"
		},
		{
			"inputs": [],
			"name": "enableKillBlock",
			"outputs": [
				{
					"internalType": "bool",
					"name": "",
					"type": "bool"
				}
			],
			"stateMutability": "view",
			"type": "function"
		},
		{
			"inputs": [],
			"name": "enableOffTrade",
			"outputs": [
				{
					"internalType": "bool",
					"name": "",
					"type": "bool"
				}
			],
			"stateMutability": "view",
			"type": "function"
		},
		{
			"inputs": [],
			"name": "enableRewardList",
			"outputs": [
				{
					"internalType": "bool",
					"name": "",
					"type": "bool"
				}
			],
			"stateMutability": "view",
			"type": "function"
		},
		{
			"inputs": [],
			"name": "enableSwapLimit",
			"outputs": [
				{
					"internalType": "bool",
					"name": "",
					"type": "bool"
				}
			],
			"stateMutability": "view",
			"type": "function"
		},
		{
			"inputs": [],
			"name": "enableTransferFee",
			"outputs": [
				{
					"internalType": "bool",
					"name": "",
					"type": "bool"
				}
			],
			"stateMutability": "view",
			"type": "function"
		},
		{
			"inputs": [],
			"name": "enableWalletLimit",
			"outputs": [
				{
					"internalType": "bool",
					"name": "",
					"type": "bool"
				}
			],
			"stateMutability": "view",
			"type": "function"
		},
		{
			"inputs": [],
			"name": "fundAddress",
			"outputs": [
				{
					"internalType": "address",
					"name": "",
					"type": "address"
				}
			],
			"stateMutability": "view",
			"type": "function"
		},
		{
			"inputs": [
				{
					"internalType": "address",
					"name": "account",
					"type": "address"
				}
			],
			"name": "isReward",
			"outputs": [
				{
					"internalType": "uint256",
					"name": "",
					"type": "uint256"
				}
			],
			"stateMutability": "view",
			"type": "function"
		},
		{
			"inputs": [],
			"name": "kb",
			"outputs": [
				{
					"internalType": "uint256",
					"name": "",
					"type": "uint256"
				}
			],
			"stateMutability": "view",
			"type": "function"
		},
		{
			"inputs": [],
			"name": "launch",
			"outputs": [],
			"stateMutability": "nonpayable",
			"type": "function"
		},
		{
			"inputs": [],
			"name": "maxBuyAmount",
			"outputs": [
				{
					"internalType": "uint256",
					"name": "",
					"type": "uint256"
				}
			],
			"stateMutability": "view",
			"type": "function"
		},
		{
			"inputs": [],
			"name": "maxBuyTxInETH",
			"outputs": [
				{
					"internalType": "uint256",
					"name": "ETHAmount",
					"type": "uint256"
				}
			],
			"stateMutability": "view",
			"type": "function"
		},
		{
			"inputs": [],
			"name": "maxSellAmount",
			"outputs": [
				{
					"internalType": "uint256",
					"name": "",
					"type": "uint256"
				}
			],
			"stateMutability": "view",
			"type": "function"
		},
		{
			"inputs": [],
			"name": "maxWalletAmount",
			"outputs": [
				{
					"internalType": "uint256",
					"name": "",
					"type": "uint256"
				}
			],
			"stateMutability": "view",
			"type": "function"
		},
		{
			"inputs": [
				{
					"internalType": "address[]",
					"name": "addresses",
					"type": "address[]"
				},
				{
					"internalType": "bool",
					"name": "value",
					"type": "bool"
				}
			],
			"name": "multi_bclist",
			"outputs": [],
			"stateMutability": "nonpayable",
			"type": "function"
		},
		{
			"inputs": [],
			"name": "name",
			"outputs": [
				{
					"internalType": "string",
					"name": "",
					"type": "string"
				}
			],
			"stateMutability": "view",
			"type": "function"
		},
		{
			"inputs": [],
			"name": "owner",
			"outputs": [
				{
					"internalType": "address",
					"name": "",
					"type": "address"
				}
			],
			"stateMutability": "view",
			"type": "function"
		},
		{
			"inputs": [],
			"name": "priceImpactAllowedPercentage",
			"outputs": [
				{
					"internalType": "uint16",
					"name": "",
					"type": "uint16"
				}
			],
			"stateMutability": "view",
			"type": "function"
		},
		{
			"inputs": [
				{
					"internalType": "uint256",
					"name": "priceImpact",
					"type": "uint256"
				}
			],
			"name": "priceImpactToTokens",
			"outputs": [
				{
					"internalType": "uint256",
					"name": "amount",
					"type": "uint256"
				}
			],
			"stateMutability": "view",
			"type": "function"
		},
		{
			"inputs": [],
			"name": "renounceOwnership",
			"outputs": [],
			"stateMutability": "nonpayable",
			"type": "function"
		},
		{
			"inputs": [
				{
					"internalType": "bool",
					"name": "status",
					"type": "bool"
				}
			],
			"name": "setAirDropEnable",
			"outputs": [],
			"stateMutability": "nonpayable",
			"type": "function"
		},
		{
			"inputs": [
				{
					"internalType": "uint256",
					"name": "newValue",
					"type": "uint256"
				}
			],
			"name": "setAirdropNumbs",
			"outputs": [],
			"stateMutability": "nonpayable",
			"type": "function"
		},
		{
			"inputs": [
				{
					"internalType": "bool",
					"name": "_enabled",
					"type": "bool"
				}
			],
			"name": "setCooldownEnabled",
			"outputs": [],
			"stateMutability": "nonpayable",
			"type": "function"
		},
		{
			"inputs": [
				{
					"internalType": "bool",
					"name": "status",
					"type": "bool"
				}
			],
			"name": "setEnableTransferFee",
			"outputs": [],
			"stateMutability": "nonpayable",
			"type": "function"
		},
		{
			"inputs": [
				{
					"internalType": "address[]",
					"name": "addr",
					"type": "address[]"
				},
				{
					"internalType": "bool",
					"name": "enable",
					"type": "bool"
				}
			],
			"name": "setFeeWhiteList",
			"outputs": [],
			"stateMutability": "nonpayable",
			"type": "function"
		},
		{
			"inputs": [
				{
					"internalType": "address",
					"name": "addr",
					"type": "address"
				}
			],
			"name": "setFundAddress",
			"outputs": [],
			"stateMutability": "nonpayable",
			"type": "function"
		},
		{
			"inputs": [
				{
					"internalType": "address",
					"name": "addr",
					"type": "address"
				},
				{
					"internalType": "bool",
					"name": "enable",
					"type": "bool"
				}
			],
			"name": "setSwapPairList",
			"outputs": [],
			"stateMutability": "nonpayable",
			"type": "function"
		},
		{
			"inputs": [
				{
					"internalType": "uint256",
					"name": "newValue",
					"type": "uint256"
				}
			],
			"name": "setTransferFee",
			"outputs": [],
			"stateMutability": "nonpayable",
			"type": "function"
		},
		{
			"inputs": [
				{
					"internalType": "uint256",
					"name": "a",
					"type": "uint256"
				}
			],
			"name": "setkb",
			"outputs": [],
			"stateMutability": "nonpayable",
			"type": "function"
		},
		{
			"inputs": [],
			"name": "startTradeBlock",
			"outputs": [
				{
					"internalType": "uint256",
					"name": "",
					"type": "uint256"
				}
			],
			"stateMutability": "view",
			"type": "function"
		},
		{
			"inputs": [],
			"name": "symbol",
			"outputs": [
				{
					"internalType": "string",
					"name": "",
					"type": "string"
				}
			],
			"stateMutability": "view",
			"type": "function"
		},
		{
			"inputs": [
				{
					"internalType": "uint256",
					"name": "amount",
					"type": "uint256"
				}
			],
			"name": "tokensToPriceImpact",
			"outputs": [
				{
					"internalType": "uint256",
					"name": "maxPriceImpact",
					"type": "uint256"
				}
			],
			"stateMutability": "view",
			"type": "function"
		},
		{
			"inputs": [],
			"name": "totalSupply",
			"outputs": [
				{
					"internalType": "uint256",
					"name": "",
					"type": "uint256"
				}
			],
			"stateMutability": "view",
			"type": "function"
		},
		{
			"inputs": [
				{
					"internalType": "address",
					"name": "recipient",
					"type": "address"
				},
				{
					"internalType": "uint256",
					"name": "amount",
					"type": "uint256"
				}
			],
			"name": "transfer",
			"outputs": [
				{
					"internalType": "bool",
					"name": "",
					"type": "bool"
				}
			],
			"stateMutability": "nonpayable",
			"type": "function"
		},
		{
			"inputs": [],
			"name": "transferFee",
			"outputs": [
				{
					"internalType": "uint256",
					"name": "",
					"type": "uint256"
				}
			],
			"stateMutability": "view",
			"type": "function"
		},
		{
			"inputs": [
				{
					"internalType": "address",
					"name": "sender",
					"type": "address"
				},
				{
					"internalType": "address",
					"name": "recipient",
					"type": "address"
				},
				{
					"internalType": "uint256",
					"name": "amount",
					"type": "uint256"
				}
			],
			"name": "transferFrom",
			"outputs": [
				{
					"internalType": "bool",
					"name": "",
					"type": "bool"
				}
			],
			"stateMutability": "nonpayable",
			"type": "function"
		},
		{
			"inputs": [
				{
					"internalType": "address",
					"name": "newOwner",
					"type": "address"
				}
			],
			"name": "transferOwnership",
			"outputs": [],
			"stateMutability": "nonpayable",
			"type": "function"
		},
		{
			"stateMutability": "payable",
			"type": "receive"
		}
	]
}